{
  "_format": "hh-sol-artifact-1",
  "contractName": "BlockReward",
  "sourceName": "contracts/BlockReward.sol",
  "abi": [
    {
      "constant": true,
      "inputs": [],
      "name": "DECIMALS",
      "outputs": [
        {
          "name": "",
          "type": "uint256"
        }
      ],
      "payable": false,
      "stateMutability": "view",
      "type": "function"
    },
    {
      "constant": true,
      "inputs": [],
      "name": "isInitialized",
      "outputs": [
        {
          "name": "",
          "type": "bool"
        }
      ],
      "payable": false,
      "stateMutability": "view",
      "type": "function"
    },
    {
      "constant": true,
      "inputs": [],
      "name": "getRewardedOnCycle",
      "outputs": [
        {
          "name": "",
          "type": "uint256"
        }
      ],
      "payable": false,
      "stateMutability": "view",
      "type": "function"
    },
    {
      "constant": true,
      "inputs": [],
      "name": "shouldEmitRewardedOnCycle",
      "outputs": [
        {
          "name": "",
          "type": "bool"
        }
      ],
      "payable": false,
      "stateMutability": "view",
      "type": "function"
    },
    {
      "constant": true,
      "inputs": [],
      "name": "getBlockRewardAmount",
      "outputs": [
        {
          "name": "",
          "type": "uint256"
        }
      ],
      "payable": false,
      "stateMutability": "view",
      "type": "function"
    },
    {
      "constant": true,
      "inputs": [
        {
          "name": "_validator",
          "type": "address"
        }
      ],
      "name": "getBlockRewardAmountPerValidator",
      "outputs": [
        {
          "name": "",
          "type": "uint256"
        }
      ],
      "payable": false,
      "stateMutability": "view",
      "type": "function"
    },
    {
      "constant": true,
      "inputs": [],
      "name": "INFLATION",
      "outputs": [
        {
          "name": "",
          "type": "uint256"
        }
      ],
      "payable": false,
      "stateMutability": "view",
      "type": "function"
    },
    {
      "constant": true,
      "inputs": [],
      "name": "getBlocksPerYear",
      "outputs": [
        {
          "name": "",
          "type": "uint256"
        }
      ],
      "payable": false,
      "stateMutability": "pure",
      "type": "function"
    },
    {
      "constant": false,
      "inputs": [],
      "name": "onCycleEnd",
      "outputs": [],
      "payable": false,
      "stateMutability": "nonpayable",
      "type": "function"
    },
    {
      "constant": true,
      "inputs": [],
      "name": "getTotalSupply",
      "outputs": [
        {
          "name": "",
          "type": "uint256"
        }
      ],
      "payable": false,
      "stateMutability": "view",
      "type": "function"
    },
    {
      "constant": true,
      "inputs": [],
      "name": "BLOCKS_PER_YEAR",
      "outputs": [
        {
          "name": "",
          "type": "uint256"
        }
      ],
      "payable": false,
      "stateMutability": "view",
      "type": "function"
    },
    {
      "constant": false,
      "inputs": [],
      "name": "emitRewardedOnCycle",
      "outputs": [],
      "payable": false,
      "stateMutability": "nonpayable",
      "type": "function"
    },
    {
      "constant": true,
      "inputs": [],
      "name": "getInflation",
      "outputs": [
        {
          "name": "",
          "type": "uint256"
        }
      ],
      "payable": false,
      "stateMutability": "pure",
      "type": "function"
    },
    {
      "constant": true,
      "inputs": [],
      "name": "getProxyStorage",
      "outputs": [
        {
          "name": "",
          "type": "address"
        }
      ],
      "payable": false,
      "stateMutability": "view",
      "type": "function"
    },
    {
      "constant": false,
      "inputs": [
        {
          "name": "benefactors",
          "type": "address[]"
        },
        {
          "name": "kind",
          "type": "uint16[]"
        }
      ],
      "name": "reward",
      "outputs": [
        {
          "name": "",
          "type": "address[]"
        },
        {
          "name": "",
          "type": "uint256[]"
        }
      ],
      "payable": false,
      "stateMutability": "nonpayable",
      "type": "function"
    },
    {
      "constant": false,
      "inputs": [
        {
          "name": "_supply",
          "type": "uint256"
        }
      ],
      "name": "initialize",
      "outputs": [],
      "payable": false,
      "stateMutability": "nonpayable",
      "type": "function"
    },
    {
      "anonymous": false,
      "inputs": [
        {
          "indexed": false,
          "name": "receivers",
          "type": "address[]"
        },
        {
          "indexed": false,
          "name": "rewards",
          "type": "uint256[]"
        }
      ],
      "name": "Rewarded",
      "type": "event"
    },
    {
      "anonymous": false,
      "inputs": [
        {
          "indexed": false,
          "name": "amount",
          "type": "uint256"
        }
      ],
      "name": "RewardedOnCycle",
      "type": "event"
    }
  ],
  "bytecode": "0x608060405234801561001057600080fd5b5061193e806100206000396000f3006080604052600436106100cc5763ffffffff60e060020a6000350416632e0f262581146100d1578063392e53cd146100f8578063537cc17c146101215780635c3be315146101365780635dba8c4a1461014b57806363037afc146101605780636d20d6ae14610181578063741de14814610196578063b1f0c8e1146101ab578063c4e41b22146101c2578063d37db1d2146101d7578063d56f4f28146101ec578063d5a9577114610201578063ec15a5e614610216578063f91c289814610247578063fe4b84df1461030c575b600080fd5b3480156100dd57600080fd5b506100e6610324565b60408051918252519081900360200190f35b34801561010457600080fd5b5061010d610330565b604080519115158252519081900360200190f35b34801561012d57600080fd5b506100e66103e8565b34801561014257600080fd5b5061010d61049d565b34801561015757600080fd5b506100e6610617565b34801561016c57600080fd5b506100e6600160a060020a036004351661068b565b34801561018d57600080fd5b506100e66108fe565b3480156101a257600080fd5b506100e6610903565b3480156101b757600080fd5b506101c061090a565b005b3480156101ce57600080fd5b506100e661099b565b3480156101e357600080fd5b506100e6610a0f565b3480156101f857600080fd5b506101c0610a16565b34801561020d57600080fd5b506100e6610b82565b34801561022257600080fd5b5061022b610b87565b60408051600160a060020a039092168252519081900360200190f35b34801561025357600080fd5b506102736024600480358281019290820135918135918201910135610c45565b604051808060200180602001838103835285818151815260200191508051906020019060200280838360005b838110156102b757818101518382015260200161029f565b50505050905001838103825284818151815260200191508051906020019060200280838360005b838110156102f65781810151838201526020016102de565b5050505090500194505050505060405180910390f35b34801561031857600080fd5b506101c0600435611310565b670de0b6b3a764000081565b60006006600060405160200180807f6973496e697469616c697a656400000000000000000000000000000000000000815250600d0190506040516020818303038152906040526040518082805190602001908083835b602083106103a55780518252601f199092019160209182019101610386565b51815160209384036101000a600019018019909216911617905260408051929094018290039091208652850195909552929092016000205460ff16949350505050565b60006002600060405160200180807f72657761726465644f6e4379636c650000000000000000000000000000000000815250600f0190506040516020818303038152906040526040518082805190602001908083835b6020831061045d5780518252601f19909201916020918201910161043e565b51815160209384036101000a6000190180199092169116179052604080519290940182900390912086528501959095529290920160002054949350505050565b60006104a7610b87565b600160a060020a031663179e740b6040518163ffffffff1660e060020a028152600401602060405180830381600087803b1580156104e457600080fd5b505af11580156104f8573d6000803e3d6000fd5b505050506040513d602081101561050e57600080fd5b5051604080517f8d4e40830000000000000000000000000000000000000000000000000000000081529051600160a060020a0390921691638d4e4083916004808201926020929091908290030181600087803b15801561056d57600080fd5b505af1158015610581573d6000803e3d6000fd5b505050506040513d602081101561059757600080fd5b5051801561061257506006600060405160200180807f73686f756c64456d697452657761726465644f6e4379636c65000000000000008152506019019050604051602081830303815290604052604051808280519060200190808383602083106103a55780518252601f199092019160209182019101610386565b905090565b60006002600060405160200180807f626c6f636b526577617264416d6f756e7400000000000000000000000000000081525060110190506040516020818303038152906040526040518082805190602001908083836020831061045d5780518252601f19909201916020918201910161043e565b600080600080600061069b610b87565b600160a060020a031663179e740b6040518163ffffffff1660e060020a028152600401602060405180830381600087803b1580156106d857600080fd5b505af11580156106ec573d6000803e3d6000fd5b505050506040513d602081101561070257600080fd5b5051604080517fbf135267000000000000000000000000000000000000000000000000000000008152600160a060020a03898116600483015291519296509086169163bf135267916024808201926020929091908290030181600087803b15801561076c57600080fd5b505af1158015610780573d6000803e3d6000fd5b505050506040513d602081101561079657600080fd5b5051604080517f94409a560000000000000000000000000000000000000000000000000000000081529051919450600160a060020a038616916394409a56916004808201926020929091908290030181600087803b1580156107f757600080fd5b505af115801561080b573d6000803e3d6000fd5b505050506040513d602081101561082157600080fd5b5051604080517f40c9cdeb0000000000000000000000000000000000000000000000000000000081529051919350600160a060020a038616916340c9cdeb916004808201926020929091908290030181600087803b15801561088257600080fd5b505af1158015610896573d6000803e3d6000fd5b505050506040513d60208110156108ac57600080fd5b505190508115156108c6576108bf610617565b94506108f5565b6108f2826108e6836108da876108da610617565b9063ffffffff61142916565b9063ffffffff61146216565b94505b50505050919050565b600181565b62a0668090565b610912610b87565b600160a060020a031663179e740b6040518163ffffffff1660e060020a028152600401602060405180830381600087803b15801561094f57600080fd5b505af1158015610963573d6000803e3d6000fd5b505050506040513d602081101561097957600080fd5b5051600160a060020a0316331461098f57600080fd5b6109996001611485565b565b60006002600060405160200180807f746f74616c537570706c79000000000000000000000000000000000000000000815250600b0190506040516020818303038152906040526040518082805190602001908083836020831061045d5780518252601f19909201916020918201910161043e565b62a0668081565b610a1e610b87565b600160a060020a031663179e740b6040518163ffffffff1660e060020a028152600401602060405180830381600087803b158015610a5b57600080fd5b505af1158015610a6f573d6000803e3d6000fd5b505050506040513d6020811015610a8557600080fd5b5051604080517ffacd743b0000000000000000000000000000000000000000000000000000000081523360048201529051600160a060020a039092169163facd743b916024808201926020929091908290030181600087803b158015610aea57600080fd5b505af1158015610afe573d6000803e3d6000fd5b505050506040513d6020811015610b1457600080fd5b50511515610b2157600080fd5b610b2961049d565b1515610b3457600080fd5b7f5c0daed232a37723b040b8aa1c0b060b1d5fb3dea06a55fd30c35cab3e8fc3d7610b5d6103e8565b60408051918252519081900360200190a1610b786000611485565b6109996000611546565b600190565b60006004600060405160200180807f70726f787953746f726167650000000000000000000000000000000000000000815250600c0190506040516020818303038152906040526040518082805190602001908083835b60208310610bfc5780518252601f199092019160209182019101610bdd565b51815160209384036101000a6000190180199092169116179052604080519290940182900390912086528501959095529290920160002054600160a060020a0316949350505050565b606080600060608060608060006004600060405160200180807f53595354454d5f41444452455353000000000000000000000000000000000000815250600e0190506040516020818303038152906040526040518082805190602001908083835b60208310610cc55780518252601f199092019160209182019101610ca6565b51815160209384036101000a6000190180199092169116179052604080519290940182900390912086528501959095529290920160002054600160a060020a031633149250610d1691505057600080fd5b8a8914610d2257600080fd5b60018b14610d2f57600080fd5b89896000818110610d3c57fe5b9050602002013561ffff1661ffff166000141515610d5957600080fd5b610d7e8c8c6000818110610d6957fe5b90506020020135600160a060020a031661068b565b9550610d88610b87565b600160a060020a031663179e740b6040518163ffffffff1660e060020a028152600401602060405180830381600087803b158015610dc557600080fd5b505af1158015610dd9573d6000803e3d6000fd5b505050506040513d6020811015610def57600080fd5b5051600160a060020a0316636a28f12f8d8d6000818110610e0c57fe5b90506020020135600160a060020a0316886040518363ffffffff1660e060020a0281526004018083600160a060020a0316600160a060020a0316815260200182815260200192505050600060405180830381600087803b158015610e6f57600080fd5b505af1158015610e83573d6000803e3d6000fd5b505050506040513d6000823e601f3d908101601f191682016040908152811015610eac57600080fd5b810190808051640100000000811115610ec457600080fd5b82016020810184811115610ed757600080fd5b8151856020820283011164010000000082111715610ef457600080fd5b50509291906020018051640100000000811115610f1057600080fd5b82016020810184811115610f2357600080fd5b8151856020820283011164010000000082111715610f4057600080fd5b5050929190505050945094508451600101604051908082528060200260200182016040528015610f7a578160200160208202803883390190505b5092508251604051908082528060200260200182016040528015610fa8578160200160208202803883390190505b5091508b8b6000818110610fb857fe5b90506020020135600160a060020a0316836000815181101515610fd757fe5b600160a060020a039092166020928302909101909101528151869083906000908110610fff57fe5b602090810290910101525060015b845181116110eb57846001820381518110151561102657fe5b90602001906020020151838281518110151561103e57fe5b600160a060020a0390921660209283029091019091015283518490600019830190811061106757fe5b90602001906020020151828281518110151561107f57fe5b6020908102909101015281516110ca9083908390811061109b57fe5b906020019060200201518360008151811015156110b457fe5b602090810290910101519063ffffffff61160916565b8260008151811015156110d957fe5b6020908102909101015260010161100d565b61110b611106876110fa6103e8565b9063ffffffff61162016565b611546565b61111f61111a876110fa61099b565b611632565b61113761112a610903565b439063ffffffff6116b316565b1515611145576111456116d4565b61114d610b87565b600160a060020a031663179e740b6040518163ffffffff1660e060020a028152600401602060405180830381600087803b15801561118a57600080fd5b505af115801561119e573d6000803e3d6000fd5b505050506040513d60208110156111b457600080fd5b5051600160a060020a03166385cd84648d8d60008181106111d157fe5b90506020020135600160a060020a03166040518263ffffffff1660e060020a0281526004018082600160a060020a0316600160a060020a03168152602001915050600060405180830381600087803b15801561122c57600080fd5b505af1158015611240573d6000803e3d6000fd5b505050507fb747d4e9a0b39cc47496d84b42e4066ba8b8a0b89776528bcec4ac2997e224538383604051808060200180602001838103835285818151815260200191508051906020019060200280838360005b838110156112ab578181015183820152602001611293565b50505050905001838103825284818151815260200191508051906020019060200280838360005b838110156112ea5781810151838201526020016112d2565b5050505090500194505050505060405180910390a150909a909950975050505050505050565b6004600060405160200180807f6f776e657200000000000000000000000000000000000000000000000000000081525060050190506040516020818303038152906040526040518082805190602001908083835b602083106113835780518252601f199092019160209182019101611364565b51815160209384036101000a6000190180199092169116179052604080519290940182900390912086528501959095529290920160002054600160a060020a0316331492506113d491505057600080fd5b6113dc610330565b156113e657600080fd5b61140373fffffffffffffffffffffffffffffffffffffffe6117c2565b61140c81611632565b611414610b78565b61141c6116d4565b611426600161189f565b50565b60008083151561143c576000915061145b565b5082820282848281151561144c57fe5b041461145757600080fd5b8091505b5092915050565b60008080831161147157600080fd5b828481151561147c57fe5b04949350505050565b806006600060405160200180807f73686f756c64456d697452657761726465644f6e4379636c650000000000000081525060190190506040516020818303038152906040526040518082805190602001908083835b602083106114f95780518252601f1990920191602091820191016114da565b51815160209384036101000a60001901801990921691161790526040805192909401829003909120865285019590955292909201600020805460ff19169415159490941790935550505050565b600081101561155457600080fd5b806002600060405160200180807f72657761726465644f6e4379636c650000000000000000000000000000000000815250600f0190506040516020818303038152906040526040518082805190602001908083835b602083106115c85780518252601f1990920191602091820191016115a9565b51815160209384036101000a600019018019909216911617905260408051929094018290039091208652850195909552929092016000209390935550505050565b6000808383111561161957600080fd5b5050900390565b60008282018381101561145757600080fd5b600081101561164057600080fd5b806002600060405160200180807f746f74616c537570706c79000000000000000000000000000000000000000000815250600b019050604051602081830303815290604052604051808280519060200190808383602083106115c85780518252601f1990920191602091820191016115a9565b60008115156116c157600080fd5b81838115156116cc57fe5b069392505050565b61170f670de0b6b3a76400006108e66116eb610903565b6108e661170760646108e6670de0b6b3a76400006108da610b82565b6108da61099b565b6002600060405160200180807f626c6f636b526577617264416d6f756e7400000000000000000000000000000081525060110190506040516020818303038152906040526040518082805190602001908083835b602083106117825780518252601f199092019160209182019101611763565b51815160209384036101000a6000190180199092169116179052604080519290940182900390912086528501959095529290920160002093909355505050565b806004600060405160200180807f53595354454d5f41444452455353000000000000000000000000000000000000815250600e0190506040516020818303038152906040526040518082805190602001908083835b602083106118365780518252601f199092019160209182019101611817565b51815160209384036101000a60001901801990921691161790526040805192909401829003909120865285019590955292909201600020805473ffffffffffffffffffffffffffffffffffffffff1916600160a060020a03959095169490941790935550505050565b806006600060405160200180807f6973496e697469616c697a656400000000000000000000000000000000000000815250600d019050604051602081830303815290604052604051808280519060200190808383602083106114f95780518252601f1990920191602091820191016114da5600a165627a7a72305820d6abe78d8a16015e72427d63be7a4e12471ba1ce9eb5db077a85bd13db5a422e0029",
  "linkReferences": {},
  "deployedLinkReferences": {}
}