{"contracts/ProxyStorage.sol":{"ProxyStorage":{"abi":[{"constant":true,"inputs":[],"name":"getConsensus","outputs":[{"name":"","type":"address"}],"payable":false,"stateMutability":"view","type":"function"},{"constant":true,"inputs":[],"name":"getVoting","outputs":[{"name":"","type":"address"}],"payable":false,"stateMutability":"view","type":"function"},{"constant":false,"inputs":[{"name":"_blockReward","type":"address"},{"name":"_voting","type":"address"}],"name":"initializeAddresses","outputs":[],"payable":false,"stateMutability":"nonpayable","type":"function"},{"constant":true,"inputs":[{"name":"_contractType","type":"uint256"}],"name":"isValidContractType","outputs":[{"name":"","type":"bool"}],"payable":false,"stateMutability":"pure","type":"function"},{"constant":true,"inputs":[],"name":"isInitialized","outputs":[{"name":"","type":"bool"}],"payable":false,"stateMutability":"view","type":"function"},{"constant":false,"inputs":[{"name":"_contractType","type":"uint256"},{"name":"_contractAddress","type":"address"}],"name":"setContractAddress","outputs":[{"name":"","type":"bool"}],"payable":false,"stateMutability":"nonpayable","type":"function"},{"constant":false,"inputs":[{"name":"_consensus","type":"address"}],"name":"initialize","outputs":[],"payable":false,"stateMutability":"nonpayable","type":"function"},{"constant":true,"inputs":[],"name":"getBlockReward","outputs":[{"name":"","type":"address"}],"payable":false,"stateMutability":"view","type":"function"},{"anonymous":false,"inputs":[{"indexed":false,"name":"consensus","type":"address"},{"indexed":false,"name":"blockReward","type":"address"},{"indexed":false,"name":"voting","type":"address"}],"name":"ProxyInitialized","type":"event"},{"anonymous":false,"inputs":[{"indexed":false,"name":"contractType","type":"uint256"},{"indexed":false,"name":"contractAddress","type":"address"}],"name":"AddressSet","type":"event"}],"evm":{"bytecode":{"linkReferences":{},"object":"608060405234801561001057600080fd5b50610d87806100206000396000f3006080604052600436106100745763ffffffff60e060020a600035041663179e740b81146100795780631986d376146100aa57806330b7bdad146100bf57806333875fdd146100e8578063392e53cd14610114578063bb0165b114610129578063c4d66de81461014d578063f89d40861461016e575b600080fd5b34801561008557600080fd5b5061008e610183565b60408051600160a060020a039092168252519081900360200190f35b3480156100b657600080fd5b5061008e610241565b3480156100cb57600080fd5b506100e6600160a060020a03600435811690602435166102b5565b005b3480156100f457600080fd5b506101006004356106f3565b604080519115158252519081900360200190f35b34801561012057600080fd5b50610100610720565b34801561013557600080fd5b50610100600435600160a060020a03602435166107d8565b34801561015957600080fd5b506100e6600160a060020a0360043516610a32565b34801561017a57600080fd5b5061008e610b49565b60006004600060405160200180807f636f6e73656e737573000000000000000000000000000000000000000000000081525060090190506040516020818303038152906040526040518082805190602001908083835b602083106101f85780518252601f1990920191602091820191016101d9565b51815160209384036101000a6000190180199092169116179052604080519290940182900390912086528501959095529290920160002054600160a060020a0316949350505050565b60006004600060405160200180807f766f74696e6700000000000000000000000000000000000000000000000000008152506006019050604051602081830303815290604052604051808280519060200190808383602083106101f85780518252601f1990920191602091820191016101d9565b6004600060405160200180807f6f776e657200000000000000000000000000000000000000000000000000000081525060050190506040516020818303038152906040526040518082805190602001908083835b602083106103285780518252601f199092019160209182019101610309565b51815160209384036101000a6000190180199092169116179052604080519290940182900390912086528501959095529290920160002054600160a060020a03163314925061037991505057600080fd5b6006600060405160200180807f70726f787953746f72616765416464726573736573496e697469616c697a656481525060200190506040516020818303038152906040526040518082805190602001908083835b602083106103ec5780518252601f1990920191602091820191016103cd565b51815160209384036101000a600019018019909216911617905260408051929094018290039091208652850195909552929092016000205460ff1615925061043691505057600080fd5b816004600060405160200180807f626c6f636b526577617264000000000000000000000000000000000000000000815250600b0190506040516020818303038152906040526040518082805190602001908083835b602083106104aa5780518252601f19909201916020918201910161048b565b51815160209384036101000a60001901801990921691161790526040805192909401829003909120865285810196909652509283016000908120805473ffffffffffffffffffffffffffffffffffffffff1916600160a060020a039790971696909617909555505080517f766f74696e67000000000000000000000000000000000000000000000000000081840152815160068183030181526026909101918290528051859460049490939182918401908083835b6020831061057e5780518252601f19909201916020918201910161055f565b51815160209384036101000a60001901801990921691161790526040805192909401829003909120865285810196909652509283016000908120805473ffffffffffffffffffffffffffffffffffffffff1916600160a060020a039790971696909617909555505080517f70726f787953746f72616765416464726573736573496e697469616c697a65648184015281518082038401815290820191829052805160019460069490939182918401908083835b602083106106505780518252601f199092019160209182019101610631565b51815160209384036101000a60001901801990921691161790526040805192909401829003909120865285019590955292909201600020805460ff191694151594909417909355507fffcbdc3faa9d3a4dbee5296e7b8671c3962abe5cc9defb4144df40382ad4713c91506106c59050610183565b60408051600160a060020a039283168152828616602082015291841682820152519081900360600190a15050565b600060018214806107045750600282145b8061070f5750600382145b8061071a5750600482145b92915050565b60006006600060405160200180807f6973496e697469616c697a656400000000000000000000000000000000000000815250600d0190506040516020818303038152906040526040518082805190602001908083835b602083106107955780518252601f199092019160209182019101610776565b51815160209384036101000a600019018019909216911617905260408051929094018290039091208652850195909552929092016000205460ff16949350505050565b6000806107e3610241565b600160a060020a031633146107f757600080fd5b6107ff610720565b151561080e5760009150610a2b565b600160a060020a03831615156108275760009150610a2b565b50600060018414156108c85761083b610183565b600160a060020a0316633659cfe6846040518263ffffffff1660e060020a0281526004018082600160a060020a0316600160a060020a03168152602001915050602060405180830381600087803b15801561089557600080fd5b505af11580156108a9573d6000803e3d6000fd5b505050506040513d60208110156108bf57600080fd5b505190506109dd565b60028414156108d95761083b610b49565b600384141561094357604080517f3659cfe6000000000000000000000000000000000000000000000000000000008152600160a060020a038516600482015290513091633659cfe69160248083019260209291908290030181600087803b15801561089557600080fd5b60048414156109dd57610954610241565b600160a060020a0316633659cfe6846040518263ffffffff1660e060020a0281526004018082600160a060020a0316600160a060020a03168152602001915050602060405180830381600087803b1580156109ae57600080fd5b505af11580156109c2573d6000803e3d6000fd5b505050506040513d60208110156109d857600080fd5b505190505b8015610a275760408051858152600160a060020a038516602082015281517fcb8f0f32182a0f756b1e065dab832c24d2c48fa533912c33552252a7f25bf4ae929181900390910190a15b8091505b5092915050565b6004600060405160200180807f6f776e657200000000000000000000000000000000000000000000000000000081525060050190506040516020818303038152906040526040518082805190602001908083835b60208310610aa55780518252601f199092019160209182019101610a86565b51815160209384036101000a6000190180199092169116179052604080519290940182900390912086528501959095529290920160002054600160a060020a031633149250610af691505057600080fd5b610afe610720565b15610b0857600080fd5b600160a060020a0381161515610b1d57600080fd5b600160a060020a038116301415610b3357600080fd5b610b3c81610bbd565b610b466001610c9a565b50565b60006004600060405160200180807f626c6f636b526577617264000000000000000000000000000000000000000000815250600b019050604051602081830303815290604052604051808280519060200190808383602083106101f85780518252601f1990920191602091820191016101d9565b806004600060405160200180807f636f6e73656e737573000000000000000000000000000000000000000000000081525060090190506040516020818303038152906040526040518082805190602001908083835b60208310610c315780518252601f199092019160209182019101610c12565b51815160209384036101000a60001901801990921691161790526040805192909401829003909120865285019590955292909201600020805473ffffffffffffffffffffffffffffffffffffffff1916600160a060020a03959095169490941790935550505050565b806006600060405160200180807f6973496e697469616c697a656400000000000000000000000000000000000000815250600d0190506040516020818303038152906040526040518082805190602001908083835b60208310610d0e5780518252601f199092019160209182019101610cef565b51815160209384036101000a60001901801990921691161790526040805192909401829003909120865285019590955292909201600020805460ff191694151594909417909355505050505600a165627a7a72305820c2c2c12433da6ee0a930d11c09d871bead2991a3b6973295c9bd855ed02302b40029","opcodes":"PUSH1 0x80 PUSH1 0x40 MSTORE CALLVALUE DUP1 ISZERO PUSH2 0x10 JUMPI PUSH1 0x0 DUP1 REVERT JUMPDEST POP PUSH2 0xD87 DUP1 PUSH2 0x20 PUSH1 0x0 CODECOPY PUSH1 0x0 RETURN STOP PUSH1 0x80 PUSH1 0x40 MSTORE PUSH1 0x4 CALLDATASIZE LT PUSH2 0x74 JUMPI PUSH4 0xFFFFFFFF PUSH1 0xE0 PUSH1 0x2 EXP PUSH1 0x0 CALLDATALOAD DIV AND PUSH4 0x179E740B DUP2 EQ PUSH2 0x79 JUMPI DUP1 PUSH4 0x1986D376 EQ PUSH2 0xAA JUMPI DUP1 PUSH4 0x30B7BDAD EQ PUSH2 0xBF JUMPI DUP1 PUSH4 0x33875FDD EQ PUSH2 0xE8 JUMPI DUP1 PUSH4 0x392E53CD EQ PUSH2 0x114 JUMPI DUP1 PUSH4 0xBB0165B1 EQ PUSH2 0x129 JUMPI DUP1 PUSH4 0xC4D66DE8 EQ PUSH2 0x14D JUMPI DUP1 PUSH4 0xF89D4086 EQ PUSH2 0x16E JUMPI JUMPDEST PUSH1 0x0 DUP1 REVERT JUMPDEST CALLVALUE DUP1 ISZERO PUSH2 0x85 JUMPI PUSH1 0x0 DUP1 REVERT JUMPDEST POP PUSH2 0x8E PUSH2 0x183 JUMP JUMPDEST PUSH1 0x40 DUP1 MLOAD PUSH1 0x1 PUSH1 0xA0 PUSH1 0x2 EXP SUB SWAP1 SWAP3 AND DUP3 MSTORE MLOAD SWAP1 DUP2 SWAP1 SUB PUSH1 0x20 ADD SWAP1 RETURN JUMPDEST CALLVALUE DUP1 ISZERO PUSH2 0xB6 JUMPI PUSH1 0x0 DUP1 REVERT JUMPDEST POP PUSH2 0x8E PUSH2 0x241 JUMP JUMPDEST CALLVALUE DUP1 ISZERO PUSH2 0xCB JUMPI PUSH1 0x0 DUP1 REVERT JUMPDEST POP PUSH2 0xE6 PUSH1 0x1 PUSH1 0xA0 PUSH1 0x2 EXP SUB PUSH1 0x4 CALLDATALOAD DUP2 AND SWAP1 PUSH1 0x24 CALLDATALOAD AND PUSH2 0x2B5 JUMP JUMPDEST STOP JUMPDEST CALLVALUE DUP1 ISZERO PUSH2 0xF4 JUMPI PUSH1 0x0 DUP1 REVERT JUMPDEST POP PUSH2 0x100 PUSH1 0x4 CALLDATALOAD PUSH2 0x6F3 JUMP JUMPDEST PUSH1 0x40 DUP1 MLOAD SWAP2 ISZERO ISZERO DUP3 MSTORE MLOAD SWAP1 DUP2 SWAP1 SUB PUSH1 0x20 ADD SWAP1 RETURN JUMPDEST CALLVALUE DUP1 ISZERO PUSH2 0x120 JUMPI PUSH1 0x0 DUP1 REVERT JUMPDEST POP PUSH2 0x100 PUSH2 0x720 JUMP JUMPDEST CALLVALUE DUP1 ISZERO PUSH2 0x135 JUMPI PUSH1 0x0 DUP1 REVERT JUMPDEST POP PUSH2 0x100 PUSH1 0x4 CALLDATALOAD PUSH1 0x1 PUSH1 0xA0 PUSH1 0x2 EXP SUB PUSH1 0x24 CALLDATALOAD AND PUSH2 0x7D8 JUMP JUMPDEST CALLVALUE DUP1 ISZERO PUSH2 0x159 JUMPI PUSH1 0x0 DUP1 REVERT JUMPDEST POP PUSH2 0xE6 PUSH1 0x1 PUSH1 0xA0 PUSH1 0x2 EXP SUB PUSH1 0x4 CALLDATALOAD AND PUSH2 0xA32 JUMP JUMPDEST CALLVALUE DUP1 ISZERO PUSH2 0x17A JUMPI PUSH1 0x0 DUP1 REVERT JUMPDEST POP PUSH2 0x8E PUSH2 0xB49 JUMP JUMPDEST PUSH1 0x0 PUSH1 0x4 PUSH1 0x0 PUSH1 0x40 MLOAD PUSH1 0x20 ADD DUP1 DUP1 PUSH32 0x636F6E73656E7375730000000000000000000000000000000000000000000000 DUP2 MSTORE POP PUSH1 0x9 ADD SWAP1 POP PUSH1 0x40 MLOAD PUSH1 0x20 DUP2 DUP4 SUB SUB DUP2 MSTORE SWAP1 PUSH1 0x40 MSTORE PUSH1 0x40 MLOAD DUP1 DUP3 DUP1 MLOAD SWAP1 PUSH1 0x20 ADD SWAP1 DUP1 DUP4 DUP4 JUMPDEST PUSH1 0x20 DUP4 LT PUSH2 0x1F8 JUMPI DUP1 MLOAD DUP3 MSTORE PUSH1 0x1F NOT SWAP1 SWAP3 ADD SWAP2 PUSH1 0x20 SWAP2 DUP3 ADD SWAP2 ADD PUSH2 0x1D9 JUMP JUMPDEST MLOAD DUP2 MLOAD PUSH1 0x20 SWAP4 DUP5 SUB PUSH2 0x100 EXP PUSH1 0x0 NOT ADD DUP1 NOT SWAP1 SWAP3 AND SWAP2 AND OR SWAP1 MSTORE PUSH1 0x40 DUP1 MLOAD SWAP3 SWAP1 SWAP5 ADD DUP3 SWAP1 SUB SWAP1 SWAP2 KECCAK256 DUP7 MSTORE DUP6 ADD SWAP6 SWAP1 SWAP6 MSTORE SWAP3 SWAP1 SWAP3 ADD PUSH1 0x0 KECCAK256 SLOAD PUSH1 0x1 PUSH1 0xA0 PUSH1 0x2 EXP SUB AND SWAP5 SWAP4 POP POP POP POP JUMP JUMPDEST PUSH1 0x0 PUSH1 0x4 PUSH1 0x0 PUSH1 0x40 MLOAD PUSH1 0x20 ADD DUP1 DUP1 PUSH32 0x766F74696E670000000000000000000000000000000000000000000000000000 DUP2 MSTORE POP PUSH1 0x6 ADD SWAP1 POP PUSH1 0x40 MLOAD PUSH1 0x20 DUP2 DUP4 SUB SUB DUP2 MSTORE SWAP1 PUSH1 0x40 MSTORE PUSH1 0x40 MLOAD DUP1 DUP3 DUP1 MLOAD SWAP1 PUSH1 0x20 ADD SWAP1 DUP1 DUP4 DUP4 PUSH1 0x20 DUP4 LT PUSH2 0x1F8 JUMPI DUP1 MLOAD DUP3 MSTORE PUSH1 0x1F NOT SWAP1 SWAP3 ADD SWAP2 PUSH1 0x20 SWAP2 DUP3 ADD SWAP2 ADD PUSH2 0x1D9 JUMP JUMPDEST PUSH1 0x4 PUSH1 0x0 PUSH1 0x40 MLOAD PUSH1 0x20 ADD DUP1 DUP1 PUSH32 0x6F776E6572000000000000000000000000000000000000000000000000000000 DUP2 MSTORE POP PUSH1 0x5 ADD SWAP1 POP PUSH1 0x40 MLOAD PUSH1 0x20 DUP2 DUP4 SUB SUB DUP2 MSTORE SWAP1 PUSH1 0x40 MSTORE PUSH1 0x40 MLOAD DUP1 DUP3 DUP1 MLOAD SWAP1 PUSH1 0x20 ADD SWAP1 DUP1 DUP4 DUP4 JUMPDEST PUSH1 0x20 DUP4 LT PUSH2 0x328 JUMPI DUP1 MLOAD DUP3 MSTORE PUSH1 0x1F NOT SWAP1 SWAP3 ADD SWAP2 PUSH1 0x20 SWAP2 DUP3 ADD SWAP2 ADD PUSH2 0x309 JUMP JUMPDEST MLOAD DUP2 MLOAD PUSH1 0x20 SWAP4 DUP5 SUB PUSH2 0x100 EXP PUSH1 0x0 NOT ADD DUP1 NOT SWAP1 SWAP3 AND SWAP2 AND OR SWAP1 MSTORE PUSH1 0x40 DUP1 MLOAD SWAP3 SWAP1 SWAP5 ADD DUP3 SWAP1 SUB SWAP1 SWAP2 KECCAK256 DUP7 MSTORE DUP6 ADD SWAP6 SWAP1 SWAP6 MSTORE SWAP3 SWAP1 SWAP3 ADD PUSH1 0x0 KECCAK256 SLOAD PUSH1 0x1 PUSH1 0xA0 PUSH1 0x2 EXP SUB AND CALLER EQ SWAP3 POP PUSH2 0x379 SWAP2 POP POP JUMPI PUSH1 0x0 DUP1 REVERT JUMPDEST PUSH1 0x6 PUSH1 0x0 PUSH1 0x40 MLOAD PUSH1 0x20 ADD DUP1 DUP1 PUSH32 0x70726F787953746F72616765416464726573736573496E697469616C697A6564 DUP2 MSTORE POP PUSH1 0x20 ADD SWAP1 POP PUSH1 0x40 MLOAD PUSH1 0x20 DUP2 DUP4 SUB SUB DUP2 MSTORE SWAP1 PUSH1 0x40 MSTORE PUSH1 0x40 MLOAD DUP1 DUP3 DUP1 MLOAD SWAP1 PUSH1 0x20 ADD SWAP1 DUP1 DUP4 DUP4 JUMPDEST PUSH1 0x20 DUP4 LT PUSH2 0x3EC JUMPI DUP1 MLOAD DUP3 MSTORE PUSH1 0x1F NOT SWAP1 SWAP3 ADD SWAP2 PUSH1 0x20 SWAP2 DUP3 ADD SWAP2 ADD PUSH2 0x3CD JUMP JUMPDEST MLOAD DUP2 MLOAD PUSH1 0x20 SWAP4 DUP5 SUB PUSH2 0x100 EXP PUSH1 0x0 NOT ADD DUP1 NOT SWAP1 SWAP3 AND SWAP2 AND OR SWAP1 MSTORE PUSH1 0x40 DUP1 MLOAD SWAP3 SWAP1 SWAP5 ADD DUP3 SWAP1 SUB SWAP1 SWAP2 KECCAK256 DUP7 MSTORE DUP6 ADD SWAP6 SWAP1 SWAP6 MSTORE SWAP3 SWAP1 SWAP3 ADD PUSH1 0x0 KECCAK256 SLOAD PUSH1 0xFF AND ISZERO SWAP3 POP PUSH2 0x436 SWAP2 POP POP JUMPI PUSH1 0x0 DUP1 REVERT JUMPDEST DUP2 PUSH1 0x4 PUSH1 0x0 PUSH1 0x40 MLOAD PUSH1 0x20 ADD DUP1 DUP1 PUSH32 0x626C6F636B526577617264000000000000000000000000000000000000000000 DUP2 MSTORE POP PUSH1 0xB ADD SWAP1 POP PUSH1 0x40 MLOAD PUSH1 0x20 DUP2 DUP4 SUB SUB DUP2 MSTORE SWAP1 PUSH1 0x40 MSTORE PUSH1 0x40 MLOAD DUP1 DUP3 DUP1 MLOAD SWAP1 PUSH1 0x20 ADD SWAP1 DUP1 DUP4 DUP4 JUMPDEST PUSH1 0x20 DUP4 LT PUSH2 0x4AA JUMPI DUP1 MLOAD DUP3 MSTORE PUSH1 0x1F NOT SWAP1 SWAP3 ADD SWAP2 PUSH1 0x20 SWAP2 DUP3 ADD SWAP2 ADD PUSH2 0x48B JUMP JUMPDEST MLOAD DUP2 MLOAD PUSH1 0x20 SWAP4 DUP5 SUB PUSH2 0x100 EXP PUSH1 0x0 NOT ADD DUP1 NOT SWAP1 SWAP3 AND SWAP2 AND OR SWAP1 MSTORE PUSH1 0x40 DUP1 MLOAD SWAP3 SWAP1 SWAP5 ADD DUP3 SWAP1 SUB SWAP1 SWAP2 KECCAK256 DUP7 MSTORE DUP6 DUP2 ADD SWAP7 SWAP1 SWAP7 MSTORE POP SWAP3 DUP4 ADD PUSH1 0x0 SWAP1 DUP2 KECCAK256 DUP1 SLOAD PUSH20 0xFFFFFFFFFFFFFFFFFFFFFFFFFFFFFFFFFFFFFFFF NOT AND PUSH1 0x1 PUSH1 0xA0 PUSH1 0x2 EXP SUB SWAP8 SWAP1 SWAP8 AND SWAP7 SWAP1 SWAP7 OR SWAP1 SWAP6 SSTORE POP POP DUP1 MLOAD PUSH32 0x766F74696E670000000000000000000000000000000000000000000000000000 DUP2 DUP5 ADD MSTORE DUP2 MLOAD PUSH1 0x6 DUP2 DUP4 SUB ADD DUP2 MSTORE PUSH1 0x26 SWAP1 SWAP2 ADD SWAP2 DUP3 SWAP1 MSTORE DUP1 MLOAD DUP6 SWAP5 PUSH1 0x4 SWAP5 SWAP1 SWAP4 SWAP2 DUP3 SWAP2 DUP5 ADD SWAP1 DUP1 DUP4 DUP4 JUMPDEST PUSH1 0x20 DUP4 LT PUSH2 0x57E JUMPI DUP1 MLOAD DUP3 MSTORE PUSH1 0x1F NOT SWAP1 SWAP3 ADD SWAP2 PUSH1 0x20 SWAP2 DUP3 ADD SWAP2 ADD PUSH2 0x55F JUMP JUMPDEST MLOAD DUP2 MLOAD PUSH1 0x20 SWAP4 DUP5 SUB PUSH2 0x100 EXP PUSH1 0x0 NOT ADD DUP1 NOT SWAP1 SWAP3 AND SWAP2 AND OR SWAP1 MSTORE PUSH1 0x40 DUP1 MLOAD SWAP3 SWAP1 SWAP5 ADD DUP3 SWAP1 SUB SWAP1 SWAP2 KECCAK256 DUP7 MSTORE DUP6 DUP2 ADD SWAP7 SWAP1 SWAP7 MSTORE POP SWAP3 DUP4 ADD PUSH1 0x0 SWAP1 DUP2 KECCAK256 DUP1 SLOAD PUSH20 0xFFFFFFFFFFFFFFFFFFFFFFFFFFFFFFFFFFFFFFFF NOT AND PUSH1 0x1 PUSH1 0xA0 PUSH1 0x2 EXP SUB SWAP8 SWAP1 SWAP8 AND SWAP7 SWAP1 SWAP7 OR SWAP1 SWAP6 SSTORE POP POP DUP1 MLOAD PUSH32 0x70726F787953746F72616765416464726573736573496E697469616C697A6564 DUP2 DUP5 ADD MSTORE DUP2 MLOAD DUP1 DUP3 SUB DUP5 ADD DUP2 MSTORE SWAP1 DUP3 ADD SWAP2 DUP3 SWAP1 MSTORE DUP1 MLOAD PUSH1 0x1 SWAP5 PUSH1 0x6 SWAP5 SWAP1 SWAP4 SWAP2 DUP3 SWAP2 DUP5 ADD SWAP1 DUP1 DUP4 DUP4 JUMPDEST PUSH1 0x20 DUP4 LT PUSH2 0x650 JUMPI DUP1 MLOAD DUP3 MSTORE PUSH1 0x1F NOT SWAP1 SWAP3 ADD SWAP2 PUSH1 0x20 SWAP2 DUP3 ADD SWAP2 ADD PUSH2 0x631 JUMP JUMPDEST MLOAD DUP2 MLOAD PUSH1 0x20 SWAP4 DUP5 SUB PUSH2 0x100 EXP PUSH1 0x0 NOT ADD DUP1 NOT SWAP1 SWAP3 AND SWAP2 AND OR SWAP1 MSTORE PUSH1 0x40 DUP1 MLOAD SWAP3 SWAP1 SWAP5 ADD DUP3 SWAP1 SUB SWAP1 SWAP2 KECCAK256 DUP7 MSTORE DUP6 ADD SWAP6 SWAP1 SWAP6 MSTORE SWAP3 SWAP1 SWAP3 ADD PUSH1 0x0 KECCAK256 DUP1 SLOAD PUSH1 0xFF NOT AND SWAP5 ISZERO ISZERO SWAP5 SWAP1 SWAP5 OR SWAP1 SWAP4 SSTORE POP PUSH32 0xFFCBDC3FAA9D3A4DBEE5296E7B8671C3962ABE5CC9DEFB4144DF40382AD4713C SWAP2 POP PUSH2 0x6C5 SWAP1 POP PUSH2 0x183 JUMP JUMPDEST PUSH1 0x40 DUP1 MLOAD PUSH1 0x1 PUSH1 0xA0 PUSH1 0x2 EXP SUB SWAP3 DUP4 AND DUP2 MSTORE DUP3 DUP7 AND PUSH1 0x20 DUP3 ADD MSTORE SWAP2 DUP5 AND DUP3 DUP3 ADD MSTORE MLOAD SWAP1 DUP2 SWAP1 SUB PUSH1 0x60 ADD SWAP1 LOG1 POP POP JUMP JUMPDEST PUSH1 0x0 PUSH1 0x1 DUP3 EQ DUP1 PUSH2 0x704 JUMPI POP PUSH1 0x2 DUP3 EQ JUMPDEST DUP1 PUSH2 0x70F JUMPI POP PUSH1 0x3 DUP3 EQ JUMPDEST DUP1 PUSH2 0x71A JUMPI POP PUSH1 0x4 DUP3 EQ JUMPDEST SWAP3 SWAP2 POP POP JUMP JUMPDEST PUSH1 0x0 PUSH1 0x6 PUSH1 0x0 PUSH1 0x40 MLOAD PUSH1 0x20 ADD DUP1 DUP1 PUSH32 0x6973496E697469616C697A656400000000000000000000000000000000000000 DUP2 MSTORE POP PUSH1 0xD ADD SWAP1 POP PUSH1 0x40 MLOAD PUSH1 0x20 DUP2 DUP4 SUB SUB DUP2 MSTORE SWAP1 PUSH1 0x40 MSTORE PUSH1 0x40 MLOAD DUP1 DUP3 DUP1 MLOAD SWAP1 PUSH1 0x20 ADD SWAP1 DUP1 DUP4 DUP4 JUMPDEST PUSH1 0x20 DUP4 LT PUSH2 0x795 JUMPI DUP1 MLOAD DUP3 MSTORE PUSH1 0x1F NOT SWAP1 SWAP3 ADD SWAP2 PUSH1 0x20 SWAP2 DUP3 ADD SWAP2 ADD PUSH2 0x776 JUMP JUMPDEST MLOAD DUP2 MLOAD PUSH1 0x20 SWAP4 DUP5 SUB PUSH2 0x100 EXP PUSH1 0x0 NOT ADD DUP1 NOT SWAP1 SWAP3 AND SWAP2 AND OR SWAP1 MSTORE PUSH1 0x40 DUP1 MLOAD SWAP3 SWAP1 SWAP5 ADD DUP3 SWAP1 SUB SWAP1 SWAP2 KECCAK256 DUP7 MSTORE DUP6 ADD SWAP6 SWAP1 SWAP6 MSTORE SWAP3 SWAP1 SWAP3 ADD PUSH1 0x0 KECCAK256 SLOAD PUSH1 0xFF AND SWAP5 SWAP4 POP POP POP POP JUMP JUMPDEST PUSH1 0x0 DUP1 PUSH2 0x7E3 PUSH2 0x241 JUMP JUMPDEST PUSH1 0x1 PUSH1 0xA0 PUSH1 0x2 EXP SUB AND CALLER EQ PUSH2 0x7F7 JUMPI PUSH1 0x0 DUP1 REVERT JUMPDEST PUSH2 0x7FF PUSH2 0x720 JUMP JUMPDEST ISZERO ISZERO PUSH2 0x80E JUMPI PUSH1 0x0 SWAP2 POP PUSH2 0xA2B JUMP JUMPDEST PUSH1 0x1 PUSH1 0xA0 PUSH1 0x2 EXP SUB DUP4 AND ISZERO ISZERO PUSH2 0x827 JUMPI PUSH1 0x0 SWAP2 POP PUSH2 0xA2B JUMP JUMPDEST POP PUSH1 0x0 PUSH1 0x1 DUP5 EQ ISZERO PUSH2 0x8C8 JUMPI PUSH2 0x83B PUSH2 0x183 JUMP JUMPDEST PUSH1 0x1 PUSH1 0xA0 PUSH1 0x2 EXP SUB AND PUSH4 0x3659CFE6 DUP5 PUSH1 0x40 MLOAD DUP3 PUSH4 0xFFFFFFFF AND PUSH1 0xE0 PUSH1 0x2 EXP MUL DUP2 MSTORE PUSH1 0x4 ADD DUP1 DUP3 PUSH1 0x1 PUSH1 0xA0 PUSH1 0x2 EXP SUB AND PUSH1 0x1 PUSH1 0xA0 PUSH1 0x2 EXP SUB AND DUP2 MSTORE PUSH1 0x20 ADD SWAP2 POP POP PUSH1 0x20 PUSH1 0x40 MLOAD DUP1 DUP4 SUB DUP2 PUSH1 0x0 DUP8 DUP1 EXTCODESIZE ISZERO DUP1 ISZERO PUSH2 0x895 JUMPI PUSH1 0x0 DUP1 REVERT JUMPDEST POP GAS CALL ISZERO DUP1 ISZERO PUSH2 0x8A9 JUMPI RETURNDATASIZE PUSH1 0x0 DUP1 RETURNDATACOPY RETURNDATASIZE PUSH1 0x0 REVERT JUMPDEST POP POP POP POP PUSH1 0x40 MLOAD RETURNDATASIZE PUSH1 0x20 DUP2 LT ISZERO PUSH2 0x8BF JUMPI PUSH1 0x0 DUP1 REVERT JUMPDEST POP MLOAD SWAP1 POP PUSH2 0x9DD JUMP JUMPDEST PUSH1 0x2 DUP5 EQ ISZERO PUSH2 0x8D9 JUMPI PUSH2 0x83B PUSH2 0xB49 JUMP JUMPDEST PUSH1 0x3 DUP5 EQ ISZERO PUSH2 0x943 JUMPI PUSH1 0x40 DUP1 MLOAD PUSH32 0x3659CFE600000000000000000000000000000000000000000000000000000000 DUP2 MSTORE PUSH1 0x1 PUSH1 0xA0 PUSH1 0x2 EXP SUB DUP6 AND PUSH1 0x4 DUP3 ADD MSTORE SWAP1 MLOAD ADDRESS SWAP2 PUSH4 0x3659CFE6 SWAP2 PUSH1 0x24 DUP1 DUP4 ADD SWAP3 PUSH1 0x20 SWAP3 SWAP2 SWAP1 DUP3 SWAP1 SUB ADD DUP2 PUSH1 0x0 DUP8 DUP1 EXTCODESIZE ISZERO DUP1 ISZERO PUSH2 0x895 JUMPI PUSH1 0x0 DUP1 REVERT JUMPDEST PUSH1 0x4 DUP5 EQ ISZERO PUSH2 0x9DD JUMPI PUSH2 0x954 PUSH2 0x241 JUMP JUMPDEST PUSH1 0x1 PUSH1 0xA0 PUSH1 0x2 EXP SUB AND PUSH4 0x3659CFE6 DUP5 PUSH1 0x40 MLOAD DUP3 PUSH4 0xFFFFFFFF AND PUSH1 0xE0 PUSH1 0x2 EXP MUL DUP2 MSTORE PUSH1 0x4 ADD DUP1 DUP3 PUSH1 0x1 PUSH1 0xA0 PUSH1 0x2 EXP SUB AND PUSH1 0x1 PUSH1 0xA0 PUSH1 0x2 EXP SUB AND DUP2 MSTORE PUSH1 0x20 ADD SWAP2 POP POP PUSH1 0x20 PUSH1 0x40 MLOAD DUP1 DUP4 SUB DUP2 PUSH1 0x0 DUP8 DUP1 EXTCODESIZE ISZERO DUP1 ISZERO PUSH2 0x9AE JUMPI PUSH1 0x0 DUP1 REVERT JUMPDEST POP GAS CALL ISZERO DUP1 ISZERO PUSH2 0x9C2 JUMPI RETURNDATASIZE PUSH1 0x0 DUP1 RETURNDATACOPY RETURNDATASIZE PUSH1 0x0 REVERT JUMPDEST POP POP POP POP PUSH1 0x40 MLOAD RETURNDATASIZE PUSH1 0x20 DUP2 LT ISZERO PUSH2 0x9D8 JUMPI PUSH1 0x0 DUP1 REVERT JUMPDEST POP MLOAD SWAP1 POP JUMPDEST DUP1 ISZERO PUSH2 0xA27 JUMPI PUSH1 0x40 DUP1 MLOAD DUP6 DUP2 MSTORE PUSH1 0x1 PUSH1 0xA0 PUSH1 0x2 EXP SUB DUP6 AND PUSH1 0x20 DUP3 ADD MSTORE DUP2 MLOAD PUSH32 0xCB8F0F32182A0F756B1E065DAB832C24D2C48FA533912C33552252A7F25BF4AE SWAP3 SWAP2 DUP2 SWAP1 SUB SWAP1 SWAP2 ADD SWAP1 LOG1 JUMPDEST DUP1 SWAP2 POP JUMPDEST POP SWAP3 SWAP2 POP POP JUMP JUMPDEST PUSH1 0x4 PUSH1 0x0 PUSH1 0x40 MLOAD PUSH1 0x20 ADD DUP1 DUP1 PUSH32 0x6F776E6572000000000000000000000000000000000000000000000000000000 DUP2 MSTORE POP PUSH1 0x5 ADD SWAP1 POP PUSH1 0x40 MLOAD PUSH1 0x20 DUP2 DUP4 SUB SUB DUP2 MSTORE SWAP1 PUSH1 0x40 MSTORE PUSH1 0x40 MLOAD DUP1 DUP3 DUP1 MLOAD SWAP1 PUSH1 0x20 ADD SWAP1 DUP1 DUP4 DUP4 JUMPDEST PUSH1 0x20 DUP4 LT PUSH2 0xAA5 JUMPI DUP1 MLOAD DUP3 MSTORE PUSH1 0x1F NOT SWAP1 SWAP3 ADD SWAP2 PUSH1 0x20 SWAP2 DUP3 ADD SWAP2 ADD PUSH2 0xA86 JUMP JUMPDEST MLOAD DUP2 MLOAD PUSH1 0x20 SWAP4 DUP5 SUB PUSH2 0x100 EXP PUSH1 0x0 NOT ADD DUP1 NOT SWAP1 SWAP3 AND SWAP2 AND OR SWAP1 MSTORE PUSH1 0x40 DUP1 MLOAD SWAP3 SWAP1 SWAP5 ADD DUP3 SWAP1 SUB SWAP1 SWAP2 KECCAK256 DUP7 MSTORE DUP6 ADD SWAP6 SWAP1 SWAP6 MSTORE SWAP3 SWAP1 SWAP3 ADD PUSH1 0x0 KECCAK256 SLOAD PUSH1 0x1 PUSH1 0xA0 PUSH1 0x2 EXP SUB AND CALLER EQ SWAP3 POP PUSH2 0xAF6 SWAP2 POP POP JUMPI PUSH1 0x0 DUP1 REVERT JUMPDEST PUSH2 0xAFE PUSH2 0x720 JUMP JUMPDEST ISZERO PUSH2 0xB08 JUMPI PUSH1 0x0 DUP1 REVERT JUMPDEST PUSH1 0x1 PUSH1 0xA0 PUSH1 0x2 EXP SUB DUP2 AND ISZERO ISZERO PUSH2 0xB1D JUMPI PUSH1 0x0 DUP1 REVERT JUMPDEST PUSH1 0x1 PUSH1 0xA0 PUSH1 0x2 EXP SUB DUP2 AND ADDRESS EQ ISZERO PUSH2 0xB33 JUMPI PUSH1 0x0 DUP1 REVERT JUMPDEST PUSH2 0xB3C DUP2 PUSH2 0xBBD JUMP JUMPDEST PUSH2 0xB46 PUSH1 0x1 PUSH2 0xC9A JUMP JUMPDEST POP JUMP JUMPDEST PUSH1 0x0 PUSH1 0x4 PUSH1 0x0 PUSH1 0x40 MLOAD PUSH1 0x20 ADD DUP1 DUP1 PUSH32 0x626C6F636B526577617264000000000000000000000000000000000000000000 DUP2 MSTORE POP PUSH1 0xB ADD SWAP1 POP PUSH1 0x40 MLOAD PUSH1 0x20 DUP2 DUP4 SUB SUB DUP2 MSTORE SWAP1 PUSH1 0x40 MSTORE PUSH1 0x40 MLOAD DUP1 DUP3 DUP1 MLOAD SWAP1 PUSH1 0x20 ADD SWAP1 DUP1 DUP4 DUP4 PUSH1 0x20 DUP4 LT PUSH2 0x1F8 JUMPI DUP1 MLOAD DUP3 MSTORE PUSH1 0x1F NOT SWAP1 SWAP3 ADD SWAP2 PUSH1 0x20 SWAP2 DUP3 ADD SWAP2 ADD PUSH2 0x1D9 JUMP JUMPDEST DUP1 PUSH1 0x4 PUSH1 0x0 PUSH1 0x40 MLOAD PUSH1 0x20 ADD DUP1 DUP1 PUSH32 0x636F6E73656E7375730000000000000000000000000000000000000000000000 DUP2 MSTORE POP PUSH1 0x9 ADD SWAP1 POP PUSH1 0x40 MLOAD PUSH1 0x20 DUP2 DUP4 SUB SUB DUP2 MSTORE SWAP1 PUSH1 0x40 MSTORE PUSH1 0x40 MLOAD DUP1 DUP3 DUP1 MLOAD SWAP1 PUSH1 0x20 ADD SWAP1 DUP1 DUP4 DUP4 JUMPDEST PUSH1 0x20 DUP4 LT PUSH2 0xC31 JUMPI DUP1 MLOAD DUP3 MSTORE PUSH1 0x1F NOT SWAP1 SWAP3 ADD SWAP2 PUSH1 0x20 SWAP2 DUP3 ADD SWAP2 ADD PUSH2 0xC12 JUMP JUMPDEST MLOAD DUP2 MLOAD PUSH1 0x20 SWAP4 DUP5 SUB PUSH2 0x100 EXP PUSH1 0x0 NOT ADD DUP1 NOT SWAP1 SWAP3 AND SWAP2 AND OR SWAP1 MSTORE PUSH1 0x40 DUP1 MLOAD SWAP3 SWAP1 SWAP5 ADD DUP3 SWAP1 SUB SWAP1 SWAP2 KECCAK256 DUP7 MSTORE DUP6 ADD SWAP6 SWAP1 SWAP6 MSTORE SWAP3 SWAP1 SWAP3 ADD PUSH1 0x0 KECCAK256 DUP1 SLOAD PUSH20 0xFFFFFFFFFFFFFFFFFFFFFFFFFFFFFFFFFFFFFFFF NOT AND PUSH1 0x1 PUSH1 0xA0 PUSH1 0x2 EXP SUB SWAP6 SWAP1 SWAP6 AND SWAP5 SWAP1 SWAP5 OR SWAP1 SWAP4 SSTORE POP POP POP POP JUMP JUMPDEST DUP1 PUSH1 0x6 PUSH1 0x0 PUSH1 0x40 MLOAD PUSH1 0x20 ADD DUP1 DUP1 PUSH32 0x6973496E697469616C697A656400000000000000000000000000000000000000 DUP2 MSTORE POP PUSH1 0xD ADD SWAP1 POP PUSH1 0x40 MLOAD PUSH1 0x20 DUP2 DUP4 SUB SUB DUP2 MSTORE SWAP1 PUSH1 0x40 MSTORE PUSH1 0x40 MLOAD DUP1 DUP3 DUP1 MLOAD SWAP1 PUSH1 0x20 ADD SWAP1 DUP1 DUP4 DUP4 JUMPDEST PUSH1 0x20 DUP4 LT PUSH2 0xD0E JUMPI DUP1 MLOAD DUP3 MSTORE PUSH1 0x1F NOT SWAP1 SWAP3 ADD SWAP2 PUSH1 0x20 SWAP2 DUP3 ADD SWAP2 ADD PUSH2 0xCEF JUMP JUMPDEST MLOAD DUP2 MLOAD PUSH1 0x20 SWAP4 DUP5 SUB PUSH2 0x100 EXP PUSH1 0x0 NOT ADD DUP1 NOT SWAP1 SWAP3 AND SWAP2 AND OR SWAP1 MSTORE PUSH1 0x40 DUP1 MLOAD SWAP3 SWAP1 SWAP5 ADD DUP3 SWAP1 SUB SWAP1 SWAP2 KECCAK256 DUP7 MSTORE DUP6 ADD SWAP6 SWAP1 SWAP6 MSTORE SWAP3 SWAP1 SWAP3 ADD PUSH1 0x0 KECCAK256 DUP1 SLOAD PUSH1 0xFF NOT AND SWAP5 ISZERO ISZERO SWAP5 SWAP1 SWAP5 OR SWAP1 SWAP4 SSTORE POP POP POP POP JUMP STOP LOG1 PUSH6 0x627A7A723058 KECCAK256 0xc2 0xc2 0xc1 0x24 CALLER 0xda PUSH15 0xE0A930D11C09D871BEAD2991A3B697 ORIGIN SWAP6 0xc9 0xbd DUP6 0x5e 0xd0 0x23 MUL 0xb4 STOP 0x29 "},"methodIdentifiers":{"getBlockReward()":"f89d4086","getConsensus()":"179e740b","getVoting()":"1986d376","initialize(address)":"c4d66de8","initializeAddresses(address,address)":"30b7bdad","isInitialized()":"392e53cd","isValidContractType(uint256)":"33875fdd","setContractAddress(uint256,address)":"bb0165b1"}}}}}