{
  "_format": "hh-sol-artifact-1",
  "contractName": "BlockRewardMock",
  "sourceName": "contracts/test/BlockRewardMock.sol",
  "abi": [
    {
      "constant": true,
      "inputs": [],
      "name": "DECIMALS",
      "outputs": [
        {
          "name": "",
          "type": "uint256"
        }
      ],
      "payable": false,
      "stateMutability": "view",
      "type": "function"
    },
    {
      "constant": true,
      "inputs": [],
      "name": "isInitialized",
      "outputs": [
        {
          "name": "",
          "type": "bool"
        }
      ],
      "payable": false,
      "stateMutability": "view",
      "type": "function"
    },
    {
      "constant": true,
      "inputs": [],
      "name": "getRewardedOnCycle",
      "outputs": [
        {
          "name": "",
          "type": "uint256"
        }
      ],
      "payable": false,
      "stateMutability": "view",
      "type": "function"
    },
    {
      "constant": false,
      "inputs": [],
      "name": "cycleMock",
      "outputs": [],
      "payable": false,
      "stateMutability": "nonpayable",
      "type": "function"
    },
    {
      "constant": true,
      "inputs": [],
      "name": "shouldEmitRewardedOnCycle",
      "outputs": [
        {
          "name": "",
          "type": "bool"
        }
      ],
      "payable": false,
      "stateMutability": "view",
      "type": "function"
    },
    {
      "constant": true,
      "inputs": [],
      "name": "getBlockRewardAmount",
      "outputs": [
        {
          "name": "",
          "type": "uint256"
        }
      ],
      "payable": false,
      "stateMutability": "view",
      "type": "function"
    },
    {
      "constant": true,
      "inputs": [
        {
          "name": "_validator",
          "type": "address"
        }
      ],
      "name": "getBlockRewardAmountPerValidator",
      "outputs": [
        {
          "name": "",
          "type": "uint256"
        }
      ],
      "payable": false,
      "stateMutability": "view",
      "type": "function"
    },
    {
      "constant": true,
      "inputs": [],
      "name": "INFLATION",
      "outputs": [
        {
          "name": "",
          "type": "uint256"
        }
      ],
      "payable": false,
      "stateMutability": "view",
      "type": "function"
    },
    {
      "constant": true,
      "inputs": [],
      "name": "getBlocksPerYear",
      "outputs": [
        {
          "name": "",
          "type": "uint256"
        }
      ],
      "payable": false,
      "stateMutability": "pure",
      "type": "function"
    },
    {
      "constant": false,
      "inputs": [
        {
          "name": "_newAddress",
          "type": "address"
        }
      ],
      "name": "setSystemAddressMock",
      "outputs": [],
      "payable": false,
      "stateMutability": "nonpayable",
      "type": "function"
    },
    {
      "constant": true,
      "inputs": [],
      "name": "getSystemAddress",
      "outputs": [
        {
          "name": "",
          "type": "address"
        }
      ],
      "payable": false,
      "stateMutability": "view",
      "type": "function"
    },
    {
      "constant": false,
      "inputs": [],
      "name": "onCycleEnd",
      "outputs": [],
      "payable": false,
      "stateMutability": "nonpayable",
      "type": "function"
    },
    {
      "constant": true,
      "inputs": [],
      "name": "getTotalSupply",
      "outputs": [
        {
          "name": "",
          "type": "uint256"
        }
      ],
      "payable": false,
      "stateMutability": "view",
      "type": "function"
    },
    {
      "constant": false,
      "inputs": [
        {
          "name": "_status",
          "type": "bool"
        }
      ],
      "name": "setShouldEmitRewardedOnCycleMock",
      "outputs": [],
      "payable": false,
      "stateMutability": "nonpayable",
      "type": "function"
    },
    {
      "constant": true,
      "inputs": [],
      "name": "BLOCKS_PER_YEAR",
      "outputs": [
        {
          "name": "",
          "type": "uint256"
        }
      ],
      "payable": false,
      "stateMutability": "view",
      "type": "function"
    },
    {
      "constant": false,
      "inputs": [],
      "name": "emitRewardedOnCycle",
      "outputs": [],
      "payable": false,
      "stateMutability": "nonpayable",
      "type": "function"
    },
    {
      "constant": true,
      "inputs": [],
      "name": "getInflation",
      "outputs": [
        {
          "name": "",
          "type": "uint256"
        }
      ],
      "payable": false,
      "stateMutability": "pure",
      "type": "function"
    },
    {
      "constant": true,
      "inputs": [],
      "name": "getProxyStorage",
      "outputs": [
        {
          "name": "",
          "type": "address"
        }
      ],
      "payable": false,
      "stateMutability": "view",
      "type": "function"
    },
    {
      "constant": false,
      "inputs": [
        {
          "name": "benefactors",
          "type": "address[]"
        },
        {
          "name": "kind",
          "type": "uint16[]"
        }
      ],
      "name": "reward",
      "outputs": [
        {
          "name": "",
          "type": "address[]"
        },
        {
          "name": "",
          "type": "uint256[]"
        }
      ],
      "payable": false,
      "stateMutability": "nonpayable",
      "type": "function"
    },
    {
      "constant": false,
      "inputs": [
        {
          "name": "_supply",
          "type": "uint256"
        }
      ],
      "name": "initialize",
      "outputs": [],
      "payable": false,
      "stateMutability": "nonpayable",
      "type": "function"
    },
    {
      "anonymous": false,
      "inputs": [
        {
          "indexed": false,
          "name": "receivers",
          "type": "address[]"
        },
        {
          "indexed": false,
          "name": "rewards",
          "type": "uint256[]"
        }
      ],
      "name": "Rewarded",
      "type": "event"
    },
    {
      "anonymous": false,
      "inputs": [
        {
          "indexed": false,
          "name": "amount",
          "type": "uint256"
        }
      ],
      "name": "RewardedOnCycle",
      "type": "event"
    }
  ],
  "bytecode": "0x608060405234801561001057600080fd5b50611bf1806100206000396000f3006080604052600436106100f85763ffffffff60e060020a6000350416632e0f262581146100fd578063392e53cd14610124578063537cc17c1461014d578063555cdfaa146101625780635c3be315146101795780635dba8c4a1461018e57806363037afc146101a35780636d20d6ae146101c4578063741de148146101d9578063770c6320146101ee5780638dd3848f1461020f578063b1f0c8e114610240578063c4e41b2214610255578063c71734d21461026a578063d37db1d214610284578063d56f4f2814610299578063d5a95771146102ae578063ec15a5e6146102c3578063f91c2898146102d8578063fe4b84df1461039d575b600080fd5b34801561010957600080fd5b506101126103b5565b60408051918252519081900360200190f35b34801561013057600080fd5b506101396103c1565b604080519115158252519081900360200190f35b34801561015957600080fd5b50610112610479565b34801561016e57600080fd5b5061017761052e565b005b34801561018557600080fd5b5061013961061a565b34801561019a57600080fd5b50610112610794565b3480156101af57600080fd5b50610112600160a060020a0360043516610808565b3480156101d057600080fd5b50610112610a7b565b3480156101e557600080fd5b50610112610a80565b3480156101fa57600080fd5b50610177600160a060020a0360043516610a85565b34801561021b57600080fd5b50610224610c26565b60408051600160a060020a039092168252519081900360200190f35b34801561024c57600080fd5b50610177610ce4565b34801561026157600080fd5b50610112610d75565b34801561027657600080fd5b506101776004351515610de9565b34801561029057600080fd5b50610112610eaa565b3480156102a557600080fd5b50610177610eb1565b3480156102ba57600080fd5b5061011261101d565b3480156102cf57600080fd5b50610224611022565b3480156102e457600080fd5b506103046024600480358281019290820135918135918201910135611096565b604051808060200180602001838103835285818151815260200191508051906020019060200280838360005b83811015610348578181015183820152602001610330565b50505050905001838103825284818151815260200191508051906020019060200280838360005b8381101561038757818101518382015260200161036f565b5050505090500194505050505060405180910390f35b3480156103a957600080fd5b50610177600435611761565b670de0b6b3a764000081565b60006006600060405160200180807f6973496e697469616c697a656400000000000000000000000000000000000000815250600d0190506040516020818303038152906040526040518082805190602001908083835b602083106104365780518252601f199092019160209182019101610417565b51815160209384036101000a600019018019909216911617905260408051929094018290039091208652850195909552929092016000205460ff16949350505050565b60006002600060405160200180807f72657761726465644f6e4379636c650000000000000000000000000000000000815250600f0190506040516020818303038152906040526040518082805190602001908083835b602083106104ee5780518252601f1990920191602091820191016104cf565b51815160209384036101000a6000190180199092169116179052604080519290940182900390912086528501959095529290920160002054949350505050565b610536611022565b600160a060020a031663179e740b6040518163ffffffff1660e060020a028152600401602060405180830381600087803b15801561057357600080fd5b505af1158015610587573d6000803e3d6000fd5b505050506040513d602081101561059d57600080fd5b5051600160a060020a03166385cd84646105b5610c26565b6040518263ffffffff1660e060020a0281526004018082600160a060020a0316600160a060020a03168152602001915050600060405180830381600087803b15801561060057600080fd5b505af1158015610614573d6000803e3d6000fd5b50505050565b6000610624611022565b600160a060020a031663179e740b6040518163ffffffff1660e060020a028152600401602060405180830381600087803b15801561066157600080fd5b505af1158015610675573d6000803e3d6000fd5b505050506040513d602081101561068b57600080fd5b5051604080517f8d4e40830000000000000000000000000000000000000000000000000000000081529051600160a060020a0390921691638d4e4083916004808201926020929091908290030181600087803b1580156106ea57600080fd5b505af11580156106fe573d6000803e3d6000fd5b505050506040513d602081101561071457600080fd5b5051801561078f57506006600060405160200180807f73686f756c64456d697452657761726465644f6e4379636c65000000000000008152506019019050604051602081830303815290604052604051808280519060200190808383602083106104365780518252601f199092019160209182019101610417565b905090565b60006002600060405160200180807f626c6f636b526577617264416d6f756e740000000000000000000000000000008152506011019050604051602081830303815290604052604051808280519060200190808383602083106104ee5780518252601f1990920191602091820191016104cf565b6000806000806000610818611022565b600160a060020a031663179e740b6040518163ffffffff1660e060020a028152600401602060405180830381600087803b15801561085557600080fd5b505af1158015610869573d6000803e3d6000fd5b505050506040513d602081101561087f57600080fd5b5051604080517fbf135267000000000000000000000000000000000000000000000000000000008152600160a060020a03898116600483015291519296509086169163bf135267916024808201926020929091908290030181600087803b1580156108e957600080fd5b505af11580156108fd573d6000803e3d6000fd5b505050506040513d602081101561091357600080fd5b5051604080517f94409a560000000000000000000000000000000000000000000000000000000081529051919450600160a060020a038616916394409a56916004808201926020929091908290030181600087803b15801561097457600080fd5b505af1158015610988573d6000803e3d6000fd5b505050506040513d602081101561099e57600080fd5b5051604080517f40c9cdeb0000000000000000000000000000000000000000000000000000000081529051919350600160a060020a038616916340c9cdeb916004808201926020929091908290030181600087803b1580156109ff57600080fd5b505af1158015610a13573d6000803e3d6000fd5b505050506040513d6020811015610a2957600080fd5b50519050811515610a4357610a3c610794565b9450610a72565b610a6f82610a6383610a5787610a57610794565b9063ffffffff61187a16565b9063ffffffff6118b316565b94505b50505050919050565b600181565b606490565b6004600060405160200180807f6f776e657200000000000000000000000000000000000000000000000000000081525060050190506040516020818303038152906040526040518082805190602001908083835b60208310610af85780518252601f199092019160209182019101610ad9565b51815160209384036101000a6000190180199092169116179052604080519290940182900390912086528501959095529290920160002054600160a060020a031633149250610b4991505057600080fd5b806004600060405160200180807f53595354454d5f41444452455353000000000000000000000000000000000000815250600e0190506040516020818303038152906040526040518082805190602001908083835b60208310610bbd5780518252601f199092019160209182019101610b9e565b51815160209384036101000a60001901801990921691161790526040805192909401829003909120865285019590955292909201600020805473ffffffffffffffffffffffffffffffffffffffff1916600160a060020a03959095169490941790935550505050565b60006004600060405160200180807f53595354454d5f41444452455353000000000000000000000000000000000000815250600e0190506040516020818303038152906040526040518082805190602001908083835b60208310610c9b5780518252601f199092019160209182019101610c7c565b51815160209384036101000a6000190180199092169116179052604080519290940182900390912086528501959095529290920160002054600160a060020a0316949350505050565b610cec611022565b600160a060020a031663179e740b6040518163ffffffff1660e060020a028152600401602060405180830381600087803b158015610d2957600080fd5b505af1158015610d3d573d6000803e3d6000fd5b505050506040513d6020811015610d5357600080fd5b5051600160a060020a03163314610d6957600080fd5b610d736001610de9565b565b60006002600060405160200180807f746f74616c537570706c79000000000000000000000000000000000000000000815250600b019050604051602081830303815290604052604051808280519060200190808383602083106104ee5780518252601f1990920191602091820191016104cf565b806006600060405160200180807f73686f756c64456d697452657761726465644f6e4379636c650000000000000081525060190190506040516020818303038152906040526040518082805190602001908083835b60208310610e5d5780518252601f199092019160209182019101610e3e565b51815160209384036101000a60001901801990921691161790526040805192909401829003909120865285019590955292909201600020805460ff19169415159490941790935550505050565b62a0668081565b610eb9611022565b600160a060020a031663179e740b6040518163ffffffff1660e060020a028152600401602060405180830381600087803b158015610ef657600080fd5b505af1158015610f0a573d6000803e3d6000fd5b505050506040513d6020811015610f2057600080fd5b5051604080517ffacd743b0000000000000000000000000000000000000000000000000000000081523360048201529051600160a060020a039092169163facd743b916024808201926020929091908290030181600087803b158015610f8557600080fd5b505af1158015610f99573d6000803e3d6000fd5b505050506040513d6020811015610faf57600080fd5b50511515610fbc57600080fd5b610fc461061a565b1515610fcf57600080fd5b7f5c0daed232a37723b040b8aa1c0b060b1d5fb3dea06a55fd30c35cab3e8fc3d7610ff8610479565b60408051918252519081900360200190a16110136000610de9565b610d7360006118d6565b600190565b60006004600060405160200180807f70726f787953746f726167650000000000000000000000000000000000000000815250600c01905060405160208183030381529060405260405180828051906020019080838360208310610c9b5780518252601f199092019160209182019101610c7c565b606080600060608060608060006004600060405160200180807f53595354454d5f41444452455353000000000000000000000000000000000000815250600e0190506040516020818303038152906040526040518082805190602001908083835b602083106111165780518252601f1990920191602091820191016110f7565b51815160209384036101000a6000190180199092169116179052604080519290940182900390912086528501959095529290920160002054600160a060020a03163314925061116791505057600080fd5b8a891461117357600080fd5b60018b1461118057600080fd5b8989600081811061118d57fe5b9050602002013561ffff1661ffff1660001415156111aa57600080fd5b6111cf8c8c60008181106111ba57fe5b90506020020135600160a060020a0316610808565b95506111d9611022565b600160a060020a031663179e740b6040518163ffffffff1660e060020a028152600401602060405180830381600087803b15801561121657600080fd5b505af115801561122a573d6000803e3d6000fd5b505050506040513d602081101561124057600080fd5b5051600160a060020a0316636a28f12f8d8d600081811061125d57fe5b90506020020135600160a060020a0316886040518363ffffffff1660e060020a0281526004018083600160a060020a0316600160a060020a0316815260200182815260200192505050600060405180830381600087803b1580156112c057600080fd5b505af11580156112d4573d6000803e3d6000fd5b505050506040513d6000823e601f3d908101601f1916820160409081528110156112fd57600080fd5b81019080805164010000000081111561131557600080fd5b8201602081018481111561132857600080fd5b815185602082028301116401000000008211171561134557600080fd5b5050929190602001805164010000000081111561136157600080fd5b8201602081018481111561137457600080fd5b815185602082028301116401000000008211171561139157600080fd5b50509291905050509450945084516001016040519080825280602002602001820160405280156113cb578160200160208202803883390190505b50925082516040519080825280602002602001820160405280156113f9578160200160208202803883390190505b5091508b8b600081811061140957fe5b90506020020135600160a060020a031683600081518110151561142857fe5b600160a060020a03909216602092830290910190910152815186908390600090811061145057fe5b602090810290910101525060015b8451811161153c57846001820381518110151561147757fe5b90602001906020020151838281518110151561148f57fe5b600160a060020a039092166020928302909101909101528351849060001983019081106114b857fe5b9060200190602002015182828151811015156114d057fe5b60209081029091010152815161151b908390839081106114ec57fe5b9060200190602002015183600081518110151561150557fe5b602090810290910101519063ffffffff61199916565b82600081518110151561152a57fe5b6020908102909101015260010161145e565b61155c6115578761154b610479565b9063ffffffff6119b016565b6118d6565b61157061156b8761154b610d75565b6119c2565b61158861157b610a80565b439063ffffffff611a4316565b151561159657611596611a64565b61159e611022565b600160a060020a031663179e740b6040518163ffffffff1660e060020a028152600401602060405180830381600087803b1580156115db57600080fd5b505af11580156115ef573d6000803e3d6000fd5b505050506040513d602081101561160557600080fd5b5051600160a060020a03166385cd84648d8d600081811061162257fe5b90506020020135600160a060020a03166040518263ffffffff1660e060020a0281526004018082600160a060020a0316600160a060020a03168152602001915050600060405180830381600087803b15801561167d57600080fd5b505af1158015611691573d6000803e3d6000fd5b505050507fb747d4e9a0b39cc47496d84b42e4066ba8b8a0b89776528bcec4ac2997e224538383604051808060200180602001838103835285818151815260200191508051906020019060200280838360005b838110156116fc5781810151838201526020016116e4565b50505050905001838103825284818151815260200191508051906020019060200280838360005b8381101561173b578181015183820152602001611723565b5050505090500194505050505060405180910390a150909a909950975050505050505050565b6004600060405160200180807f6f776e657200000000000000000000000000000000000000000000000000000081525060050190506040516020818303038152906040526040518082805190602001908083835b602083106117d45780518252601f1990920191602091820191016117b5565b51815160209384036101000a6000190180199092169116179052604080519290940182900390912086528501959095529290920160002054600160a060020a03163314925061182591505057600080fd5b61182d6103c1565b1561183757600080fd5b61185473fffffffffffffffffffffffffffffffffffffffe610b49565b61185d816119c2565b611865611013565b61186d611a64565b6118776001611b52565b50565b60008083151561188d57600091506118ac565b5082820282848281151561189d57fe5b04146118a857600080fd5b8091505b5092915050565b6000808083116118c257600080fd5b82848115156118cd57fe5b04949350505050565b60008110156118e457600080fd5b806002600060405160200180807f72657761726465644f6e4379636c650000000000000000000000000000000000815250600f0190506040516020818303038152906040526040518082805190602001908083835b602083106119585780518252601f199092019160209182019101611939565b51815160209384036101000a600019018019909216911617905260408051929094018290039091208652850195909552929092016000209390935550505050565b600080838311156119a957600080fd5b5050900390565b6000828201838110156118a857600080fd5b60008110156119d057600080fd5b806002600060405160200180807f746f74616c537570706c79000000000000000000000000000000000000000000815250600b019050604051602081830303815290604052604051808280519060200190808383602083106119585780518252601f199092019160209182019101611939565b6000811515611a5157600080fd5b8183811515611a5c57fe5b069392505050565b611a9f670de0b6b3a7640000610a63611a7b610a80565b610a63611a976064610a63670de0b6b3a7640000610a5761101d565b610a57610d75565b6002600060405160200180807f626c6f636b526577617264416d6f756e7400000000000000000000000000000081525060110190506040516020818303038152906040526040518082805190602001908083835b60208310611b125780518252601f199092019160209182019101611af3565b51815160209384036101000a6000190180199092169116179052604080519290940182900390912086528501959095529290920160002093909355505050565b806006600060405160200180807f6973496e697469616c697a656400000000000000000000000000000000000000815250600d01905060405160208183030381529060405260405180828051906020019080838360208310610e5d5780518252601f199092019160209182019101610e3e5600a165627a7a723058207ae2e7e30d170daaa095f18ef66c4f607a3573c5052138eed0226cab9c2bdacb0029",
  "linkReferences": {},
  "deployedLinkReferences": {}
}