{
  "_format": "hh-sol-artifact-1",
  "contractName": "EternalStorage",
  "sourceName": "contracts/eternal-storage/EternalStorage.sol",
  "abi": [
    {
      "constant": true,
      "inputs": [],
      "name": "isInitialized",
      "outputs": [
        {
          "name": "",
          "type": "bool"
        }
      ],
      "payable": false,
      "stateMutability": "view",
      "type": "function"
    }
  ],
  "bytecode": "0x608060405234801561001057600080fd5b50610152806100206000396000f3006080604052600436106100405763ffffffff7c0100000000000000000000000000000000000000000000000000000000600035041663392e53cd8114610045575b600080fd5b34801561005157600080fd5b5061005a61006e565b604080519115158252519081900360200190f35b60006006600060405160200180807f6973496e697469616c697a656400000000000000000000000000000000000000815250600d0190506040516020818303038152906040526040518082805190602001908083835b602083106100e35780518252601f1990920191602091820191016100c4565b51815160209384036101000a600019018019909216911617905260408051929094018290039091208652850195909552929092016000205460ff169493505050505600a165627a7a7230582045fb8c08b84fdd0ad2e4cfc03c7321e695a834cf366ce17fb88a1fb6b76586b40029",
  "linkReferences": {},
  "deployedLinkReferences": {}
}