{
  "_format": "hh-sol-artifact-1",
  "contractName": "EternalStorageProxyMock",
  "sourceName": "contracts/test/EternalStorageProxyMock.sol",
  "abi": [
    {
      "constant": true,
      "inputs": [],
      "name": "getVersion",
      "outputs": [
        {
          "name": "",
          "type": "uint256"
        }
      ],
      "payable": false,
      "stateMutability": "view",
      "type": "function"
    },
    {
      "constant": false,
      "inputs": [
        {
          "name": "_newImplementation",
          "type": "address"
        }
      ],
      "name": "upgradeTo",
      "outputs": [
        {
          "name": "",
          "type": "bool"
        }
      ],
      "payable": false,
      "stateMutability": "nonpayable",
      "type": "function"
    },
    {
      "constant": true,
      "inputs": [],
      "name": "isInitialized",
      "outputs": [
        {
          "name": "",
          "type": "bool"
        }
      ],
      "payable": false,
      "stateMutability": "view",
      "type": "function"
    },
    {
      "constant": false,
      "inputs": [
        {
          "name": "_proxyStorage",
          "type": "address"
        }
      ],
      "name": "setProxyStorageMock",
      "outputs": [],
      "payable": false,
      "stateMutability": "nonpayable",
      "type": "function"
    },
    {
      "constant": false,
      "inputs": [],
      "name": "renounceOwnership",
      "outputs": [],
      "payable": false,
      "stateMutability": "nonpayable",
      "type": "function"
    },
    {
      "constant": true,
      "inputs": [],
      "name": "getOwner",
      "outputs": [
        {
          "name": "",
          "type": "address"
        }
      ],
      "payable": false,
      "stateMutability": "view",
      "type": "function"
    },
    {
      "constant": true,
      "inputs": [],
      "name": "getImplementation",
      "outputs": [
        {
          "name": "",
          "type": "address"
        }
      ],
      "payable": false,
      "stateMutability": "view",
      "type": "function"
    },
    {
      "constant": true,
      "inputs": [],
      "name": "getProxyStorage",
      "outputs": [
        {
          "name": "",
          "type": "address"
        }
      ],
      "payable": false,
      "stateMutability": "view",
      "type": "function"
    },
    {
      "constant": false,
      "inputs": [
        {
          "name": "_newOwner",
          "type": "address"
        }
      ],
      "name": "transferOwnership",
      "outputs": [],
      "payable": false,
      "stateMutability": "nonpayable",
      "type": "function"
    },
    {
      "inputs": [
        {
          "name": "_proxyStorage",
          "type": "address"
        },
        {
          "name": "_implementation",
          "type": "address"
        }
      ],
      "payable": false,
      "stateMutability": "nonpayable",
      "type": "constructor"
    },
    {
      "payable": true,
      "stateMutability": "payable",
      "type": "fallback"
    },
    {
      "anonymous": false,
      "inputs": [
        {
          "indexed": false,
          "name": "version",
          "type": "uint256"
        },
        {
          "indexed": true,
          "name": "implementation",
          "type": "address"
        }
      ],
      "name": "Upgraded",
      "type": "event"
    },
    {
      "anonymous": false,
      "inputs": [
        {
          "indexed": true,
          "name": "previousOwner",
          "type": "address"
        }
      ],
      "name": "OwnershipRenounced",
      "type": "event"
    },
    {
      "anonymous": false,
      "inputs": [
        {
          "indexed": true,
          "name": "previousOwner",
          "type": "address"
        },
        {
          "indexed": true,
          "name": "newOwner",
          "type": "address"
        }
      ],
      "name": "OwnershipTransferred",
      "type": "event"
    }
  ],
  "bytecode": "0x608060405234801561001057600080fd5b5060405160408061097e8339810160405280516020909101518181600160a060020a038116151561004057600080fd5b600160a060020a0382161561006657610061826401000000006100a5810204565b610078565b610078306401000000006100a5810204565b61008a81640100000000610175810204565b61009c33640100000000610197810204565b5050505061020a565b806004600060405160200180807f70726f787953746f726167650000000000000000000000000000000000000000815250600c0190506040516020818303038152906040526040518082805190602001908083835b602083106101195780518252601f1990920191602091820191016100fa565b51815160209384036101000a600019018019909216911617905260408051929094018290039091208652850195909552929092016000208054600160a060020a031916600160a060020a03959095169490941790935550505050565b60018054600160a060020a031916600160a060020a0392909216919091179055565b806004600060405160200180807f6f776e65720000000000000000000000000000000000000000000000000000008152506005019050604051602081830303815290604052604051808280519060200190808383602083106101195780518252601f1990920191602091820191016100fa565b610765806102196000396000f3006080604052600436106100985763ffffffff7c01000000000000000000000000000000000000000000000000000000006000350416630d8e6e2c81146100dd5780633659cfe614610104578063392e53cd146101395780635ba3cf4f1461014e578063715018a614610171578063893d20e814610186578063aaf10f42146101b7578063ec15a5e6146101cc578063f2fde38b146101e1575b60006100a2610202565b9050600160a060020a03811615156100b957600080fd5b3660008037600080366000845af43d6000803e8080156100d8573d6000f35b3d6000fd5b3480156100e957600080fd5b506100f2610211565b60408051918252519081900360200190f35b34801561011057600080fd5b50610125600160a060020a0360043516610217565b604080519115158252519081900360200190f35b34801561014557600080fd5b506101256102e2565b34801561015a57600080fd5b5061016f600160a060020a036004351661039a565b005b34801561017d57600080fd5b5061016f610477565b34801561019257600080fd5b5061019b6104dc565b60408051600160a060020a039092168252519081900360200190f35b3480156101c357600080fd5b5061019b610202565b3480156101d857600080fd5b5061019b61059a565b3480156101ed57600080fd5b5061016f600160a060020a036004351661060e565b600154600160a060020a031690565b60005490565b60008061022261059a565b600160a060020a0316331461023657600080fd5b600160a060020a038316151561024f57600091506102dc565b82600160a060020a0316610261610202565b600160a060020a0316141561027957600091506102dc565b610281610211565b600101905061028f81610692565b61029883610697565b604080518281529051600160a060020a038516917f4289d6195cf3c2d2174adf98d0e19d4d2d08887995b99cb7b100e7ffe795820e919081900360200190a2600191505b50919050565b60006006600060405160200180807f6973496e697469616c697a656400000000000000000000000000000000000000815250600d0190506040516020818303038152906040526040518082805190602001908083835b602083106103575780518252601f199092019160209182019101610338565b51815160209384036101000a600019018019909216911617905260408051929094018290039091208652850195909552929092016000205460ff16949350505050565b806004600060405160200180807f70726f787953746f726167650000000000000000000000000000000000000000815250600c0190506040516020818303038152906040526040518082805190602001908083835b6020831061040e5780518252601f1990920191602091820191016103ef565b51815160209384036101000a60001901801990921691161790526040805192909401829003909120865285019590955292909201600020805473ffffffffffffffffffffffffffffffffffffffff1916600160a060020a03959095169490941790935550505050565b61047f6104dc565b600160a060020a0316331461049357600080fd5b61049b6104dc565b600160a060020a03167ff8df31144d9c2f0f6b59d69b8b98abd5459d07f2742c4df920b25aae33c6482060405160405180910390a26104da60006106c6565b565b60006004600060405160200180807f6f776e657200000000000000000000000000000000000000000000000000000081525060050190506040516020818303038152906040526040518082805190602001908083835b602083106105515780518252601f199092019160209182019101610532565b51815160209384036101000a6000190180199092169116179052604080519290940182900390912086528501959095529290920160002054600160a060020a0316949350505050565b60006004600060405160200180807f70726f787953746f726167650000000000000000000000000000000000000000815250600c019050604051602081830303815290604052604051808280519060200190808383602083106105515780518252601f199092019160209182019101610532565b6106166104dc565b600160a060020a0316331461062a57600080fd5b600160a060020a038116151561063f57600080fd5b80600160a060020a03166106516104dc565b600160a060020a03167f8be0079c531659141344cd1fd0a4f28419497f9722a3daafe3b4186f6b6457e060405160405180910390a361068f816106c6565b50565b600055565b6001805473ffffffffffffffffffffffffffffffffffffffff1916600160a060020a0392909216919091179055565b806004600060405160200180807f6f776e657200000000000000000000000000000000000000000000000000000081525060050190506040516020818303038152906040526040518082805190602001908083836020831061040e5780518252601f1990920191602091820191016103ef5600a165627a7a723058209913b06dbaf40d3a3f6d2768e097fefa57422f9448cdfffd0b3576fb24bda5690029",
  "linkReferences": {},
  "deployedLinkReferences": {}
}