{
  "_format": "hh-sol-artifact-1",
  "contractName": "ConsensusMock",
  "sourceName": "contracts/test/ConsensusMock.sol",
  "abi": [
    {
      "constant": true,
      "inputs": [],
      "name": "getLastSnapshotTakenAtBlock",
      "outputs": [
        {
          "name": "",
          "type": "uint256"
        }
      ],
      "payable": false,
      "stateMutability": "view",
      "type": "function"
    },
    {
      "constant": true,
      "inputs": [],
      "name": "jailedValidatorsLength",
      "outputs": [
        {
          "name": "",
          "type": "uint256"
        }
      ],
      "payable": false,
      "stateMutability": "view",
      "type": "function"
    },
    {
      "constant": true,
      "inputs": [
        {
          "name": "_p",
          "type": "uint256"
        }
      ],
      "name": "pendingValidatorsAtPosition",
      "outputs": [
        {
          "name": "",
          "type": "address"
        }
      ],
      "payable": false,
      "stateMutability": "view",
      "type": "function"
    },
    {
      "constant": true,
      "inputs": [
        {
          "name": "_snapshotId",
          "type": "uint256"
        }
      ],
      "name": "getSnapshotAddresses",
      "outputs": [
        {
          "name": "",
          "type": "address[]"
        }
      ],
      "payable": false,
      "stateMutability": "view",
      "type": "function"
    },
    {
      "constant": false,
      "inputs": [
        {
          "name": "_newAddress",
          "type": "address"
        }
      ],
      "name": "setProxyStorage",
      "outputs": [],
      "payable": false,
      "stateMutability": "nonpayable",
      "type": "function"
    },
    {
      "constant": true,
      "inputs": [],
      "name": "getMinValidatorFee",
      "outputs": [
        {
          "name": "",
          "type": "uint256"
        }
      ],
      "payable": false,
      "stateMutability": "pure",
      "type": "function"
    },
    {
      "constant": true,
      "inputs": [
        {
          "name": "_address",
          "type": "address"
        }
      ],
      "name": "isJailed",
      "outputs": [
        {
          "name": "",
          "type": "bool"
        }
      ],
      "payable": false,
      "stateMutability": "view",
      "type": "function"
    },
    {
      "constant": true,
      "inputs": [],
      "name": "hasCycleEnded",
      "outputs": [
        {
          "name": "",
          "type": "bool"
        }
      ],
      "payable": false,
      "stateMutability": "view",
      "type": "function"
    },
    {
      "constant": true,
      "inputs": [
        {
          "name": "_address",
          "type": "address"
        },
        {
          "name": "_validator",
          "type": "address"
        }
      ],
      "name": "delegatedAmount",
      "outputs": [
        {
          "name": "",
          "type": "uint256"
        }
      ],
      "payable": false,
      "stateMutability": "view",
      "type": "function"
    },
    {
      "constant": true,
      "inputs": [],
      "name": "SNAPSHOTS_PER_CYCLE",
      "outputs": [
        {
          "name": "",
          "type": "uint256"
        }
      ],
      "payable": false,
      "stateMutability": "view",
      "type": "function"
    },
    {
      "constant": true,
      "inputs": [],
      "name": "pendingValidatorsLength",
      "outputs": [
        {
          "name": "",
          "type": "uint256"
        }
      ],
      "payable": false,
      "stateMutability": "view",
      "type": "function"
    },
    {
      "constant": true,
      "inputs": [],
      "name": "newValidatorSetLength",
      "outputs": [
        {
          "name": "",
          "type": "uint256"
        }
      ],
      "payable": false,
      "stateMutability": "view",
      "type": "function"
    },
    {
      "constant": false,
      "inputs": [
        {
          "name": "_currentValidatorsLengthMock",
          "type": "uint256"
        }
      ],
      "name": "setCurrentValidatorsLengthMock",
      "outputs": [],
      "payable": false,
      "stateMutability": "nonpayable",
      "type": "function"
    },
    {
      "constant": true,
      "inputs": [],
      "name": "DECIMALS",
      "outputs": [
        {
          "name": "",
          "type": "uint256"
        }
      ],
      "payable": false,
      "stateMutability": "view",
      "type": "function"
    },
    {
      "constant": false,
      "inputs": [
        {
          "name": "_amount",
          "type": "uint256"
        }
      ],
      "name": "withdraw",
      "outputs": [],
      "payable": false,
      "stateMutability": "nonpayable",
      "type": "function"
    },
    {
      "constant": true,
      "inputs": [],
      "name": "isInitialized",
      "outputs": [
        {
          "name": "",
          "type": "bool"
        }
      ],
      "payable": false,
      "stateMutability": "view",
      "type": "function"
    },
    {
      "constant": false,
      "inputs": [],
      "name": "stake",
      "outputs": [],
      "payable": true,
      "stateMutability": "payable",
      "type": "function"
    },
    {
      "constant": true,
      "inputs": [],
      "name": "currentValidatorsLength",
      "outputs": [
        {
          "name": "",
          "type": "uint256"
        }
      ],
      "payable": false,
      "stateMutability": "view",
      "type": "function"
    },
    {
      "constant": false,
      "inputs": [
        {
          "name": "_val",
          "type": "address"
        },
        {
          "name": "counter",
          "type": "uint256"
        }
      ],
      "name": "setBlockCounterMock",
      "outputs": [],
      "payable": false,
      "stateMutability": "nonpayable",
      "type": "function"
    },
    {
      "constant": false,
      "inputs": [
        {
          "name": "_status",
          "type": "bool"
        }
      ],
      "name": "setShouldEmitInitiateChangeMock",
      "outputs": [],
      "payable": false,
      "stateMutability": "nonpayable",
      "type": "function"
    },
    {
      "constant": false,
      "inputs": [
        {
          "name": "_amount",
          "type": "uint256"
        }
      ],
      "name": "setValidatorFee",
      "outputs": [],
      "payable": false,
      "stateMutability": "nonpayable",
      "type": "function"
    },
    {
      "constant": true,
      "inputs": [],
      "name": "getMinStake",
      "outputs": [
        {
          "name": "",
          "type": "uint256"
        }
      ],
      "payable": false,
      "stateMutability": "pure",
      "type": "function"
    },
    {
      "constant": true,
      "inputs": [
        {
          "name": "_p",
          "type": "uint256"
        }
      ],
      "name": "currentValidatorsAtPosition",
      "outputs": [
        {
          "name": "",
          "type": "address"
        }
      ],
      "payable": false,
      "stateMutability": "view",
      "type": "function"
    },
    {
      "constant": false,
      "inputs": [
        {
          "name": "_validator",
          "type": "address"
        }
      ],
      "name": "delegate",
      "outputs": [],
      "payable": true,
      "stateMutability": "payable",
      "type": "function"
    },
    {
      "constant": true,
      "inputs": [],
      "name": "newValidatorSet",
      "outputs": [
        {
          "name": "",
          "type": "address[]"
        }
      ],
      "payable": false,
      "stateMutability": "view",
      "type": "function"
    },
    {
      "constant": true,
      "inputs": [],
      "name": "jailedValidators",
      "outputs": [
        {
          "name": "",
          "type": "address[]"
        }
      ],
      "payable": false,
      "stateMutability": "view",
      "type": "function"
    },
    {
      "constant": true,
      "inputs": [
        {
          "name": "_from",
          "type": "uint256"
        },
        {
          "name": "_to",
          "type": "uint256"
        }
      ],
      "name": "getRandom",
      "outputs": [
        {
          "name": "",
          "type": "uint256"
        }
      ],
      "payable": false,
      "stateMutability": "view",
      "type": "function"
    },
    {
      "constant": true,
      "inputs": [
        {
          "name": "_validator",
          "type": "address"
        },
        {
          "name": "_rewardAmount",
          "type": "uint256"
        }
      ],
      "name": "getDelegatorsForRewardDistribution",
      "outputs": [
        {
          "name": "",
          "type": "address[]"
        },
        {
          "name": "",
          "type": "uint256[]"
        }
      ],
      "payable": false,
      "stateMutability": "view",
      "type": "function"
    },
    {
      "constant": true,
      "inputs": [],
      "name": "STRIKE_RESET",
      "outputs": [
        {
          "name": "",
          "type": "uint256"
        }
      ],
      "payable": false,
      "stateMutability": "view",
      "type": "function"
    },
    {
      "constant": false,
      "inputs": [],
      "name": "maintenance",
      "outputs": [],
      "payable": false,
      "stateMutability": "nonpayable",
      "type": "function"
    },
    {
      "constant": false,
      "inputs": [
        {
          "name": "_amount",
          "type": "uint256"
        }
      ],
      "name": "setValidatorFeeMock",
      "outputs": [],
      "payable": false,
      "stateMutability": "nonpayable",
      "type": "function"
    },
    {
      "constant": false,
      "inputs": [],
      "name": "unJail",
      "outputs": [],
      "payable": false,
      "stateMutability": "nonpayable",
      "type": "function"
    },
    {
      "constant": true,
      "inputs": [],
      "name": "MAX_VALIDATORS",
      "outputs": [
        {
          "name": "",
          "type": "uint256"
        }
      ],
      "payable": false,
      "stateMutability": "view",
      "type": "function"
    },
    {
      "constant": true,
      "inputs": [],
      "name": "VALIDATOR_PRODUCTIVITY_BP",
      "outputs": [
        {
          "name": "",
          "type": "uint256"
        }
      ],
      "payable": false,
      "stateMutability": "view",
      "type": "function"
    },
    {
      "constant": false,
      "inputs": [],
      "name": "finalizeChange",
      "outputs": [],
      "payable": false,
      "stateMutability": "nonpayable",
      "type": "function"
    },
    {
      "constant": true,
      "inputs": [],
      "name": "getMaxValidators",
      "outputs": [
        {
          "name": "",
          "type": "uint256"
        }
      ],
      "payable": false,
      "stateMutability": "pure",
      "type": "function"
    },
    {
      "constant": false,
      "inputs": [
        {
          "name": "_newAddress",
          "type": "address"
        }
      ],
      "name": "setSystemAddressMock",
      "outputs": [],
      "payable": false,
      "stateMutability": "nonpayable",
      "type": "function"
    },
    {
      "constant": true,
      "inputs": [
        {
          "name": "_validator",
          "type": "address"
        }
      ],
      "name": "getStrikes",
      "outputs": [
        {
          "name": "",
          "type": "uint256"
        }
      ],
      "payable": false,
      "stateMutability": "view",
      "type": "function"
    },
    {
      "constant": true,
      "inputs": [
        {
          "name": "_validator",
          "type": "address"
        }
      ],
      "name": "blockCounter",
      "outputs": [
        {
          "name": "",
          "type": "uint256"
        }
      ],
      "payable": false,
      "stateMutability": "view",
      "type": "function"
    },
    {
      "constant": true,
      "inputs": [],
      "name": "CYCLE_DURATION_BLOCKS",
      "outputs": [
        {
          "name": "",
          "type": "uint256"
        }
      ],
      "payable": false,
      "stateMutability": "view",
      "type": "function"
    },
    {
      "constant": false,
      "inputs": [
        {
          "name": "_validator",
          "type": "address"
        }
      ],
      "name": "cycle",
      "outputs": [],
      "payable": false,
      "stateMutability": "nonpayable",
      "type": "function"
    },
    {
      "constant": true,
      "inputs": [],
      "name": "MAX_STRIKE_COUNT",
      "outputs": [
        {
          "name": "",
          "type": "uint256"
        }
      ],
      "payable": false,
      "stateMutability": "view",
      "type": "function"
    },
    {
      "constant": true,
      "inputs": [],
      "name": "getSnapshotsPerCycle",
      "outputs": [
        {
          "name": "",
          "type": "uint256"
        }
      ],
      "payable": false,
      "stateMutability": "pure",
      "type": "function"
    },
    {
      "constant": true,
      "inputs": [],
      "name": "requiredSignatures",
      "outputs": [
        {
          "name": "",
          "type": "uint256"
        }
      ],
      "payable": false,
      "stateMutability": "view",
      "type": "function"
    },
    {
      "constant": true,
      "inputs": [
        {
          "name": "_validator",
          "type": "address"
        }
      ],
      "name": "delegators",
      "outputs": [
        {
          "name": "",
          "type": "address[]"
        }
      ],
      "payable": false,
      "stateMutability": "view",
      "type": "function"
    },
    {
      "constant": true,
      "inputs": [],
      "name": "isFinalized",
      "outputs": [
        {
          "name": "",
          "type": "bool"
        }
      ],
      "payable": false,
      "stateMutability": "view",
      "type": "function"
    },
    {
      "constant": true,
      "inputs": [
        {
          "name": "_p",
          "type": "uint256"
        }
      ],
      "name": "jailedValidatorsAtPosition",
      "outputs": [
        {
          "name": "",
          "type": "address"
        }
      ],
      "payable": false,
      "stateMutability": "view",
      "type": "function"
    },
    {
      "constant": true,
      "inputs": [],
      "name": "getSystemAddress",
      "outputs": [
        {
          "name": "",
          "type": "address"
        }
      ],
      "payable": false,
      "stateMutability": "view",
      "type": "function"
    },
    {
      "constant": true,
      "inputs": [],
      "name": "DEFAULT_VALIDATOR_FEE",
      "outputs": [
        {
          "name": "",
          "type": "uint256"
        }
      ],
      "payable": false,
      "stateMutability": "view",
      "type": "function"
    },
    {
      "constant": true,
      "inputs": [],
      "name": "getCurrentCycleStartBlock",
      "outputs": [
        {
          "name": "",
          "type": "uint256"
        }
      ],
      "payable": false,
      "stateMutability": "view",
      "type": "function"
    },
    {
      "constant": false,
      "inputs": [],
      "name": "emitInitiateChange",
      "outputs": [],
      "payable": false,
      "stateMutability": "nonpayable",
      "type": "function"
    },
    {
      "constant": true,
      "inputs": [],
      "name": "totalStakeAmount",
      "outputs": [
        {
          "name": "",
          "type": "uint256"
        }
      ],
      "payable": false,
      "stateMutability": "view",
      "type": "function"
    },
    {
      "constant": true,
      "inputs": [
        {
          "name": "_validator",
          "type": "address"
        }
      ],
      "name": "validatorFee",
      "outputs": [
        {
          "name": "",
          "type": "uint256"
        }
      ],
      "payable": false,
      "stateMutability": "view",
      "type": "function"
    },
    {
      "constant": false,
      "inputs": [
        {
          "name": "_newSet",
          "type": "address[]"
        }
      ],
      "name": "setNewValidatorSetMock",
      "outputs": [],
      "payable": false,
      "stateMutability": "nonpayable",
      "type": "function"
    },
    {
      "constant": true,
      "inputs": [
        {
          "name": "_validator",
          "type": "address"
        },
        {
          "name": "_address",
          "type": "address"
        }
      ],
      "name": "isDelegator",
      "outputs": [
        {
          "name": "",
          "type": "bool"
        }
      ],
      "payable": false,
      "stateMutability": "view",
      "type": "function"
    },
    {
      "constant": true,
      "inputs": [],
      "name": "currentValidators",
      "outputs": [
        {
          "name": "",
          "type": "address[]"
        }
      ],
      "payable": false,
      "stateMutability": "view",
      "type": "function"
    },
    {
      "constant": true,
      "inputs": [],
      "name": "getCycleDurationBlocks",
      "outputs": [
        {
          "name": "",
          "type": "uint256"
        }
      ],
      "payable": false,
      "stateMutability": "pure",
      "type": "function"
    },
    {
      "constant": true,
      "inputs": [],
      "name": "pendingValidators",
      "outputs": [
        {
          "name": "",
          "type": "address[]"
        }
      ],
      "payable": false,
      "stateMutability": "view",
      "type": "function"
    },
    {
      "constant": true,
      "inputs": [],
      "name": "getCurrentCycleEndBlock",
      "outputs": [
        {
          "name": "",
          "type": "uint256"
        }
      ],
      "payable": false,
      "stateMutability": "view",
      "type": "function"
    },
    {
      "constant": true,
      "inputs": [],
      "name": "getValidators",
      "outputs": [
        {
          "name": "",
          "type": "address[]"
        }
      ],
      "payable": false,
      "stateMutability": "view",
      "type": "function"
    },
    {
      "constant": true,
      "inputs": [
        {
          "name": "_address",
          "type": "address"
        }
      ],
      "name": "stakeAmount",
      "outputs": [
        {
          "name": "",
          "type": "uint256"
        }
      ],
      "payable": false,
      "stateMutability": "view",
      "type": "function"
    },
    {
      "constant": false,
      "inputs": [
        {
          "name": "_initialValidator",
          "type": "address"
        }
      ],
      "name": "initialize",
      "outputs": [],
      "payable": false,
      "stateMutability": "nonpayable",
      "type": "function"
    },
    {
      "constant": true,
      "inputs": [],
      "name": "MAX_STAKE",
      "outputs": [
        {
          "name": "",
          "type": "uint256"
        }
      ],
      "payable": false,
      "stateMutability": "view",
      "type": "function"
    },
    {
      "constant": true,
      "inputs": [],
      "name": "MIN_STAKE",
      "outputs": [
        {
          "name": "",
          "type": "uint256"
        }
      ],
      "payable": false,
      "stateMutability": "view",
      "type": "function"
    },
    {
      "constant": true,
      "inputs": [
        {
          "name": "_validator",
          "type": "address"
        }
      ],
      "name": "getStrikeReset",
      "outputs": [
        {
          "name": "",
          "type": "uint256"
        }
      ],
      "payable": false,
      "stateMutability": "view",
      "type": "function"
    },
    {
      "constant": false,
      "inputs": [
        {
          "name": "_status",
          "type": "bool"
        }
      ],
      "name": "setFinalizedMock",
      "outputs": [],
      "payable": false,
      "stateMutability": "nonpayable",
      "type": "function"
    },
    {
      "constant": true,
      "inputs": [
        {
          "name": "_validator",
          "type": "address"
        }
      ],
      "name": "delegatorsLength",
      "outputs": [
        {
          "name": "",
          "type": "uint256"
        }
      ],
      "payable": false,
      "stateMutability": "view",
      "type": "function"
    },
    {
      "constant": false,
      "inputs": [
        {
          "name": "addr",
          "type": "address"
        },
        {
          "name": "amount",
          "type": "uint256"
        }
      ],
      "name": "addStakeAmountMock",
      "outputs": [],
      "payable": false,
      "stateMutability": "nonpayable",
      "type": "function"
    },
    {
      "constant": true,
      "inputs": [],
      "name": "getNextSnapshotId",
      "outputs": [
        {
          "name": "",
          "type": "uint256"
        }
      ],
      "payable": false,
      "stateMutability": "view",
      "type": "function"
    },
    {
      "constant": true,
      "inputs": [
        {
          "name": "_validator",
          "type": "address"
        },
        {
          "name": "_p",
          "type": "uint256"
        }
      ],
      "name": "delegatorsAtPosition",
      "outputs": [
        {
          "name": "",
          "type": "address"
        }
      ],
      "payable": false,
      "stateMutability": "view",
      "type": "function"
    },
    {
      "constant": true,
      "inputs": [],
      "name": "getProxyStorage",
      "outputs": [
        {
          "name": "",
          "type": "address"
        }
      ],
      "payable": false,
      "stateMutability": "view",
      "type": "function"
    },
    {
      "constant": true,
      "inputs": [
        {
          "name": "_validator",
          "type": "address"
        }
      ],
      "name": "getReleaseBlock",
      "outputs": [
        {
          "name": "",
          "type": "uint256"
        }
      ],
      "payable": false,
      "stateMutability": "view",
      "type": "function"
    },
    {
      "constant": true,
      "inputs": [],
      "name": "shouldEmitInitiateChange",
      "outputs": [
        {
          "name": "",
          "type": "bool"
        }
      ],
      "payable": false,
      "stateMutability": "view",
      "type": "function"
    },
    {
      "constant": false,
      "inputs": [
        {
          "name": "_newSet",
          "type": "address[]"
        }
      ],
      "name": "setStakeAmountMockGroup",
      "outputs": [],
      "payable": false,
      "stateMutability": "nonpayable",
      "type": "function"
    },
    {
      "constant": false,
      "inputs": [
        {
          "name": "_validator",
          "type": "address"
        },
        {
          "name": "_amount",
          "type": "uint256"
        }
      ],
      "name": "withdraw",
      "outputs": [],
      "payable": false,
      "stateMutability": "nonpayable",
      "type": "function"
    },
    {
      "constant": true,
      "inputs": [
        {
          "name": "_address",
          "type": "address"
        }
      ],
      "name": "isValidator",
      "outputs": [
        {
          "name": "",
          "type": "bool"
        }
      ],
      "payable": false,
      "stateMutability": "view",
      "type": "function"
    },
    {
      "constant": true,
      "inputs": [
        {
          "name": "_address",
          "type": "address"
        }
      ],
      "name": "isPendingValidator",
      "outputs": [
        {
          "name": "",
          "type": "bool"
        }
      ],
      "payable": false,
      "stateMutability": "view",
      "type": "function"
    },
    {
      "constant": false,
      "inputs": [
        {
          "name": "_totalStake",
          "type": "uint256"
        }
      ],
      "name": "setTotalStakeAmountMock",
      "outputs": [],
      "payable": false,
      "stateMutability": "nonpayable",
      "type": "function"
    },
    {
      "constant": true,
      "inputs": [],
      "name": "getMaxStake",
      "outputs": [
        {
          "name": "",
          "type": "uint256"
        }
      ],
      "payable": false,
      "stateMutability": "pure",
      "type": "function"
    },
    {
      "payable": true,
      "stateMutability": "payable",
      "type": "fallback"
    },
    {
      "anonymous": false,
      "inputs": [
        {
          "indexed": false,
          "name": "newSet",
          "type": "address[]"
        }
      ],
      "name": "ChangeFinalized",
      "type": "event"
    },
    {
      "anonymous": false,
      "inputs": [],
      "name": "ShouldEmitInitiateChange",
      "type": "event"
    },
    {
      "anonymous": false,
      "inputs": [
        {
          "indexed": true,
          "name": "parentHash",
          "type": "bytes32"
        },
        {
          "indexed": false,
          "name": "newSet",
          "type": "address[]"
        }
      ],
      "name": "InitiateChange",
      "type": "event"
    }
  ],
  "bytecode": "0x60806040526000600f5534801561001557600080fd5b506154f9806100256000396000f3006080604052600436106103815763ffffffff60e060020a6000350416630300fc35811461038e57806308c90076146103b55780630fe9d28e146103ca5780631043ca28146103fe578063108552691461046657806310f606e71461048757806314bfb5271461049c5780631ffbaf68146104d157806321429e60146104e6578063256f91931461050d5780632a807f15146105225780632bec36d2146105375780632c4438511461054c5780632e0f2625146105645780632e1a7d4d14610579578063392e53cd146105915780633a4b66f1146105a657806340c9cdeb146105ae578063416fab2f146105c3578063532e3aaa146105e757806355460f811461060157806356a3b5fa1461061957806357aeefc51461062e5780635c19a95c146106465780635ccee1de1461065a578063651d8c221461066f578063655b08eb146106845780636a28f12f1461069f5780636bdf1d5a1461075c5780636c376cc5146107715780636d6f7e4c146107865780636eae5b111461079e578063714897df146107b357806372e81e32146107c857806375286211146107dd57806376bd510f146107f2578063770c6320146108075780637b1e52a5146108285780637d8f7a61146108495780637e2bf1201461086a57806385cd84641461087f5780638615b171146108a05780638bbc1e6b146108b55780638d068043146108ca5780638d23fc61146108df5780638d4e4083146109005780638da873f8146109155780638dd3848f1461092d57806392b391f314610942578063932781d61461095757806393b4e25e1461096c57806394409a56146109815780639f77dc3014610996578063a0535deb146109b7578063a0e1192914610a0c578063a2cde60914610a33578063a652492314610a48578063a82f255b14610a5d578063af29518114610a72578063b7ab4db514610a87578063bf13526714610a9c578063c4d66de814610abd578063c98517c514610ade578063cb1c2b5c14610af3578063d2166ce914610b08578063d8da60b114610b29578063ddb3f48714610b43578063e552fec414610b64578063e9fbe9d414610b88578063eb431b6a14610b9d578063ec15a5e614610bc1578063ee19a7fc14610bd6578063ef7b6d8914610bf7578063f0a7d43d14610c0c578063f3fef3a314610c61578063facd743b14610c85578063fb64aac114610ca6578063fe03d2e514610cc7578063fe35505b14610cdf575b61038c333433610cf4565b005b34801561039a57600080fd5b506103a3610dbb565b60408051918252519081900360200190f35b3480156103c157600080fd5b506103a3610e71565b3480156103d657600080fd5b506103e2600435610ed3565b60408051600160a060020a039092168252519081900360200190f35b34801561040a57600080fd5b50610416600435610f9a565b60408051602080825283518183015283519192839290830191858101910280838360005b8381101561045257818101518382015260200161043a565b505050509050019250505060405180910390f35b34801561047257600080fd5b5061038c600160a060020a03600435166110d5565b34801561049357600080fd5b506103a36113f4565b3480156104a857600080fd5b506104bd600160a060020a03600435166113ff565b604080519115158252519081900360200190f35b3480156104dd57600080fd5b506104bd611450565b3480156104f257600080fd5b506103a3600160a060020a036004358116906024351661145f565b34801561051957600080fd5b506103a3611523565b34801561052e57600080fd5b506103a3611528565b34801561054357600080fd5b506103a361158a565b34801561055857600080fd5b5061038c6004356115fe565b34801561057057600080fd5b506103a3611603565b34801561058557600080fd5b5061038c60043561160f565b34801561059d57600080fd5b506104bd61161d565b61038c6116d5565b3480156105ba57600080fd5b506103a36116e2565b3480156105cf57600080fd5b5061038c600160a060020a03600435166024356116fe565b3480156105f357600080fd5b5061038c60043515156117c2565b34801561060d57600080fd5b5061038c600435611835565b34801561062557600080fd5b506103a361187c565b34801561063a57600080fd5b506103e260043561188a565b61038c600160a060020a03600435166118ec565b34801561066657600080fd5b506104166118f7565b34801561067b57600080fd5b50610416611a00565b34801561069057600080fd5b506103a3600435602435611a62565b3480156106ab57600080fd5b506106c3600160a060020a0360043516602435611a75565b604051808060200180602001838103835285818151815260200191508051906020019060200280838360005b838110156107075781810151838201526020016106ef565b50505050905001838103825284818151815260200191508051906020019060200280838360005b8381101561074657818101518382015260200161072e565b5050505090500194505050505060405180910390f35b34801561076857600080fd5b506103a3611b73565b34801561077d57600080fd5b5061038c611b78565b34801561079257600080fd5b5061038c600435611ba8565b3480156107aa57600080fd5b5061038c611bbd565b3480156107bf57600080fd5b506103a3611bf6565b3480156107d457600080fd5b506103a3611bfc565b3480156107e957600080fd5b5061038c611c02565b3480156107fe57600080fd5b506103a3611d7b565b34801561081357600080fd5b5061038c600160a060020a0360043516611d81565b34801561083457600080fd5b506103a3600160a060020a0360043516611f15565b34801561085557600080fd5b506103a3600160a060020a0360043516611fd9565b34801561087657600080fd5b506103a361205b565b34801561088b57600080fd5b5061038c600160a060020a0360043516612061565b3480156108ac57600080fd5b506103a3612381565b3480156108c157600080fd5b506103a3612386565b3480156108d657600080fd5b506103a361238b565b3480156108eb57600080fd5b50610416600160a060020a03600435166123ab565b34801561090c57600080fd5b506104bd61242d565b34801561092157600080fd5b506103e26004356124a1565b34801561093957600080fd5b506103e2612503565b34801561094e57600080fd5b506103a36125c1565b34801561096357600080fd5b506103a36125cc565b34801561097857600080fd5b5061038c612640565b34801561098d57600080fd5b506103a3612703565b3480156109a257600080fd5b506103a3600160a060020a0360043516612765565b3480156109c357600080fd5b506040805160206004803580820135838102808601850190965280855261038c953695939460249493850192918291850190849080828437509497506127f99650505050505050565b348015610a1857600080fd5b506104bd600160a060020a03600435811690602435166128bb565b348015610a3f57600080fd5b5061041661290f565b348015610a5457600080fd5b506103a3612971565b348015610a6957600080fd5b50610416612976565b348015610a7e57600080fd5b506103a36129d8565b348015610a9357600080fd5b50610416612a4c565b348015610aa857600080fd5b506103a3600160a060020a0360043516612a56565b348015610ac957600080fd5b5061038c600160a060020a0360043516612ad8565b348015610aea57600080fd5b506103a3612c0e565b348015610aff57600080fd5b506103a3612c1e565b348015610b1457600080fd5b506103a3600160a060020a0360043516612c2c565b348015610b3557600080fd5b5061038c6004351515612cae565b348015610b4f57600080fd5b506103a3600160a060020a0360043516612d21565b348015610b7057600080fd5b5061038c600160a060020a0360043516602435612da3565b348015610b9457600080fd5b506103a3612dad565b348015610ba957600080fd5b506103e2600160a060020a0360043516602435612e21565b348015610bcd57600080fd5b506103e2612f09565b348015610be257600080fd5b506103a3600160a060020a0360043516612f7d565b348015610c0357600080fd5b506104bd613011565b348015610c1857600080fd5b506040805160206004803580820135838102808601850190965280855261038c953695939460249493850192918291850190849080828437509497506130859650505050505050565b348015610c6d57600080fd5b5061038c600160a060020a03600435166024356130c2565b348015610c9157600080fd5b506104bd600160a060020a03600435166130cd565b348015610cb257600080fd5b506104bd600160a060020a0360043516613113565b348015610cd357600080fd5b5061038c600435613159565b348015610ceb57600080fd5b506103a3613162565b600160a060020a0383161515610d0957600080fd5b811515610d1557600080fd5b600160a060020a0381161515610d2a57600080fd5b610d35838284613170565b610d3f818361332b565b610d47613162565b610d5082612a56565b1115610d5b57600080fd5b610d6361187c565b610d6c82612a56565b10158015610d805750610d7e81613113565b155b15610d9f57610d8e8161342f565b610d9f8166b1a2bc2ec50000613512565b610da8816130cd565b15610db657610db6826135a5565b505050565b60006002600060405160200180807f6c617374536e617073686f7454616b656e4174426c6f636b000000000000000081525060180190506040516020818303038152906040526040518082805190602001908083835b60208310610e305780518252601f199092019160209182019101610e11565b51815160209384036101000a600019018019909216911617905260408051929094018290039091208652850195909552929092016000205493505050505b90565b6000600a6000604051602001808060008051602061538e833981519152815250601001905060405160208183030381529060405260405180828051906020019080838360208310610e305780518252601f199092019160209182019101610e11565b6000600a600060405160200180806000805160206153ee83398151915281525060110190506040516020818303038152906040526040518082805190602001908083835b60208310610f365780518252601f199092019160209182019101610f17565b51815160209384036101000a60001901801990921691161790526040805192909401829003909120865285019590955292909201600020805490935085925082109050610f7f57fe5b600091825260209091200154600160a060020a031692915050565b6060600a60008360405160200180807f736e617073686f74000000000000000000000000000000000000000000000000815250600801828152602001807f61646472657373657300000000000000000000000000000000000000000000008152506009019150506040516020818303038152906040526040518082805190602001908083835b6020831061103f5780518252601f199092019160209182019101611020565b51815160209384036101000a6000190180199092169116179052604080519290940182900390912086528581019690965250928301600020805484518187028101870190955280855293949093925084019050828280156110c957602002820191906000526020600020905b8154600160a060020a031681526001909101906020018083116110ab575b50505050509050919050565b6004600060405160200180807f6f776e657200000000000000000000000000000000000000000000000000000081525060050190506040516020818303038152906040526040518082805190602001908083835b602083106111485780518252601f199092019160209182019101611129565b51815160209384036101000a6000190180199092169116179052604080519290940182900390912086528501959095529290920160002054600160a060020a03163314925061119991505057600080fd5b600160a060020a03811615156111ae57600080fd5b6006600060405160200180807f77617350726f787953746f72616765536574000000000000000000000000000081525060120190506040516020818303038152906040526040518082805190602001908083835b602083106112215780518252601f199092019160209182019101611202565b51815160209384036101000a600019018019909216911617905260408051929094018290039091208652850195909552929092016000205460ff1615925061126b91505057600080fd5b806004600060405160200180807f70726f787953746f726167650000000000000000000000000000000000000000815250600c0190506040516020818303038152906040526040518082805190602001908083835b602083106112df5780518252601f1990920191602091820191016112c0565b51815160209384036101000a600019018019909216911617905260408051929094018290039091208652858101969096525092830160009081208054600160a060020a031916600160a060020a039790971696909617909555505080517f77617350726f787953746f7261676553657400000000000000000000000000008184015281516012818303018152603290910191829052805160019460069490939182918401908083835b602083106113a75780518252601f199092019160209182019101611388565b51815160209384036101000a60001901801990921691161790526040805192909401829003909120865285019590955292909201600020805460ff19169415159490941790935550505050565b66b1a2bc2ec5000090565b6000805b61140b610e71565b8110156114455761141b816124a1565b600160a060020a031683600160a060020a0316141561143d576001915061144a565b600101611403565b600091505b50919050565b600061145a6136ab565b905090565b6040805160008051602061548e833981519152602080830191909152606060020a600160a060020a038087168202602f85015285160260438301528251603781840301815260579092019283905281516000936002938593909282918401908083835b602083106114e15780518252601f1990920191602091820191016114c2565b51815160209384036101000a60001901801990921691161790526040805192909401829003909120865285019590955292909201600020549695505050505050565b600081565b6000600a600060405160200180806000805160206153ee833981519152815250601101905060405160208183030381529060405260405180828051906020019080838360208310610e305780518252601f199092019160209182019101610e11565b6000600a600060405160200180807f6e657756616c696461746f725365740000000000000000000000000000000000815250600f01905060405160208183030381529060405260405180828051906020019080838360208310610e305780518252601f199092019160209182019101610e11565b600f55565b670de0b6b3a764000081565b61161a3382336136bd565b50565b60006006600060405160200180807f6973496e697469616c697a656400000000000000000000000000000000000000815250600d0190506040516020818303038152906040526040518082805190602001908083835b602083106116925780518252601f199092019160209182019101611673565b51815160209384036101000a600019018019909216911617905260408051929094018290039091208652850195909552929092016000205460ff16949350505050565b6116e0333433610cf4565b565b600f54600090156116f65750600f54610e6e565b61145a6137d7565b80600260008460405160200180806000805160206153ce833981519152815250600c0182600160a060020a0316600160a060020a0316606060020a0281526014019150506040516020818303038152906040526040518082805190602001908083835b602083106117805780518252601f199092019160209182019101611761565b51815160209384036101000a60001901801990921691161790526040805192909401829003909120865285019590955292909201600020939093555050505050565b806006600060405160200180807f73686f756c64456d6974496e6974696174654368616e676500000000000000008152506018019050604051602081830303815290604052604051808280519060200190808383602083106113a75780518252601f199092019160209182019101611388565b61183e336130cd565b151561184957600080fd5b670de0b6b3a764000081111561185e57600080fd5b6118666113f4565b81101561187257600080fd5b61161a3382613512565b69021e19e0c9bab240000090565b6000600a6000604051602001808060008051602061546e833981519152815250601101905060405160208183030381529060405260405180828051906020019080838360208310610f365780518252601f199092019160209182019101610f17565b61161a333483610cf4565b6060600a600060405160200180807f6e657756616c696461746f725365740000000000000000000000000000000000815250600f0190506040516020818303038152906040526040518082805190602001908083835b6020831061196c5780518252601f19909201916020918201910161194d565b51815160209384036101000a6000190180199092169116179052604080519290940182900390912086528581019690965250928301600020805484518187028101870190955280855293949093925084019050828280156119f657602002820191906000526020600020905b8154600160a060020a031681526001909101906020018083116119d8575b5050505050905090565b6060600a6000604051602001808060008051602061538e83398151915281525060100190506040516020818303038152906040526040518082805190602001908083836020831061196c5780518252601f19909201916020918201910161194d565b6000611a6e8383613839565b9392505050565b6060806060806000806000611a89896123ab565b94508451604051908082528060200260200182016040528015611ab6578160200160208202803883390190505b509350611ad2611ac461187c565b611acd8b612a56565b613866565b92505b8451821015611b6457611af1611aeb8a84612e21565b8a61145f565b9050611b41670de0b6b3a7640000611b29611b0b8c612765565b670de0b6b3a764000003611b3587611b298e8863ffffffff61387d16565b9063ffffffff6138ab16565b9063ffffffff61387d16565b8483815181101515611b4f57fe5b60209081029091010152600190910190611ad5565b50929791965090945050505050565b603281565b611b81336130cd565b1515611b8c57600080fd5b611b95336113ff565b15611b9f57600080fd5b6116e0336138ce565b670de0b6b3a764000081111561187257600080fd5b611bc6336113ff565b1515611bd157600080fd5b611bd96129d8565b611be233612f7d565b1115611bed57600080fd5b6116e0336138e0565b61138881565b610bb881565b6004600060405160200180807f53595354454d5f41444452455353000000000000000000000000000000000000815250600e0190506040516020818303038152906040526040518082805190602001908083835b60208310611c755780518252601f199092019160209182019101611c56565b51815160209384036101000a6000190180199092169116179052604080519290940182900390912086528501959095529290920160002054600160a060020a031633149250611cc691505057600080fd5b611cce61242d565b15611cd857600080fd5b6000611ce261158a565b1115611d7157611cf8611cf36118f7565b61391c565b7f8564cd629b15f47dc310d45bcbfc9bcf5420b0d51bf0659a16c67f91d2763253611d2161290f565b60408051602080825283518183015283519192839290830191858101910280838360005b83811015611d5d578181015183820152602001611d45565b505050509050019250505060405180910390a15b6116e06001612cae565b61138890565b6004600060405160200180807f6f776e657200000000000000000000000000000000000000000000000000000081525060050190506040516020818303038152906040526040518082805190602001908083835b60208310611df45780518252601f199092019160209182019101611dd5565b51815160209384036101000a6000190180199092169116179052604080519290940182900390912086528501959095529290920160002054600160a060020a031633149250611e4591505057600080fd5b806004600060405160200180807f53595354454d5f41444452455353000000000000000000000000000000000000815250600e0190506040516020818303038152906040526040518082805190602001908083835b60208310611eb95780518252601f199092019160209182019101611e9a565b51815160209384036101000a600019018019909216911617905260408051929094018290039091208652850195909552929092016000208054600160a060020a031916600160a060020a03959095169490941790935550505050565b6000600260008360405160200180806000805160206154ae833981519152815250600b0182600160a060020a0316600160a060020a0316606060020a0281526014019150506040516020818303038152906040526040518082805190602001908083835b60208310611f985780518252601f199092019160209182019101611f79565b51815160209384036101000a600019018019909216911617905260408051929094018290039091208652850195909552929092016000205495945050505050565b6000600260008360405160200180806000805160206153ce833981519152815250600c0182600160a060020a0316600160a060020a0316606060020a02815260140191505060405160208183030381529060405260405180828051906020019080838360208310611f985780518252601f199092019160209182019101611f79565b61e10081565b606061206b612f09565b600160a060020a031663f89d40866040518163ffffffff1660e060020a028152600401602060405180830381600087803b1580156120a857600080fd5b505af11580156120bc573d6000803e3d6000fd5b505050506040513d60208110156120d257600080fd5b5051600160a060020a031633146120e857600080fd5b6120f182613a6f565b6120f96136ab565b1561237d57612106612f09565b600160a060020a0316631986d3766040518163ffffffff1660e060020a028152600401602060405180830381600087803b15801561214357600080fd5b505af1158015612157573d6000803e3d6000fd5b505050506040513d602081101561216d57600080fd5b5051600160a060020a031663bbac62c861218561290f565b6040518263ffffffff1660e060020a0281526004018080602001828103825283818151815260200191508051906020019060200280838360005b838110156121d75781810151838201526020016121bf565b5050505090500192505050600060405180830381600087803b1580156121fc57600080fd5b505af1158015612210573d6000803e3d6000fd5b5050505061221c613b9f565b61222c61222761290f565b613d10565b612234612976565b905060008151111561224957612249816127f9565b600061225361158a565b1115612297576122636000612cae565b61226d60016117c2565b6040517fad8a61077dff62d25ea1bf7cf1af88e1b48075c3d497d494ac9b129b73b0d37c90600090a15b61229f612f09565b600160a060020a031663f89d40866040518163ffffffff1660e060020a028152600401602060405180830381600087803b1580156122dc57600080fd5b505af11580156122f0573d6000803e3d6000fd5b505050506040513d602081101561230657600080fd5b5051604080517fb1f0c8e10000000000000000000000000000000000000000000000000000000081529051600160a060020a039092169163b1f0c8e19160048082019260009290919082900301818387803b15801561236457600080fd5b505af1158015612378573d6000803e3d6000fd5b505050505b5050565b600581565b600a90565b600061145a600161239f6002611b296116e2565b9063ffffffff613df516565b6060600a60008360405160200180806000805160206153ae833981519152815250600a0182600160a060020a0316600160a060020a0316606060020a0281526014019150506040516020818303038152906040526040518082805190602001908083836020831061103f5780518252601f199092019160209182019101611020565b60006006600060405160200180807f697346696e616c697a6564000000000000000000000000000000000000000000815250600b019050604051602081830303815290604052604051808280519060200190808383602083106116925780518252601f199092019160209182019101611673565b6000600a6000604051602001808060008051602061538e833981519152815250601001905060405160208183030381529060405260405180828051906020019080838360208310610f365780518252601f199092019160209182019101610f17565b60006004600060405160200180807f53595354454d5f41444452455353000000000000000000000000000000000000815250600e0190506040516020818303038152906040526040518082805190602001908083835b602083106125785780518252601f199092019160209182019101612559565b51815160209384036101000a6000190180199092169116179052604080519290940182900390912086528501959095529290920160002054600160a060020a0316949350505050565b66b1a2bc2ec5000081565b60006002600060405160200180807f63757272656e744379636c655374617274426c6f636b00000000000000000000815250601601905060405160208183030381529060405260405180828051906020019080838360208310610e305780518252601f199092019160209182019101610e11565b612649336130cd565b151561265457600080fd5b61265c613011565b151561266757600080fd5b600061267161158a565b1161267b57600080fd5b6000194301407f55252fa6eee4741b4e24a74a70e9c11fd2c2281df8d6ea13126ff845f7825c896126aa6118f7565b60408051602080825283518183015283519192839290830191858101910280838360005b838110156126e65781810151838201526020016126ce565b505050509050019250505060405180910390a26116e060006117c2565b600060026000604051602001808060008051602061544e833981519152815250601001905060405160208183030381529060405260405180828051906020019080838360208310610e305780518252601f199092019160209182019101610e11565b6000600260008360405160200180807f76616c696461746f724665650000000000000000000000000000000000000000815250600c0182600160a060020a0316600160a060020a0316606060020a02815260140191505060405160208183030381529060405260405180828051906020019080838360208310611f985780518252601f199092019160209182019101611f79565b80600a600060405160200180807f6e657756616c696461746f725365740000000000000000000000000000000000815250600f0190506040516020818303038152906040526040518082805190602001908083835b6020831061286d5780518252601f19909201916020918201910161284e565b51815160001960209485036101000a0190811690199190911617905260408051949092018490039093208652858301969096525092909301600020845161237d9591945092019190506152c6565b6000805b6128c884612d21565b811015612903576128d98482612e21565b600160a060020a031683600160a060020a031614156128fb5760019150612908565b6001016128bf565b600091505b5092915050565b6060600a6000604051602001808060008051602061546e83398151915281525060110190506040516020818303038152906040526040518082805190602001908083836020831061196c5780518252601f19909201916020918201910161194d565b607890565b6060600a600060405160200180806000805160206153ee83398151915281525060110190506040516020818303038152906040526040518082805190602001908083836020831061196c5780518252601f19909201916020918201910161194d565b60006002600060405160200180807f63757272656e744379636c65456e64426c6f636b000000000000000000000000815250601401905060405160208183030381529060405260405180828051906020019080838360208310610e305780518252601f199092019160209182019101610e11565b606061145a61290f565b60006002600083604051602001808060008051602061542e833981519152815250600b0182600160a060020a0316600160a060020a0316606060020a02815260140191505060405160208183030381529060405260405180828051906020019080838360208310611f985780518252601f199092019160209182019101611f79565b6004600060405160200180807f6f776e657200000000000000000000000000000000000000000000000000000081525060050190506040516020818303038152906040526040518082805190602001908083835b60208310612b4b5780518252601f199092019160209182019101612b2c565b51815160209384036101000a6000190180199092169116179052604080519290940182900390912086528501959095529290920160002054600160a060020a031633149250612b9c91505057600080fd5b612ba461161d565b15612bae57600080fd5b612bcb73fffffffffffffffffffffffffffffffffffffffe611e45565b612bd3613b9f565b600160a060020a0381161515612bf157612bec33613e07565b612bfa565b612bfa81613e07565b612c046001612cae565b61161a6001613e67565b6b019d971e4fe8401e7400000081565b69021e19e0c9bab240000081565b60006002600083604051602001808060008051602061540e833981519152815250600b0182600160a060020a0316600160a060020a0316606060020a02815260140191505060405160208183030381529060405260405180828051906020019080838360208310611f985780518252601f199092019160209182019101611f79565b806006600060405160200180807f697346696e616c697a6564000000000000000000000000000000000000000000815250600b019050604051602081830303815290604052604051808280519060200190808383602083106113a75780518252601f199092019160209182019101611388565b6000600a60008360405160200180806000805160206153ae833981519152815250600a0182600160a060020a0316600160a060020a0316606060020a02815260140191505060405160208183030381529060405260405180828051906020019080838360208310611f985780518252601f199092019160209182019101611f79565b61237d828261332b565b60006002600060405160200180807f6e657874536e617073686f744964000000000000000000000000000000000000815250600e01905060405160208183030381529060405260405180828051906020019080838360208310610e305780518252601f199092019160209182019101610e11565b6000600a60008460405160200180806000805160206153ae833981519152815250600a0182600160a060020a0316600160a060020a0316606060020a0281526014019150506040516020818303038152906040526040518082805190602001908083835b60208310612ea45780518252601f199092019160209182019101612e85565b51815160209384036101000a60001901801990921691161790526040805192909401829003909120865285019590955292909201600020805490935085925082109050612eed57fe5b600091825260209091200154600160a060020a03169392505050565b60006004600060405160200180807f70726f787953746f726167650000000000000000000000000000000000000000815250600c019050604051602081830303815290604052604051808280519060200190808383602083106125785780518252601f199092019160209182019101612559565b6000600260008360405160200180807f72656c65617365426c6f636b0000000000000000000000000000000000000000815250600c0182600160a060020a0316600160a060020a0316606060020a02815260140191505060405160208183030381529060405260405180828051906020019080838360208310611f985780518252601f199092019160209182019101611f79565b60006006600060405160200180807f73686f756c64456d6974496e6974696174654368616e676500000000000000008152506018019050604051602081830303815290604052604051808280519060200190808383602083106116925780518252601f199092019160209182019101611673565b60005b815181101561237d576130ba82828151811015156130a257fe5b90602001906020020151670de0b6b3a764000061332b565b600101613088565b61237d3382846136bd565b6000805b6130d96116e2565b811015611445576130e98161188a565b600160a060020a031683600160a060020a0316141561310b576001915061144a565b6001016130d1565b6000805b61311f611528565b8110156114455761312f81610ed3565b600160a060020a031683600160a060020a03161415613151576001915061144a565b600101613117565b61161a81613eda565b690a968163f0a57b40000090565b6040805160008051602061548e833981519152602080830191909152606060020a600160a060020a038088168202602f850152861602604383015282516037818403018152605790920192839052815161323a93859360029360009391929182918401908083835b602083106131f75780518252601f1990920191602091820191016131d8565b51815160209384036101000a600019018019909216911617905260408051929094018290039091208652850195909552929092016000205493925050613df59050565b6040805160008051602061548e833981519152602080830191909152606060020a600160a060020a038089168202602f850152871602604383015282516037818403018152605790920192839052815160029360009392909182918401908083835b602083106132bb5780518252601f19909201916020918201910161329c565b51815160209384036101000a6000190180199092169116179052604080519290940182900390912086528501959095529290920160002093909355505050600160a060020a038281169084161480159061331c575061331a82846128bb565b155b15610db657610db68383613f3b565b6133af816002600085604051602001808060008051602061542e833981519152815250600b0182600160a060020a0316600160a060020a0316606060020a028152601401915050604051602081830303815290604052604051808280519060200190808383602083106131f75780518252601f1990920191602091820191016131d8565b6002600084604051602001808060008051602061542e833981519152815250600b0182600160a060020a0316600160a060020a0316606060020a028152601401915050604051602081830303815290604052604051808280519060200190808383602083106117805780518252601f199092019160209182019101611761565b613438816113ff565b1561344257600080fd5b600a600060405160200180806000805160206153ee83398151915281525060110190506040516020818303038152906040526040518082805190602001908083835b602083106134a35780518252601f199092019160209182019101613484565b51815160209384036101000a600019018019909216911617905260408051929094018290039091208652858101969096525092909201600090812080546001810182559082529390209092018054600160a060020a031916600160a060020a0394909416939093179092555050565b80600260008460405160200180807f76616c696461746f724665650000000000000000000000000000000000000000815250600c0182600160a060020a0316600160a060020a0316606060020a028152601401915050604051602081830303815290604052604051808280519060200190808383602083106117805780518252601f199092019160209182019101611761565b6136098160026000604051602001808060008051602061544e8339815191528152506010019050604051602081830303815290604052604051808280519060200190808383602083106131f75780518252601f1990920191602091820191016131d8565b60026000604051602001808060008051602061544e83398151915281525060100190506040516020818303038152906040526040518082805190602001908083835b6020831061366a5780518252601f19909201916020918201910161364b565b51815160209384036101000a600019018019909216911617905260408051929094018290039091208652850195909552929092016000209390935550505050565b60006136b56129d8565b431015905090565b6000600160a060020a03821615156136d457600080fd5b600083116136e157600080fd5b6136ea82612a56565b8311156136f657600080fd5b613700848361145f565b83111561370c57600080fd5b613715826130cd565b905061371f61187c565b6137388461372c85612a56565b9063ffffffff61402c16565b1080156137425750805b156137555761375082614043565b6137d1565b613760848385614241565b61376a8284614493565b80156137795761377983614517565b61378161187c565b61378a83612a56565b10156137995761379982614043565b604051600160a060020a0385169084156108fc029085906000818181858888f193505050501580156137cf573d6000803e3d6000fd5b505b50505050565b6000600a6000604051602001808060008051602061546e833981519152815250601101905060405160208183030381529060405260405180828051906020019080838360208310610e305780518252601f199092019160209182019101610e11565b6000611a6e8361239f613852858363ffffffff61402c16565b61385a61457b565b9063ffffffff6145fe16565b6000818310156138765781611a6e565b5090919050565b6000808315156138905760009150612908565b508282028284828115156138a057fe5b0414611a6e57600080fd5b6000808083116138ba57600080fd5b82848115156138c557fe5b04949350505050565b6138d781614043565b61161a8161461f565b6138e98161467f565b6138f161187c565b6138fa82612a56565b1015801561390e575061390c81613113565b155b1561161a5761161a8161342f565b60008080805b84518310156139b65761394b858481518110151561393c57fe5b90602001906020020151612a56565b91508184019350613972858481518110151561396357fe5b90602001906020020151612765565b905061397c6113f4565b8110156139ab576139ab858481518110151561399457fe5b906020019060200201516139a66113f4565b613512565b600190920191613922565b6139bf84613eda565b84600a6000604051602001808060008051602061546e83398151915281525060110190506040516020818303038152906040526040518082805190602001908083835b60208310613a215780518252601f199092019160209182019101613a02565b51815160001960209485036101000a019081169019919091161790526040805194909201849003909320865285830196909652509290930160002084516123789591945092019190506152c6565b600260008260405160200180806000805160206153ce833981519152815250600c0182600160a060020a0316600160a060020a0316606060020a0281526014019150506040516020818303038152906040526040518082805190602001908083835b60208310613af05780518252601f199092019160209182019101613ad1565b51815160209384036101000a600019018019909216911617905260408051929094018290039091208652858101969096525092830160009081205484516000805160206153ce83398151915281880152600160a060020a038816606060020a02602c820152855180820388018152908601958690528051600190920196600296939550909350829184820191819084908490831061366a5780518252601f19909201916020918201910161364b565b436002600060405160200180807f63757272656e744379636c655374617274426c6f636b0000000000000000000081525060160190506040516020818303038152906040526040518082805190602001908083835b60208310613c135780518252601f199092019160209182019101613bf4565b51815160209384036101000a600019018019909216911617905260408051929094018290039091208652850195909552929092016000209390935550613c5b91506129719050565b43016002600060405160200180807f63757272656e744379636c65456e64426c6f636b00000000000000000000000081525060140190506040516020818303038152906040526040518082805190602001908083835b60208310613cd05780518252601f199092019160209182019101613cb1565b51815160209384036101000a6000190180199092169116179052604080519290940182900390912086528501959095529290920160002093909355505050565b600080613d2c612710611b298551611b29610bb8611b35612971565b9150600090505b8251811015610db65781613d5d8483815181101515613d4e57fe5b90602001906020020151611fd9565b1015613d8857613d838382815181101515613d7457fe5b90602001906020020151614825565b613dcd565b613da88382815181101515613d9957fe5b90602001906020020151611f15565b15613dcd57613dcd8382815181101515613dbe57fe5b90602001906020020151614849565b613ded8382815181101515613dde57fe5b90602001906020020151614a88565b600101613d33565b600082820183811015611a6e57600080fd5b600a6000604051602001808060008051602061546e8339815191528152506011019050604051602081830303815290604052604051808280519060200190808383602083106134a35780518252601f199092019160209182019101613484565b806006600060405160200180807f6973496e697469616c697a656400000000000000000000000000000000000000815250600d019050604051602081830303815290604052604051808280519060200190808383602083106113a75780518252601f199092019160209182019101611388565b8060026000604051602001808060008051602061544e83398151915281525060100190506040516020818303038152906040526040518082805190602001908083836020831061366a5780518252601f19909201916020918201910161364b565b600a60008260405160200180806000805160206153ae833981519152815250600a0182600160a060020a0316600160a060020a0316606060020a0281526014019150506040516020818303038152906040526040518082805190602001908083835b60208310613fbc5780518252601f199092019160209182019101613f9d565b51815160209384036101000a600019018019909216911617905260408051929094018290039091208652858101969096525092909201600090812080546001810182559082529390209092018054600160a060020a031916600160a060020a039590951694909417909355505050565b6000808383111561403c57600080fd5b5050900390565b6000808080805b614052611528565b8310156140925761406283610ed3565b600160a060020a031686600160a060020a031614156140875782935060019450614092565b60019092019161404a565b84156123785760016140a2611528565b0391506140ae82610ed3565b9050600160a060020a038116156140c9576140c98482614b0a565b600a600060405160200180806000805160206153ee83398151915281525060110190506040516020818303038152906040526040518082805190602001908083835b6020831061412a5780518252601f19909201916020918201910161410b565b51815160209384036101000a6000190180199092169116179052604080519290940182900390912086528501959095529290920160002080549093508592508210905061417357fe5b600091825260208083209091018054600160a060020a0319169055604080516000805160206153ee83398151915281840152815180820360110181526031909101918290528051600a94939192918291908401908083835b602083106141ea5780518252601f1990920191602091820191016141cb565b51815160001960209485036101000a8101918216911992909216179091526040805195909301859003909420875286019690965250929093016000208054935061423892909150830161532b565b50505050505050565b6040805160008051602061548e833981519152602080830191909152606060020a600160a060020a038088168202602f850152861602604383015282516037818403018152605790920192839052815161430b93859360029360009391929182918401908083835b602083106142c85780518252601f1990920191602091820191016142a9565b51815160209384036101000a60001901801990921691161790526040805192909401829003909120865285019590955292909201600020549392505061402c9050565b6040805160008051602061548e833981519152602080830191909152606060020a600160a060020a038089168202602f850152871602604383015282516037818403018152605790920192839052815160029360009392909182918401908083835b6020831061438c5780518252601f19909201916020918201910161436d565b51815160001960209485036101000a019081169019919091161790526040805194909201849003909320865285830196909652509284016000908120959095555050815160008051602061548e83398151915281830152606060020a600160a060020a038089168202602f84015287160260438201528251603781830301815260579091019283905280516002949391928291908401908083835b602083106144465780518252601f199092019160209182019101614427565b51815160209384036101000a600019018019909216911617905260408051929094018290039091208652850195909552929092016000205415159250610db691505057610db68383614be7565b6133af816002600085604051602001808060008051602061542e833981519152815250600b0182600160a060020a0316600160a060020a0316606060020a028152601401915050604051602081830303815290604052604051808280519060200190808383602083106142c85780518252601f1990920191602091820191016142a9565b6136098160026000604051602001808060008051602061544e8339815191528152506010019050604051602081830303815290604052604051808280519060200190808383602083106142c85780518252601f1990920191602091820191016142a9565b60408051600019430140602080830191909152825180830382018152918301928390528151600093918291908401908083835b602083106145cd5780518252601f1990920191602091820191016145ae565b5181516020939093036101000a60001901801990911692169190911790526040519201829003909120949350505050565b600081151561460c57600080fd5b818381151561461757fe5b069392505050565b600a6000604051602001808060008051602061538e8339815191528152506010019050604051602081830303815290604052604051808280519060200190808383602083106134a35780518252601f199092019160209182019101613484565b6000808080805b61468e610e71565b8310156146ce5761469e836124a1565b600160a060020a031686600160a060020a031614156146c357829350600194506146ce565b600190920191614686565b84156123785760016146de610e71565b0391506146ea826124a1565b9050600160a060020a03811615614705576147058482614e20565b600a6000604051602001808060008051602061538e83398151915281525060100190506040516020818303038152906040526040518082805190602001908083835b602083106147665780518252601f199092019160209182019101614747565b51815160209384036101000a600019018019909216911617905260408051929094018290039091208652850195909552929092016000208054909350859250821090506147af57fe5b600091825260208083209091018054600160a060020a03191690556040805160008051602061538e83398151915281840152815180820360100181526030909101918290528051600a9493919291829190840190808383602083106141ea5780518252601f1990920191602091820191016141cb565b61482e81614043565b6148378161461f565b61484081614e81565b61161a816150c4565b6002600082604051602001808060008051602061540e833981519152815250600b0182600160a060020a0316600160a060020a0316606060020a0281526014019150506040516020818303038152906040526040518082805190602001908083835b602083106148ca5780518252601f1990920191602091820191016148ab565b51815160209384036101000a6000190180199092169116179052604080519290940182900390912086528581019690965250928301600090812054845160008051602061540e83398151915281880152600160a060020a038816606060020a02602b8201528551808203601f018152603f9091019586905280516001909201966002969395509093508291908401908083835b6020831061497c5780518252601f19909201916020918201910161495d565b51815160209384036101000a60001901801990921691161790526040805192909401829003909120865285810196909652509283016000908120959095555050805160008051602061540e83398151915281840152600160a060020a038516606060020a02602b8201528151808203601f018152603f90910191829052805160329460029490939182918401908083835b60208310614a2c5780518252601f199092019160209182019101614a0d565b6001836020036101000a03801982511681845116808217855250505050505090500191505060405180910390206000191660001916815260200190815260200160002054111561161a57614a7f816150c4565b61161a81615146565b6000600260008360405160200180806000805160206153ce833981519152815250600c0182600160a060020a0316600160a060020a0316606060020a0281526014019150506040516020818303038152906040526040518082805190602001908083836020831061366a5780518252601f19909201916020918201910161364b565b80600a600060405160200180806000805160206153ee83398151915281525060110190506040516020818303038152906040526040518082805190602001908083835b60208310614b6c5780518252601f199092019160209182019101614b4d565b51815160209384036101000a60001901801990921691161790526040805192909401829003909120865285019590955292909201600020805490935086925082109050614bb557fe5b9060005260206000200160006101000a815481600160a060020a030219169083600160a060020a031602179055505050565b6000808080805b614bf786612d21565b831015614c3857614c088684612e21565b600160a060020a031687600160a060020a03161415614c2d5782935060019450614c38565b600190920191614bee565b8415614238576001614c4987612d21565b039150614c568683612e21565b9050600160a060020a03811615614c7257614c728685836151c8565b600a60008760405160200180806000805160206153ae833981519152815250600a0182600160a060020a0316600160a060020a0316606060020a0281526014019150506040516020818303038152906040526040518082805190602001908083835b60208310614cf35780518252601f199092019160209182019101614cd4565b51815160209384036101000a60001901801990921691161790526040805192909401829003909120865285019590955292909201600020805490935085925082109050614d3c57fe5b600091825260208083209091018054600160a060020a0319169055604080516000805160206153ae83398151915281840152606060020a600160a060020a038b1602602a8201528151601e818303018152603e909101918290528051600a94939192918291908401908083835b60208310614dc85780518252601f199092019160209182019101614da9565b51815160001960209485036101000a81019182169119929092161790915260408051959093018590039094208752860196909652509290930160002080549350614e1692909150830161532b565b5050505050505050565b80600a6000604051602001808060008051602061538e833981519152815250601001905060405160208183030381529060405260405180828051906020019080838360208310614b6c5780518252601f199092019160209182019101614b4d565b6000600260008360405160200180806000805160206154ae833981519152815250600b0182600160a060020a0316600160a060020a0316606060020a0281526014019150506040516020818303038152906040526040518082805190602001908083835b60208310614f045780518252601f199092019160209182019101614ee5565b6001836020036101000a038019825116818451168082178552505050505050905001915050604051809103902060001916600019168152602001908152602001600020549050614f66600161372c614f5e84611b35612971565b61239f6129d8565b600260008460405160200180807f72656c65617365426c6f636b0000000000000000000000000000000000000000815250600c0182600160a060020a0316600160a060020a0316606060020a0281526014019150506040516020818303038152906040526040518082805190602001908083835b60208310614ff95780518252601f199092019160209182019101614fda565b51815160209384036101000a6000190180199092169116179052604080519290940182900390912086528501959095529290920160002093909355505060058211905061237d5780600101600260008460405160200180806000805160206154ae833981519152815250600b0182600160a060020a0316600160a060020a0316606060020a028152601401915050604051602081830303815290604052604051808280519060200190808383602083106117805780518252601f199092019160209182019101611761565b60006002600083604051602001808060008051602061540e833981519152815250600b0182600160a060020a0316600160a060020a0316606060020a0281526014019150506040516020818303038152906040526040518082805190602001908083836020831061366a5780518252601f19909201916020918201910161364b565b6000600260008360405160200180806000805160206154ae833981519152815250600b0182600160a060020a0316600160a060020a0316606060020a0281526014019150506040516020818303038152906040526040518082805190602001908083836020831061366a5780518252601f19909201916020918201910161364b565b80600a60008560405160200180806000805160206153ae833981519152815250600a0182600160a060020a0316600160a060020a0316606060020a0281526014019150506040516020818303038152906040526040518082805190602001908083835b6020831061524a5780518252601f19909201916020918201910161522b565b51815160209384036101000a6000190180199092169116179052604080519290940182900390912086528501959095529290920160002080549093508692508210905061529357fe5b9060005260206000200160006101000a815481600160a060020a030219169083600160a060020a03160217905550505050565b82805482825590600052602060002090810192821561531b579160200282015b8281111561531b5782518254600160a060020a031916600160a060020a039091161782556020909201916001909101906152e6565b5061532792915061534f565b5090565b815481835581811115610db657600083815260209020610db6918101908301615373565b610e6e91905b80821115615327578054600160a060020a0319168155600101615355565b610e6e91905b80821115615327576000815560010161537956006a61696c656456616c696461746f72730000000000000000000000000000000064656c656761746f727300000000000000000000000000000000000000000000626c6f636b436f756e746572000000000000000000000000000000000000000070656e64696e6756616c696461746f7273000000000000000000000000000000737472696b6552657365740000000000000000000000000000000000000000007374616b65416d6f756e74000000000000000000000000000000000000000000746f74616c5374616b65416d6f756e740000000000000000000000000000000063757272656e7456616c696461746f727300000000000000000000000000000064656c656761746564416d6f756e740000000000000000000000000000000000737472696b65436f756e74000000000000000000000000000000000000000000a165627a7a72305820e1480be1aadb47d544dd789056133f6a1b425303712736701b571783fcfa2ecf0029",
  "linkReferences": {},
  "deployedLinkReferences": {}
}