{
  "_format": "hh-sol-artifact-1",
  "contractName": "Consensus",
  "sourceName": "contracts/Consensus.sol",
  "abi": [
    {
      "constant": true,
      "inputs": [],
      "name": "getLastSnapshotTakenAtBlock",
      "outputs": [
        {
          "name": "",
          "type": "uint256"
        }
      ],
      "payable": false,
      "stateMutability": "view",
      "type": "function"
    },
    {
      "constant": true,
      "inputs": [],
      "name": "jailedValidatorsLength",
      "outputs": [
        {
          "name": "",
          "type": "uint256"
        }
      ],
      "payable": false,
      "stateMutability": "view",
      "type": "function"
    },
    {
      "constant": true,
      "inputs": [
        {
          "name": "_p",
          "type": "uint256"
        }
      ],
      "name": "pendingValidatorsAtPosition",
      "outputs": [
        {
          "name": "",
          "type": "address"
        }
      ],
      "payable": false,
      "stateMutability": "view",
      "type": "function"
    },
    {
      "constant": true,
      "inputs": [
        {
          "name": "_snapshotId",
          "type": "uint256"
        }
      ],
      "name": "getSnapshotAddresses",
      "outputs": [
        {
          "name": "",
          "type": "address[]"
        }
      ],
      "payable": false,
      "stateMutability": "view",
      "type": "function"
    },
    {
      "constant": false,
      "inputs": [
        {
          "name": "_newAddress",
          "type": "address"
        }
      ],
      "name": "setProxyStorage",
      "outputs": [],
      "payable": false,
      "stateMutability": "nonpayable",
      "type": "function"
    },
    {
      "constant": true,
      "inputs": [],
      "name": "getMinValidatorFee",
      "outputs": [
        {
          "name": "",
          "type": "uint256"
        }
      ],
      "payable": false,
      "stateMutability": "pure",
      "type": "function"
    },
    {
      "constant": true,
      "inputs": [
        {
          "name": "_address",
          "type": "address"
        }
      ],
      "name": "isJailed",
      "outputs": [
        {
          "name": "",
          "type": "bool"
        }
      ],
      "payable": false,
      "stateMutability": "view",
      "type": "function"
    },
    {
      "constant": true,
      "inputs": [
        {
          "name": "_address",
          "type": "address"
        },
        {
          "name": "_validator",
          "type": "address"
        }
      ],
      "name": "delegatedAmount",
      "outputs": [
        {
          "name": "",
          "type": "uint256"
        }
      ],
      "payable": false,
      "stateMutability": "view",
      "type": "function"
    },
    {
      "constant": true,
      "inputs": [],
      "name": "SNAPSHOTS_PER_CYCLE",
      "outputs": [
        {
          "name": "",
          "type": "uint256"
        }
      ],
      "payable": false,
      "stateMutability": "view",
      "type": "function"
    },
    {
      "constant": true,
      "inputs": [],
      "name": "pendingValidatorsLength",
      "outputs": [
        {
          "name": "",
          "type": "uint256"
        }
      ],
      "payable": false,
      "stateMutability": "view",
      "type": "function"
    },
    {
      "constant": true,
      "inputs": [],
      "name": "newValidatorSetLength",
      "outputs": [
        {
          "name": "",
          "type": "uint256"
        }
      ],
      "payable": false,
      "stateMutability": "view",
      "type": "function"
    },
    {
      "constant": true,
      "inputs": [],
      "name": "DECIMALS",
      "outputs": [
        {
          "name": "",
          "type": "uint256"
        }
      ],
      "payable": false,
      "stateMutability": "view",
      "type": "function"
    },
    {
      "constant": false,
      "inputs": [
        {
          "name": "_amount",
          "type": "uint256"
        }
      ],
      "name": "withdraw",
      "outputs": [],
      "payable": false,
      "stateMutability": "nonpayable",
      "type": "function"
    },
    {
      "constant": true,
      "inputs": [],
      "name": "isInitialized",
      "outputs": [
        {
          "name": "",
          "type": "bool"
        }
      ],
      "payable": false,
      "stateMutability": "view",
      "type": "function"
    },
    {
      "constant": false,
      "inputs": [],
      "name": "stake",
      "outputs": [],
      "payable": true,
      "stateMutability": "payable",
      "type": "function"
    },
    {
      "constant": true,
      "inputs": [],
      "name": "currentValidatorsLength",
      "outputs": [
        {
          "name": "",
          "type": "uint256"
        }
      ],
      "payable": false,
      "stateMutability": "view",
      "type": "function"
    },
    {
      "constant": false,
      "inputs": [
        {
          "name": "_amount",
          "type": "uint256"
        }
      ],
      "name": "setValidatorFee",
      "outputs": [],
      "payable": false,
      "stateMutability": "nonpayable",
      "type": "function"
    },
    {
      "constant": true,
      "inputs": [],
      "name": "getMinStake",
      "outputs": [
        {
          "name": "",
          "type": "uint256"
        }
      ],
      "payable": false,
      "stateMutability": "pure",
      "type": "function"
    },
    {
      "constant": true,
      "inputs": [
        {
          "name": "_p",
          "type": "uint256"
        }
      ],
      "name": "currentValidatorsAtPosition",
      "outputs": [
        {
          "name": "",
          "type": "address"
        }
      ],
      "payable": false,
      "stateMutability": "view",
      "type": "function"
    },
    {
      "constant": false,
      "inputs": [
        {
          "name": "_validator",
          "type": "address"
        }
      ],
      "name": "delegate",
      "outputs": [],
      "payable": true,
      "stateMutability": "payable",
      "type": "function"
    },
    {
      "constant": true,
      "inputs": [],
      "name": "newValidatorSet",
      "outputs": [
        {
          "name": "",
          "type": "address[]"
        }
      ],
      "payable": false,
      "stateMutability": "view",
      "type": "function"
    },
    {
      "constant": true,
      "inputs": [],
      "name": "jailedValidators",
      "outputs": [
        {
          "name": "",
          "type": "address[]"
        }
      ],
      "payable": false,
      "stateMutability": "view",
      "type": "function"
    },
    {
      "constant": true,
      "inputs": [
        {
          "name": "_validator",
          "type": "address"
        },
        {
          "name": "_rewardAmount",
          "type": "uint256"
        }
      ],
      "name": "getDelegatorsForRewardDistribution",
      "outputs": [
        {
          "name": "",
          "type": "address[]"
        },
        {
          "name": "",
          "type": "uint256[]"
        }
      ],
      "payable": false,
      "stateMutability": "view",
      "type": "function"
    },
    {
      "constant": true,
      "inputs": [],
      "name": "STRIKE_RESET",
      "outputs": [
        {
          "name": "",
          "type": "uint256"
        }
      ],
      "payable": false,
      "stateMutability": "view",
      "type": "function"
    },
    {
      "constant": false,
      "inputs": [],
      "name": "maintenance",
      "outputs": [],
      "payable": false,
      "stateMutability": "nonpayable",
      "type": "function"
    },
    {
      "constant": false,
      "inputs": [],
      "name": "unJail",
      "outputs": [],
      "payable": false,
      "stateMutability": "nonpayable",
      "type": "function"
    },
    {
      "constant": true,
      "inputs": [],
      "name": "MAX_VALIDATORS",
      "outputs": [
        {
          "name": "",
          "type": "uint256"
        }
      ],
      "payable": false,
      "stateMutability": "view",
      "type": "function"
    },
    {
      "constant": true,
      "inputs": [],
      "name": "VALIDATOR_PRODUCTIVITY_BP",
      "outputs": [
        {
          "name": "",
          "type": "uint256"
        }
      ],
      "payable": false,
      "stateMutability": "view",
      "type": "function"
    },
    {
      "constant": false,
      "inputs": [],
      "name": "finalizeChange",
      "outputs": [],
      "payable": false,
      "stateMutability": "nonpayable",
      "type": "function"
    },
    {
      "constant": true,
      "inputs": [],
      "name": "getMaxValidators",
      "outputs": [
        {
          "name": "",
          "type": "uint256"
        }
      ],
      "payable": false,
      "stateMutability": "pure",
      "type": "function"
    },
    {
      "constant": true,
      "inputs": [
        {
          "name": "_validator",
          "type": "address"
        }
      ],
      "name": "getStrikes",
      "outputs": [
        {
          "name": "",
          "type": "uint256"
        }
      ],
      "payable": false,
      "stateMutability": "view",
      "type": "function"
    },
    {
      "constant": true,
      "inputs": [
        {
          "name": "_validator",
          "type": "address"
        }
      ],
      "name": "blockCounter",
      "outputs": [
        {
          "name": "",
          "type": "uint256"
        }
      ],
      "payable": false,
      "stateMutability": "view",
      "type": "function"
    },
    {
      "constant": true,
      "inputs": [],
      "name": "CYCLE_DURATION_BLOCKS",
      "outputs": [
        {
          "name": "",
          "type": "uint256"
        }
      ],
      "payable": false,
      "stateMutability": "view",
      "type": "function"
    },
    {
      "constant": false,
      "inputs": [
        {
          "name": "_validator",
          "type": "address"
        }
      ],
      "name": "cycle",
      "outputs": [],
      "payable": false,
      "stateMutability": "nonpayable",
      "type": "function"
    },
    {
      "constant": true,
      "inputs": [],
      "name": "MAX_STRIKE_COUNT",
      "outputs": [
        {
          "name": "",
          "type": "uint256"
        }
      ],
      "payable": false,
      "stateMutability": "view",
      "type": "function"
    },
    {
      "constant": true,
      "inputs": [],
      "name": "getSnapshotsPerCycle",
      "outputs": [
        {
          "name": "",
          "type": "uint256"
        }
      ],
      "payable": false,
      "stateMutability": "pure",
      "type": "function"
    },
    {
      "constant": true,
      "inputs": [],
      "name": "requiredSignatures",
      "outputs": [
        {
          "name": "",
          "type": "uint256"
        }
      ],
      "payable": false,
      "stateMutability": "view",
      "type": "function"
    },
    {
      "constant": true,
      "inputs": [
        {
          "name": "_validator",
          "type": "address"
        }
      ],
      "name": "delegators",
      "outputs": [
        {
          "name": "",
          "type": "address[]"
        }
      ],
      "payable": false,
      "stateMutability": "view",
      "type": "function"
    },
    {
      "constant": true,
      "inputs": [],
      "name": "isFinalized",
      "outputs": [
        {
          "name": "",
          "type": "bool"
        }
      ],
      "payable": false,
      "stateMutability": "view",
      "type": "function"
    },
    {
      "constant": true,
      "inputs": [
        {
          "name": "_p",
          "type": "uint256"
        }
      ],
      "name": "jailedValidatorsAtPosition",
      "outputs": [
        {
          "name": "",
          "type": "address"
        }
      ],
      "payable": false,
      "stateMutability": "view",
      "type": "function"
    },
    {
      "constant": true,
      "inputs": [],
      "name": "DEFAULT_VALIDATOR_FEE",
      "outputs": [
        {
          "name": "",
          "type": "uint256"
        }
      ],
      "payable": false,
      "stateMutability": "view",
      "type": "function"
    },
    {
      "constant": true,
      "inputs": [],
      "name": "getCurrentCycleStartBlock",
      "outputs": [
        {
          "name": "",
          "type": "uint256"
        }
      ],
      "payable": false,
      "stateMutability": "view",
      "type": "function"
    },
    {
      "constant": false,
      "inputs": [],
      "name": "emitInitiateChange",
      "outputs": [],
      "payable": false,
      "stateMutability": "nonpayable",
      "type": "function"
    },
    {
      "constant": true,
      "inputs": [],
      "name": "totalStakeAmount",
      "outputs": [
        {
          "name": "",
          "type": "uint256"
        }
      ],
      "payable": false,
      "stateMutability": "view",
      "type": "function"
    },
    {
      "constant": true,
      "inputs": [
        {
          "name": "_validator",
          "type": "address"
        }
      ],
      "name": "validatorFee",
      "outputs": [
        {
          "name": "",
          "type": "uint256"
        }
      ],
      "payable": false,
      "stateMutability": "view",
      "type": "function"
    },
    {
      "constant": true,
      "inputs": [
        {
          "name": "_validator",
          "type": "address"
        },
        {
          "name": "_address",
          "type": "address"
        }
      ],
      "name": "isDelegator",
      "outputs": [
        {
          "name": "",
          "type": "bool"
        }
      ],
      "payable": false,
      "stateMutability": "view",
      "type": "function"
    },
    {
      "constant": true,
      "inputs": [],
      "name": "currentValidators",
      "outputs": [
        {
          "name": "",
          "type": "address[]"
        }
      ],
      "payable": false,
      "stateMutability": "view",
      "type": "function"
    },
    {
      "constant": true,
      "inputs": [],
      "name": "getCycleDurationBlocks",
      "outputs": [
        {
          "name": "",
          "type": "uint256"
        }
      ],
      "payable": false,
      "stateMutability": "pure",
      "type": "function"
    },
    {
      "constant": true,
      "inputs": [],
      "name": "pendingValidators",
      "outputs": [
        {
          "name": "",
          "type": "address[]"
        }
      ],
      "payable": false,
      "stateMutability": "view",
      "type": "function"
    },
    {
      "constant": true,
      "inputs": [],
      "name": "getCurrentCycleEndBlock",
      "outputs": [
        {
          "name": "",
          "type": "uint256"
        }
      ],
      "payable": false,
      "stateMutability": "view",
      "type": "function"
    },
    {
      "constant": true,
      "inputs": [],
      "name": "getValidators",
      "outputs": [
        {
          "name": "",
          "type": "address[]"
        }
      ],
      "payable": false,
      "stateMutability": "view",
      "type": "function"
    },
    {
      "constant": true,
      "inputs": [
        {
          "name": "_address",
          "type": "address"
        }
      ],
      "name": "stakeAmount",
      "outputs": [
        {
          "name": "",
          "type": "uint256"
        }
      ],
      "payable": false,
      "stateMutability": "view",
      "type": "function"
    },
    {
      "constant": false,
      "inputs": [
        {
          "name": "_initialValidator",
          "type": "address"
        }
      ],
      "name": "initialize",
      "outputs": [],
      "payable": false,
      "stateMutability": "nonpayable",
      "type": "function"
    },
    {
      "constant": true,
      "inputs": [],
      "name": "MAX_STAKE",
      "outputs": [
        {
          "name": "",
          "type": "uint256"
        }
      ],
      "payable": false,
      "stateMutability": "view",
      "type": "function"
    },
    {
      "constant": true,
      "inputs": [],
      "name": "MIN_STAKE",
      "outputs": [
        {
          "name": "",
          "type": "uint256"
        }
      ],
      "payable": false,
      "stateMutability": "view",
      "type": "function"
    },
    {
      "constant": true,
      "inputs": [
        {
          "name": "_validator",
          "type": "address"
        }
      ],
      "name": "getStrikeReset",
      "outputs": [
        {
          "name": "",
          "type": "uint256"
        }
      ],
      "payable": false,
      "stateMutability": "view",
      "type": "function"
    },
    {
      "constant": true,
      "inputs": [
        {
          "name": "_validator",
          "type": "address"
        }
      ],
      "name": "delegatorsLength",
      "outputs": [
        {
          "name": "",
          "type": "uint256"
        }
      ],
      "payable": false,
      "stateMutability": "view",
      "type": "function"
    },
    {
      "constant": true,
      "inputs": [],
      "name": "getNextSnapshotId",
      "outputs": [
        {
          "name": "",
          "type": "uint256"
        }
      ],
      "payable": false,
      "stateMutability": "view",
      "type": "function"
    },
    {
      "constant": true,
      "inputs": [
        {
          "name": "_validator",
          "type": "address"
        },
        {
          "name": "_p",
          "type": "uint256"
        }
      ],
      "name": "delegatorsAtPosition",
      "outputs": [
        {
          "name": "",
          "type": "address"
        }
      ],
      "payable": false,
      "stateMutability": "view",
      "type": "function"
    },
    {
      "constant": true,
      "inputs": [],
      "name": "getProxyStorage",
      "outputs": [
        {
          "name": "",
          "type": "address"
        }
      ],
      "payable": false,
      "stateMutability": "view",
      "type": "function"
    },
    {
      "constant": true,
      "inputs": [
        {
          "name": "_validator",
          "type": "address"
        }
      ],
      "name": "getReleaseBlock",
      "outputs": [
        {
          "name": "",
          "type": "uint256"
        }
      ],
      "payable": false,
      "stateMutability": "view",
      "type": "function"
    },
    {
      "constant": true,
      "inputs": [],
      "name": "shouldEmitInitiateChange",
      "outputs": [
        {
          "name": "",
          "type": "bool"
        }
      ],
      "payable": false,
      "stateMutability": "view",
      "type": "function"
    },
    {
      "constant": false,
      "inputs": [
        {
          "name": "_validator",
          "type": "address"
        },
        {
          "name": "_amount",
          "type": "uint256"
        }
      ],
      "name": "withdraw",
      "outputs": [],
      "payable": false,
      "stateMutability": "nonpayable",
      "type": "function"
    },
    {
      "constant": true,
      "inputs": [
        {
          "name": "_address",
          "type": "address"
        }
      ],
      "name": "isValidator",
      "outputs": [
        {
          "name": "",
          "type": "bool"
        }
      ],
      "payable": false,
      "stateMutability": "view",
      "type": "function"
    },
    {
      "constant": true,
      "inputs": [
        {
          "name": "_address",
          "type": "address"
        }
      ],
      "name": "isPendingValidator",
      "outputs": [
        {
          "name": "",
          "type": "bool"
        }
      ],
      "payable": false,
      "stateMutability": "view",
      "type": "function"
    },
    {
      "constant": true,
      "inputs": [],
      "name": "getMaxStake",
      "outputs": [
        {
          "name": "",
          "type": "uint256"
        }
      ],
      "payable": false,
      "stateMutability": "pure",
      "type": "function"
    },
    {
      "payable": true,
      "stateMutability": "payable",
      "type": "fallback"
    },
    {
      "anonymous": false,
      "inputs": [
        {
          "indexed": false,
          "name": "newSet",
          "type": "address[]"
        }
      ],
      "name": "ChangeFinalized",
      "type": "event"
    },
    {
      "anonymous": false,
      "inputs": [],
      "name": "ShouldEmitInitiateChange",
      "type": "event"
    },
    {
      "anonymous": false,
      "inputs": [
        {
          "indexed": true,
          "name": "parentHash",
          "type": "bytes32"
        },
        {
          "indexed": false,
          "name": "newSet",
          "type": "address[]"
        }
      ],
      "name": "InitiateChange",
      "type": "event"
    }
  ],
  "bytecode": "0x608060405234801561001057600080fd5b50614f6e806100206000396000f3006080604052600436106102f25763ffffffff60e060020a6000350416630300fc3581146102ff57806308c90076146103265780630fe9d28e1461033b5780631043ca281461036f57806310855269146103d757806310f606e7146103f857806314bfb5271461040d57806321429e6014610442578063256f9193146104695780632a807f151461047e5780632bec36d2146104935780632e0f2625146104a85780632e1a7d4d146104bd578063392e53cd146104d55780633a4b66f1146104ea57806340c9cdeb146104f257806355460f811461050757806356a3b5fa1461051f57806357aeefc5146105345780635c19a95c1461054c5780635ccee1de14610560578063651d8c22146105755780636a28f12f1461058a5780636bdf1d5a146106475780636c376cc51461065c5780636eae5b1114610671578063714897df1461068657806372e81e321461069b57806375286211146106b057806376bd510f146106c55780637b1e52a5146106da5780637d8f7a61146106fb5780637e2bf1201461071c57806385cd8464146107315780638615b171146107525780638bbc1e6b146107675780638d0680431461077c5780638d23fc61146107915780638d4e4083146107b25780638da873f8146107c757806392b391f3146107df578063932781d6146107f457806393b4e25e1461080957806394409a561461081e5780639f77dc3014610833578063a0e1192914610854578063a2cde6091461087b578063a652492314610890578063a82f255b146108a5578063af295181146108ba578063b7ab4db5146108cf578063bf135267146108e4578063c4d66de814610905578063c98517c514610926578063cb1c2b5c1461093b578063d2166ce914610950578063ddb3f48714610971578063e9fbe9d414610992578063eb431b6a146109a7578063ec15a5e6146109cb578063ee19a7fc146109e0578063ef7b6d8914610a01578063f3fef3a314610a16578063facd743b14610a3a578063fb64aac114610a5b578063fe35505b14610a7c575b6102fd333433610a91565b005b34801561030b57600080fd5b50610314610b58565b60408051918252519081900360200190f35b34801561033257600080fd5b50610314610c0e565b34801561034757600080fd5b50610353600435610c70565b60408051600160a060020a039092168252519081900360200190f35b34801561037b57600080fd5b50610387600435610d37565b60408051602080825283518183015283519192839290830191858101910280838360005b838110156103c35781810151838201526020016103ab565b505050509050019250505060405180910390f35b3480156103e357600080fd5b506102fd600160a060020a0360043516610e72565b34801561040457600080fd5b50610314611191565b34801561041957600080fd5b5061042e600160a060020a036004351661119c565b604080519115158252519081900360200190f35b34801561044e57600080fd5b50610314600160a060020a03600435811690602435166111ed565b34801561047557600080fd5b506103146112b1565b34801561048a57600080fd5b506103146112b6565b34801561049f57600080fd5b50610314611318565b3480156104b457600080fd5b5061031461138c565b3480156104c957600080fd5b506102fd600435611398565b3480156104e157600080fd5b5061042e6113a6565b6102fd61145e565b3480156104fe57600080fd5b5061031461146b565b34801561051357600080fd5b506102fd6004356114cd565b34801561052b57600080fd5b50610314611514565b34801561054057600080fd5b50610353600435611522565b6102fd600160a060020a0360043516611584565b34801561056c57600080fd5b5061038761158f565b34801561058157600080fd5b50610387611698565b34801561059657600080fd5b506105ae600160a060020a03600435166024356116fa565b604051808060200180602001838103835285818151815260200191508051906020019060200280838360005b838110156105f25781810151838201526020016105da565b50505050905001838103825284818151815260200191508051906020019060200280838360005b83811015610631578181015183820152602001610619565b5050505090500194505050505060405180910390f35b34801561065357600080fd5b506103146117f8565b34801561066857600080fd5b506102fd6117fd565b34801561067d57600080fd5b506102fd61182d565b34801561069257600080fd5b50610314611866565b3480156106a757600080fd5b5061031461186c565b3480156106bc57600080fd5b506102fd611872565b3480156106d157600080fd5b506103146119eb565b3480156106e657600080fd5b50610314600160a060020a03600435166119f1565b34801561070757600080fd5b50610314600160a060020a0360043516611ab5565b34801561072857600080fd5b50610314611b37565b34801561073d57600080fd5b506102fd600160a060020a0360043516611b3d565b34801561075e57600080fd5b50610314611e5d565b34801561077357600080fd5b50610314611e62565b34801561078857600080fd5b50610314611e67565b34801561079d57600080fd5b50610387600160a060020a0360043516611e8c565b3480156107be57600080fd5b5061042e611f0e565b3480156107d357600080fd5b50610353600435611f82565b3480156107eb57600080fd5b50610314611fe4565b34801561080057600080fd5b50610314611fef565b34801561081557600080fd5b506102fd612063565b34801561082a57600080fd5b50610314612126565b34801561083f57600080fd5b50610314600160a060020a0360043516612188565b34801561086057600080fd5b5061042e600160a060020a036004358116906024351661221c565b34801561088757600080fd5b50610387612270565b34801561089c57600080fd5b506103146122d2565b3480156108b157600080fd5b506103876122d8565b3480156108c657600080fd5b5061031461233a565b3480156108db57600080fd5b506103876123ae565b3480156108f057600080fd5b50610314600160a060020a03600435166123b8565b34801561091157600080fd5b506102fd600160a060020a036004351661243a565b34801561093257600080fd5b50610314612570565b34801561094757600080fd5b50610314612580565b34801561095c57600080fd5b50610314600160a060020a036004351661258e565b34801561097d57600080fd5b50610314600160a060020a0360043516612610565b34801561099e57600080fd5b50610314612692565b3480156109b357600080fd5b50610353600160a060020a0360043516602435612706565b3480156109d757600080fd5b506103536127ee565b3480156109ec57600080fd5b50610314600160a060020a03600435166128ac565b348015610a0d57600080fd5b5061042e612940565b348015610a2257600080fd5b506102fd600160a060020a03600435166024356129b4565b348015610a4657600080fd5b5061042e600160a060020a03600435166129bf565b348015610a6757600080fd5b5061042e600160a060020a0360043516612a05565b348015610a8857600080fd5b50610314612a4b565b600160a060020a0383161515610aa657600080fd5b811515610ab257600080fd5b600160a060020a0381161515610ac757600080fd5b610ad2838284612a5b565b610adc8183612c16565b610ae4612a4b565b610aed826123b8565b1115610af857600080fd5b610b00611514565b610b09826123b8565b10158015610b1d5750610b1b81612a05565b155b15610b3c57610b2b81612d5d565b610b3c8166b1a2bc2ec50000612e40565b610b45816129bf565b15610b5357610b5382612ed3565b505050565b60006002600060405160200180807f6c617374536e617073686f7454616b656e4174426c6f636b000000000000000081525060180190506040516020818303038152906040526040518082805190602001908083835b60208310610bcd5780518252601f199092019160209182019101610bae565b51815160209384036101000a600019018019909216911617905260408051929094018290039091208652850195909552929092016000205493505050505b90565b6000600a60006040516020018080600080516020614e03833981519152815250601001905060405160208183030381529060405260405180828051906020019080838360208310610bcd5780518252601f199092019160209182019101610bae565b6000600a60006040516020018080600080516020614e6383398151915281525060110190506040516020818303038152906040526040518082805190602001908083835b60208310610cd35780518252601f199092019160209182019101610cb4565b51815160209384036101000a60001901801990921691161790526040805192909401829003909120865285019590955292909201600020805490935085925082109050610d1c57fe5b600091825260209091200154600160a060020a031692915050565b6060600a60008360405160200180807f736e617073686f74000000000000000000000000000000000000000000000000815250600801828152602001807f61646472657373657300000000000000000000000000000000000000000000008152506009019150506040516020818303038152906040526040518082805190602001908083835b60208310610ddc5780518252601f199092019160209182019101610dbd565b51815160209384036101000a600019018019909216911617905260408051929094018290039091208652858101969096525092830160002080548451818702810187019095528085529394909392508401905082828015610e6657602002820191906000526020600020905b8154600160a060020a03168152600190910190602001808311610e48575b50505050509050919050565b6004600060405160200180807f6f776e657200000000000000000000000000000000000000000000000000000081525060050190506040516020818303038152906040526040518082805190602001908083835b60208310610ee55780518252601f199092019160209182019101610ec6565b51815160209384036101000a6000190180199092169116179052604080519290940182900390912086528501959095529290920160002054600160a060020a031633149250610f3691505057600080fd5b600160a060020a0381161515610f4b57600080fd5b6006600060405160200180807f77617350726f787953746f72616765536574000000000000000000000000000081525060120190506040516020818303038152906040526040518082805190602001908083835b60208310610fbe5780518252601f199092019160209182019101610f9f565b51815160209384036101000a600019018019909216911617905260408051929094018290039091208652850195909552929092016000205460ff1615925061100891505057600080fd5b806004600060405160200180807f70726f787953746f726167650000000000000000000000000000000000000000815250600c0190506040516020818303038152906040526040518082805190602001908083835b6020831061107c5780518252601f19909201916020918201910161105d565b51815160209384036101000a600019018019909216911617905260408051929094018290039091208652858101969096525092830160009081208054600160a060020a031916600160a060020a039790971696909617909555505080517f77617350726f787953746f7261676553657400000000000000000000000000008184015281516012818303018152603290910191829052805160019460069490939182918401908083835b602083106111445780518252601f199092019160209182019101611125565b51815160209384036101000a60001901801990921691161790526040805192909401829003909120865285019590955292909201600020805460ff19169415159490941790935550505050565b66b1a2bc2ec5000090565b6000805b6111a8610c0e565b8110156111e2576111b881611f82565b600160a060020a031683600160a060020a031614156111da57600191506111e7565b6001016111a0565b600091505b50919050565b60408051600080516020614f03833981519152602080830191909152606060020a600160a060020a038087168202602f85015285160260438301528251603781840301815260579092019283905281516000936002938593909282918401908083835b6020831061126f5780518252601f199092019160209182019101611250565b51815160209384036101000a60001901801990921691161790526040805192909401829003909120865285019590955292909201600020549695505050505050565b600081565b6000600a60006040516020018080600080516020614e63833981519152815250601101905060405160208183030381529060405260405180828051906020019080838360208310610bcd5780518252601f199092019160209182019101610bae565b6000600a600060405160200180807f6e657756616c696461746f725365740000000000000000000000000000000000815250600f01905060405160208183030381529060405260405180828051906020019080838360208310610bcd5780518252601f199092019160209182019101610bae565b670de0b6b3a764000081565b6113a3338233612fd9565b50565b60006006600060405160200180807f6973496e697469616c697a656400000000000000000000000000000000000000815250600d0190506040516020818303038152906040526040518082805190602001908083835b6020831061141b5780518252601f1990920191602091820191016113fc565b51815160209384036101000a600019018019909216911617905260408051929094018290039091208652850195909552929092016000205460ff16949350505050565b611469333433610a91565b565b6000600a60006040516020018080600080516020614ee3833981519152815250601101905060405160208183030381529060405260405180828051906020019080838360208310610bcd5780518252601f199092019160209182019101610bae565b6114d6336129bf565b15156114e157600080fd5b670de0b6b3a76400008111156114f657600080fd5b6114fe611191565b81101561150a57600080fd5b6113a33382612e40565b69021e19e0c9bab240000090565b6000600a60006040516020018080600080516020614ee3833981519152815250601101905060405160208183030381529060405260405180828051906020019080838360208310610cd35780518252601f199092019160209182019101610cb4565b6113a3333483610a91565b6060600a600060405160200180807f6e657756616c696461746f725365740000000000000000000000000000000000815250600f0190506040516020818303038152906040526040518082805190602001908083835b602083106116045780518252601f1990920191602091820191016115e5565b51815160209384036101000a60001901801990921691161790526040805192909401829003909120865285810196909652509283016000208054845181870281018701909552808552939490939250840190508282801561168e57602002820191906000526020600020905b8154600160a060020a03168152600190910190602001808311611670575b5050505050905090565b6060600a60006040516020018080600080516020614e038339815191528152506010019050604051602081830303815290604052604051808280519060200190808383602083106116045780518252601f1990920191602091820191016115e5565b606080606080600080600061170e89611e8c565b9450845160405190808252806020026020018201604052801561173b578160200160208202803883390190505b509350611757611749611514565b6117528b6123b8565b6130f3565b92505b84518210156117e9576117766117708a84612706565b8a6111ed565b90506117c6670de0b6b3a76400006117ae6117908c612188565b670de0b6b3a7640000036117ba876117ae8e8863ffffffff61310c16565b9063ffffffff61313a16565b9063ffffffff61310c16565b84838151811015156117d457fe5b6020908102909101015260019091019061175a565b50929791965090945050505050565b603281565b611806336129bf565b151561181157600080fd5b61181a3361119c565b1561182457600080fd5b6114693361315d565b6118363361119c565b151561184157600080fd5b61184961233a565b611852336128ac565b111561185d57600080fd5b6114693361316f565b61138881565b610bb881565b6004600060405160200180807f53595354454d5f41444452455353000000000000000000000000000000000000815250600e0190506040516020818303038152906040526040518082805190602001908083835b602083106118e55780518252601f1990920191602091820191016118c6565b51815160209384036101000a6000190180199092169116179052604080519290940182900390912086528501959095529290920160002054600160a060020a03163314925061193691505057600080fd5b61193e611f0e565b1561194857600080fd5b6000611952611318565b11156119e15761196861196361158f565b6131ab565b7f8564cd629b15f47dc310d45bcbfc9bcf5420b0d51bf0659a16c67f91d2763253611991612270565b60408051602080825283518183015283519192839290830191858101910280838360005b838110156119cd5781810151838201526020016119b5565b505050509050019250505060405180910390a15b61146960016132fe565b61138890565b600060026000836040516020018080600080516020614f23833981519152815250600b0182600160a060020a0316600160a060020a0316606060020a0281526014019150506040516020818303038152906040526040518082805190602001908083835b60208310611a745780518252601f199092019160209182019101611a55565b51815160209384036101000a600019018019909216911617905260408051929094018290039091208652850195909552929092016000205495945050505050565b600060026000836040516020018080600080516020614e43833981519152815250600c0182600160a060020a0316600160a060020a0316606060020a02815260140191505060405160208183030381529060405260405180828051906020019080838360208310611a745780518252601f199092019160209182019101611a55565b61e10081565b6060611b476127ee565b600160a060020a031663f89d40866040518163ffffffff1660e060020a028152600401602060405180830381600087803b158015611b8457600080fd5b505af1158015611b98573d6000803e3d6000fd5b505050506040513d6020811015611bae57600080fd5b5051600160a060020a03163314611bc457600080fd5b611bcd82613371565b611bd56134a1565b15611e5957611be26127ee565b600160a060020a0316631986d3766040518163ffffffff1660e060020a028152600401602060405180830381600087803b158015611c1f57600080fd5b505af1158015611c33573d6000803e3d6000fd5b505050506040513d6020811015611c4957600080fd5b5051600160a060020a031663bbac62c8611c61612270565b6040518263ffffffff1660e060020a0281526004018080602001828103825283818151815260200191508051906020019060200280838360005b83811015611cb3578181015183820152602001611c9b565b5050505090500192505050600060405180830381600087803b158015611cd857600080fd5b505af1158015611cec573d6000803e3d6000fd5b50505050611cf86134b3565b611d08611d03612270565b613624565b611d106122d8565b9050600081511115611d2557611d2581613709565b6000611d2f611318565b1115611d7357611d3f60006132fe565b611d4960016137cb565b6040517fad8a61077dff62d25ea1bf7cf1af88e1b48075c3d497d494ac9b129b73b0d37c90600090a15b611d7b6127ee565b600160a060020a031663f89d40866040518163ffffffff1660e060020a028152600401602060405180830381600087803b158015611db857600080fd5b505af1158015611dcc573d6000803e3d6000fd5b505050506040513d6020811015611de257600080fd5b5051604080517fb1f0c8e10000000000000000000000000000000000000000000000000000000081529051600160a060020a039092169163b1f0c8e19160048082019260009290919082900301818387803b158015611e4057600080fd5b505af1158015611e54573d6000803e3d6000fd5b505050505b5050565b600581565b600090565b6000611e876001611e7b60026117ae61146b565b9063ffffffff61383e16565b905090565b6060600a6000836040516020018080600080516020614e23833981519152815250600a0182600160a060020a0316600160a060020a0316606060020a02815260140191505060405160208183030381529060405260405180828051906020019080838360208310610ddc5780518252601f199092019160209182019101610dbd565b60006006600060405160200180807f697346696e616c697a6564000000000000000000000000000000000000000000815250600b0190506040516020818303038152906040526040518082805190602001908083836020831061141b5780518252601f1990920191602091820191016113fc565b6000600a60006040516020018080600080516020614e03833981519152815250601001905060405160208183030381529060405260405180828051906020019080838360208310610cd35780518252601f199092019160209182019101610cb4565b66b1a2bc2ec5000081565b60006002600060405160200180807f63757272656e744379636c655374617274426c6f636b00000000000000000000815250601601905060405160208183030381529060405260405180828051906020019080838360208310610bcd5780518252601f199092019160209182019101610bae565b61206c336129bf565b151561207757600080fd5b61207f612940565b151561208a57600080fd5b6000612094611318565b1161209e57600080fd5b6000194301407f55252fa6eee4741b4e24a74a70e9c11fd2c2281df8d6ea13126ff845f7825c896120cd61158f565b60408051602080825283518183015283519192839290830191858101910280838360005b838110156121095781810151838201526020016120f1565b505050509050019250505060405180910390a261146960006137cb565b6000600260006040516020018080600080516020614ec3833981519152815250601001905060405160208183030381529060405260405180828051906020019080838360208310610bcd5780518252601f199092019160209182019101610bae565b6000600260008360405160200180807f76616c696461746f724665650000000000000000000000000000000000000000815250600c0182600160a060020a0316600160a060020a0316606060020a02815260140191505060405160208183030381529060405260405180828051906020019080838360208310611a745780518252601f199092019160209182019101611a55565b6000805b61222984612610565b8110156122645761223a8482612706565b600160a060020a031683600160a060020a0316141561225c5760019150612269565b600101612220565b600091505b5092915050565b6060600a60006040516020018080600080516020614ee38339815191528152506011019050604051602081830303815290604052604051808280519060200190808383602083106116045780518252601f1990920191602091820191016115e5565b61e10090565b6060600a60006040516020018080600080516020614e638339815191528152506011019050604051602081830303815290604052604051808280519060200190808383602083106116045780518252601f1990920191602091820191016115e5565b60006002600060405160200180807f63757272656e744379636c65456e64426c6f636b000000000000000000000000815250601401905060405160208183030381529060405260405180828051906020019080838360208310610bcd5780518252601f199092019160209182019101610bae565b6060611e87612270565b600060026000836040516020018080600080516020614ea3833981519152815250600b0182600160a060020a0316600160a060020a0316606060020a02815260140191505060405160208183030381529060405260405180828051906020019080838360208310611a745780518252601f199092019160209182019101611a55565b6004600060405160200180807f6f776e657200000000000000000000000000000000000000000000000000000081525060050190506040516020818303038152906040526040518082805190602001908083835b602083106124ad5780518252601f19909201916020918201910161248e565b51815160209384036101000a6000190180199092169116179052604080519290940182900390912086528501959095529290920160002054600160a060020a0316331492506124fe91505057600080fd5b6125066113a6565b1561251057600080fd5b61252d73fffffffffffffffffffffffffffffffffffffffe613850565b6125356134b3565b600160a060020a03811615156125535761254e33613920565b61255c565b61255c81613920565b61256660016132fe565b6113a36001613980565b6b019d971e4fe8401e7400000081565b69021e19e0c9bab240000081565b600060026000836040516020018080600080516020614e83833981519152815250600b0182600160a060020a0316600160a060020a0316606060020a02815260140191505060405160208183030381529060405260405180828051906020019080838360208310611a745780518252601f199092019160209182019101611a55565b6000600a6000836040516020018080600080516020614e23833981519152815250600a0182600160a060020a0316600160a060020a0316606060020a02815260140191505060405160208183030381529060405260405180828051906020019080838360208310611a745780518252601f199092019160209182019101611a55565b60006002600060405160200180807f6e657874536e617073686f744964000000000000000000000000000000000000815250600e01905060405160208183030381529060405260405180828051906020019080838360208310610bcd5780518252601f199092019160209182019101610bae565b6000600a6000846040516020018080600080516020614e23833981519152815250600a0182600160a060020a0316600160a060020a0316606060020a0281526014019150506040516020818303038152906040526040518082805190602001908083835b602083106127895780518252601f19909201916020918201910161276a565b51815160209384036101000a600019018019909216911617905260408051929094018290039091208652850195909552929092016000208054909350859250821090506127d257fe5b600091825260209091200154600160a060020a03169392505050565b60006004600060405160200180807f70726f787953746f726167650000000000000000000000000000000000000000815250600c0190506040516020818303038152906040526040518082805190602001908083835b602083106128635780518252601f199092019160209182019101612844565b51815160209384036101000a6000190180199092169116179052604080519290940182900390912086528501959095529290920160002054600160a060020a0316949350505050565b6000600260008360405160200180807f72656c65617365426c6f636b0000000000000000000000000000000000000000815250600c0182600160a060020a0316600160a060020a0316606060020a02815260140191505060405160208183030381529060405260405180828051906020019080838360208310611a745780518252601f199092019160209182019101611a55565b60006006600060405160200180807f73686f756c64456d6974496e6974696174654368616e6765000000000000000081525060180190506040516020818303038152906040526040518082805190602001908083836020831061141b5780518252601f1990920191602091820191016113fc565b611e59338284612fd9565b6000805b6129cb61146b565b8110156111e2576129db81611522565b600160a060020a031683600160a060020a031614156129fd57600191506111e7565b6001016129c3565b6000805b612a116112b6565b8110156111e257612a2181610c70565b600160a060020a031683600160a060020a03161415612a4357600191506111e7565b600101612a09565b6b019d971e4fe8401e7400000090565b60408051600080516020614f03833981519152602080830191909152606060020a600160a060020a038088168202602f8501528616026043830152825160378184030181526057909201928390528151612b2593859360029360009391929182918401908083835b60208310612ae25780518252601f199092019160209182019101612ac3565b51815160209384036101000a60001901801990921691161790526040805192909401829003909120865285019590955292909201600020549392505061383e9050565b60408051600080516020614f03833981519152602080830191909152606060020a600160a060020a038089168202602f850152871602604383015282516037818403018152605790920192839052815160029360009392909182918401908083835b60208310612ba65780518252601f199092019160209182019101612b87565b51815160209384036101000a6000190180199092169116179052604080519290940182900390912086528501959095529290920160002093909355505050600160a060020a0382811690841614801590612c075750612c05828461221c565b155b15610b5357610b5383836139f3565b612c9a8160026000856040516020018080600080516020614ea3833981519152815250600b0182600160a060020a0316600160a060020a0316606060020a02815260140191505060405160208183030381529060405260405180828051906020019080838360208310612ae25780518252601f199092019160209182019101612ac3565b60026000846040516020018080600080516020614ea3833981519152815250600b0182600160a060020a0316600160a060020a0316606060020a0281526014019150506040516020818303038152906040526040518082805190602001908083835b60208310612d1b5780518252601f199092019160209182019101612cfc565b51815160209384036101000a60001901801990921691161790526040805192909401829003909120865285019590955292909201600020939093555050505050565b612d668161119c565b15612d7057600080fd5b600a60006040516020018080600080516020614e6383398151915281525060110190506040516020818303038152906040526040518082805190602001908083835b60208310612dd15780518252601f199092019160209182019101612db2565b51815160209384036101000a600019018019909216911617905260408051929094018290039091208652858101969096525092909201600090812080546001810182559082529390209092018054600160a060020a031916600160a060020a0394909416939093179092555050565b80600260008460405160200180807f76616c696461746f724665650000000000000000000000000000000000000000815250600c0182600160a060020a0316600160a060020a0316606060020a02815260140191505060405160208183030381529060405260405180828051906020019080838360208310612d1b5780518252601f199092019160209182019101612cfc565b612f3781600260006040516020018080600080516020614ec3833981519152815250601001905060405160208183030381529060405260405180828051906020019080838360208310612ae25780518252601f199092019160209182019101612ac3565b600260006040516020018080600080516020614ec383398151915281525060100190506040516020818303038152906040526040518082805190602001908083835b60208310612f985780518252601f199092019160209182019101612f79565b51815160209384036101000a600019018019909216911617905260408051929094018290039091208652850195909552929092016000209390935550505050565b6000600160a060020a0382161515612ff057600080fd5b60008311612ffd57600080fd5b613006826123b8565b83111561301257600080fd5b61301c84836111ed565b83111561302857600080fd5b613031826129bf565b905061303b611514565b61305484613048856123b8565b9063ffffffff613ae416565b10801561305e5750805b156130715761306c82613afb565b6130ed565b61307c848385613cf9565b6130868284613f4b565b80156130955761309583613fcf565b61309d611514565b6130a6836123b8565b10156130b5576130b582613afb565b604051600160a060020a0385169084156108fc029085906000818181858888f193505050501580156130eb573d6000803e3d6000fd5b505b50505050565b6000818310156131035781613105565b825b9392505050565b60008083151561311f5760009150612269565b5082820282848281151561312f57fe5b041461310557600080fd5b60008080831161314957600080fd5b828481151561315457fe5b04949350505050565b61316681613afb565b6113a381614033565b61317881614093565b613180611514565b613189826123b8565b1015801561319d575061319b81612a05565b155b156113a3576113a381612d5d565b60008080805b8451831015613245576131da85848151811015156131cb57fe5b906020019060200201516123b8565b9150818401935061320185848151811015156131f257fe5b90602001906020020151612188565b905061320b611191565b81101561323a5761323a858481518110151561322357fe5b90602001906020020151613235611191565b612e40565b6001909201916131b1565b61324e84614239565b84600a60006040516020018080600080516020614ee383398151915281525060110190506040516020818303038152906040526040518082805190602001908083835b602083106132b05780518252601f199092019160209182019101613291565b51815160001960209485036101000a01908116901991909116179052604080519490920184900390932086528583019690965250929093016000208451611e54959194509201919050614d3b565b806006600060405160200180807f697346696e616c697a6564000000000000000000000000000000000000000000815250600b019050604051602081830303815290604052604051808280519060200190808383602083106111445780518252601f199092019160209182019101611125565b60026000826040516020018080600080516020614e43833981519152815250600c0182600160a060020a0316600160a060020a0316606060020a0281526014019150506040516020818303038152906040526040518082805190602001908083835b602083106133f25780518252601f1990920191602091820191016133d3565b51815160209384036101000a60001901801990921691161790526040805192909401829003909120865285810196909652509283016000908120548451600080516020614e4383398151915281880152600160a060020a038816606060020a02602c8201528551808203880181529086019586905280516001909201966002969395509093508291848201918190849084908310612f985780518252601f199092019160209182019101612f79565b60006134ab61233a565b431015905090565b436002600060405160200180807f63757272656e744379636c655374617274426c6f636b0000000000000000000081525060160190506040516020818303038152906040526040518082805190602001908083835b602083106135275780518252601f199092019160209182019101613508565b51815160209384036101000a60001901801990921691161790526040805192909401829003909120865285019590955292909201600020939093555061356f91506122d29050565b43016002600060405160200180807f63757272656e744379636c65456e64426c6f636b00000000000000000000000081525060140190506040516020818303038152906040526040518082805190602001908083835b602083106135e45780518252601f1990920191602091820191016135c5565b51815160209384036101000a6000190180199092169116179052604080519290940182900390912086528501959095529290920160002093909355505050565b6000806136406127106117ae85516117ae610bb86117ba6122d2565b9150600090505b8251811015610b535781613671848381518110151561366257fe5b90602001906020020151611ab5565b101561369c57613697838281518110151561368857fe5b9060200190602002015161429a565b6136e1565b6136bc83828151811015156136ad57fe5b906020019060200201516119f1565b156136e1576136e183828151811015156136d257fe5b906020019060200201516142be565b61370183828151811015156136f257fe5b906020019060200201516144fd565b600101613647565b80600a600060405160200180807f6e657756616c696461746f725365740000000000000000000000000000000000815250600f0190506040516020818303038152906040526040518082805190602001908083835b6020831061377d5780518252601f19909201916020918201910161375e565b51815160001960209485036101000a01908116901991909116179052604080519490920184900390932086528583019690965250929093016000208451611e59959194509201919050614d3b565b806006600060405160200180807f73686f756c64456d6974496e6974696174654368616e676500000000000000008152506018019050604051602081830303815290604052604051808280519060200190808383602083106111445780518252601f199092019160209182019101611125565b60008282018381101561310557600080fd5b806004600060405160200180807f53595354454d5f41444452455353000000000000000000000000000000000000815250600e0190506040516020818303038152906040526040518082805190602001908083835b602083106138c45780518252601f1990920191602091820191016138a5565b51815160209384036101000a600019018019909216911617905260408051929094018290039091208652850195909552929092016000208054600160a060020a031916600160a060020a03959095169490941790935550505050565b600a60006040516020018080600080516020614ee3833981519152815250601101905060405160208183030381529060405260405180828051906020019080838360208310612dd15780518252601f199092019160209182019101612db2565b806006600060405160200180807f6973496e697469616c697a656400000000000000000000000000000000000000815250600d019050604051602081830303815290604052604051808280519060200190808383602083106111445780518252601f199092019160209182019101611125565b600a6000826040516020018080600080516020614e23833981519152815250600a0182600160a060020a0316600160a060020a0316606060020a0281526014019150506040516020818303038152906040526040518082805190602001908083835b60208310613a745780518252601f199092019160209182019101613a55565b51815160209384036101000a600019018019909216911617905260408051929094018290039091208652858101969096525092909201600090812080546001810182559082529390209092018054600160a060020a031916600160a060020a039590951694909417909355505050565b60008083831115613af457600080fd5b5050900390565b6000808080805b613b0a6112b6565b831015613b4a57613b1a83610c70565b600160a060020a031686600160a060020a03161415613b3f5782935060019450613b4a565b600190920191613b02565b8415611e54576001613b5a6112b6565b039150613b6682610c70565b9050600160a060020a03811615613b8157613b81848261457f565b600a60006040516020018080600080516020614e6383398151915281525060110190506040516020818303038152906040526040518082805190602001908083835b60208310613be25780518252601f199092019160209182019101613bc3565b51815160209384036101000a60001901801990921691161790526040805192909401829003909120865285019590955292909201600020805490935085925082109050613c2b57fe5b600091825260208083209091018054600160a060020a031916905560408051600080516020614e6383398151915281840152815180820360110181526031909101918290528051600a94939192918291908401908083835b60208310613ca25780518252601f199092019160209182019101613c83565b51815160001960209485036101000a81019182169119929092161790915260408051959093018590039094208752860196909652509290930160002080549350613cf0929091508301614da0565b50505050505050565b60408051600080516020614f03833981519152602080830191909152606060020a600160a060020a038088168202602f8501528616026043830152825160378184030181526057909201928390528151613dc393859360029360009391929182918401908083835b60208310613d805780518252601f199092019160209182019101613d61565b51815160209384036101000a600019018019909216911617905260408051929094018290039091208652850195909552929092016000205493925050613ae49050565b60408051600080516020614f03833981519152602080830191909152606060020a600160a060020a038089168202602f850152871602604383015282516037818403018152605790920192839052815160029360009392909182918401908083835b60208310613e445780518252601f199092019160209182019101613e25565b51815160001960209485036101000a0190811690199190911617905260408051949092018490039093208652858301969096525092840160009081209590955550508151600080516020614f0383398151915281830152606060020a600160a060020a038089168202602f84015287160260438201528251603781830301815260579091019283905280516002949391928291908401908083835b60208310613efe5780518252601f199092019160209182019101613edf565b51815160209384036101000a600019018019909216911617905260408051929094018290039091208652850195909552929092016000205415159250610b5391505057610b53838361465c565b612c9a8160026000856040516020018080600080516020614ea3833981519152815250600b0182600160a060020a0316600160a060020a0316606060020a02815260140191505060405160208183030381529060405260405180828051906020019080838360208310613d805780518252601f199092019160209182019101613d61565b612f3781600260006040516020018080600080516020614ec3833981519152815250601001905060405160208183030381529060405260405180828051906020019080838360208310613d805780518252601f199092019160209182019101613d61565b600a60006040516020018080600080516020614e03833981519152815250601001905060405160208183030381529060405260405180828051906020019080838360208310612dd15780518252601f199092019160209182019101612db2565b6000808080805b6140a2610c0e565b8310156140e2576140b283611f82565b600160a060020a031686600160a060020a031614156140d757829350600194506140e2565b60019092019161409a565b8415611e545760016140f2610c0e565b0391506140fe82611f82565b9050600160a060020a03811615614119576141198482614895565b600a60006040516020018080600080516020614e0383398151915281525060100190506040516020818303038152906040526040518082805190602001908083835b6020831061417a5780518252601f19909201916020918201910161415b565b51815160209384036101000a600019018019909216911617905260408051929094018290039091208652850195909552929092016000208054909350859250821090506141c357fe5b600091825260208083209091018054600160a060020a031916905560408051600080516020614e0383398151915281840152815180820360100181526030909101918290528051600a949391929182919084019080838360208310613ca25780518252601f199092019160209182019101613c83565b80600260006040516020018080600080516020614ec3833981519152815250601001905060405160208183030381529060405260405180828051906020019080838360208310612f985780518252601f199092019160209182019101612f79565b6142a381613afb565b6142ac81614033565b6142b5816148f6565b6113a381614b39565b60026000826040516020018080600080516020614e83833981519152815250600b0182600160a060020a0316600160a060020a0316606060020a0281526014019150506040516020818303038152906040526040518082805190602001908083835b6020831061433f5780518252601f199092019160209182019101614320565b51815160209384036101000a60001901801990921691161790526040805192909401829003909120865285810196909652509283016000908120548451600080516020614e8383398151915281880152600160a060020a038816606060020a02602b8201528551808203601f018152603f9091019586905280516001909201966002969395509093508291908401908083835b602083106143f15780518252601f1990920191602091820191016143d2565b51815160209384036101000a600019018019909216911617905260408051929094018290039091208652858101969096525092830160009081209590955550508051600080516020614e8383398151915281840152600160a060020a038516606060020a02602b8201528151808203601f018152603f90910191829052805160329460029490939182918401908083835b602083106144a15780518252601f199092019160209182019101614482565b6001836020036101000a0380198251168184511680821785525050505050509050019150506040518091039020600019166000191681526020019081526020016000205411156113a3576144f481614b39565b6113a381614bbb565b600060026000836040516020018080600080516020614e43833981519152815250600c0182600160a060020a0316600160a060020a0316606060020a02815260140191505060405160208183030381529060405260405180828051906020019080838360208310612f985780518252601f199092019160209182019101612f79565b80600a60006040516020018080600080516020614e6383398151915281525060110190506040516020818303038152906040526040518082805190602001908083835b602083106145e15780518252601f1990920191602091820191016145c2565b51815160209384036101000a6000190180199092169116179052604080519290940182900390912086528501959095529290920160002080549093508692508210905061462a57fe5b9060005260206000200160006101000a815481600160a060020a030219169083600160a060020a031602179055505050565b6000808080805b61466c86612610565b8310156146ad5761467d8684612706565b600160a060020a031687600160a060020a031614156146a257829350600194506146ad565b600190920191614663565b8415613cf05760016146be87612610565b0391506146cb8683612706565b9050600160a060020a038116156146e7576146e7868583614c3d565b600a6000876040516020018080600080516020614e23833981519152815250600a0182600160a060020a0316600160a060020a0316606060020a0281526014019150506040516020818303038152906040526040518082805190602001908083835b602083106147685780518252601f199092019160209182019101614749565b51815160209384036101000a600019018019909216911617905260408051929094018290039091208652850195909552929092016000208054909350859250821090506147b157fe5b600091825260208083209091018054600160a060020a031916905560408051600080516020614e2383398151915281840152606060020a600160a060020a038b1602602a8201528151601e818303018152603e909101918290528051600a94939192918291908401908083835b6020831061483d5780518252601f19909201916020918201910161481e565b51815160001960209485036101000a8101918216911992909216179091526040805195909301859003909420875286019690965250929093016000208054935061488b929091508301614da0565b5050505050505050565b80600a60006040516020018080600080516020614e038339815191528152506010019050604051602081830303815290604052604051808280519060200190808383602083106145e15780518252601f1990920191602091820191016145c2565b600060026000836040516020018080600080516020614f23833981519152815250600b0182600160a060020a0316600160a060020a0316606060020a0281526014019150506040516020818303038152906040526040518082805190602001908083835b602083106149795780518252601f19909201916020918201910161495a565b6001836020036101000a0380198251168184511680821785525050505050509050019150506040518091039020600019166000191681526020019081526020016000205490506149db60016130486149d3846117ba6122d2565b611e7b61233a565b600260008460405160200180807f72656c65617365426c6f636b0000000000000000000000000000000000000000815250600c0182600160a060020a0316600160a060020a0316606060020a0281526014019150506040516020818303038152906040526040518082805190602001908083835b60208310614a6e5780518252601f199092019160209182019101614a4f565b51815160209384036101000a60001901801990921691161790526040805192909401829003909120865285019590955292909201600020939093555050600582119050611e59578060010160026000846040516020018080600080516020614f23833981519152815250600b0182600160a060020a0316600160a060020a0316606060020a02815260140191505060405160208183030381529060405260405180828051906020019080838360208310612d1b5780518252601f199092019160209182019101612cfc565b600060026000836040516020018080600080516020614e83833981519152815250600b0182600160a060020a0316600160a060020a0316606060020a02815260140191505060405160208183030381529060405260405180828051906020019080838360208310612f985780518252601f199092019160209182019101612f79565b600060026000836040516020018080600080516020614f23833981519152815250600b0182600160a060020a0316600160a060020a0316606060020a02815260140191505060405160208183030381529060405260405180828051906020019080838360208310612f985780518252601f199092019160209182019101612f79565b80600a6000856040516020018080600080516020614e23833981519152815250600a0182600160a060020a0316600160a060020a0316606060020a0281526014019150506040516020818303038152906040526040518082805190602001908083835b60208310614cbf5780518252601f199092019160209182019101614ca0565b51815160209384036101000a60001901801990921691161790526040805192909401829003909120865285019590955292909201600020805490935086925082109050614d0857fe5b9060005260206000200160006101000a815481600160a060020a030219169083600160a060020a03160217905550505050565b828054828255906000526020600020908101928215614d90579160200282015b82811115614d905782518254600160a060020a031916600160a060020a03909116178255602090920191600190910190614d5b565b50614d9c929150614dc4565b5090565b815481835581811115610b5357600083815260209020610b53918101908301614de8565b610c0b91905b80821115614d9c578054600160a060020a0319168155600101614dca565b610c0b91905b80821115614d9c5760008155600101614dee56006a61696c656456616c696461746f72730000000000000000000000000000000064656c656761746f727300000000000000000000000000000000000000000000626c6f636b436f756e746572000000000000000000000000000000000000000070656e64696e6756616c696461746f7273000000000000000000000000000000737472696b6552657365740000000000000000000000000000000000000000007374616b65416d6f756e74000000000000000000000000000000000000000000746f74616c5374616b65416d6f756e740000000000000000000000000000000063757272656e7456616c696461746f727300000000000000000000000000000064656c656761746564416d6f756e740000000000000000000000000000000000737472696b65436f756e74000000000000000000000000000000000000000000a165627a7a72305820bb2225511072adf15717f1bcb6c95f06c850f50d21876c48a53e255f78aab10b0029",
  "linkReferences": {},
  "deployedLinkReferences": {}
}