{
  "_format": "hh-sol-artifact-1",
  "contractName": "ProxyStorageMock",
  "sourceName": "contracts/test/ProxyStorageMock.sol",
  "abi": [
    {
      "constant": true,
      "inputs": [],
      "name": "getConsensus",
      "outputs": [
        {
          "name": "",
          "type": "address"
        }
      ],
      "payable": false,
      "stateMutability": "view",
      "type": "function"
    },
    {
      "constant": true,
      "inputs": [],
      "name": "getVoting",
      "outputs": [
        {
          "name": "",
          "type": "address"
        }
      ],
      "payable": false,
      "stateMutability": "view",
      "type": "function"
    },
    {
      "constant": false,
      "inputs": [
        {
          "name": "_blockReward",
          "type": "address"
        },
        {
          "name": "_voting",
          "type": "address"
        }
      ],
      "name": "initializeAddresses",
      "outputs": [],
      "payable": false,
      "stateMutability": "nonpayable",
      "type": "function"
    },
    {
      "constant": true,
      "inputs": [
        {
          "name": "_contractType",
          "type": "uint256"
        }
      ],
      "name": "isValidContractType",
      "outputs": [
        {
          "name": "",
          "type": "bool"
        }
      ],
      "payable": false,
      "stateMutability": "pure",
      "type": "function"
    },
    {
      "constant": true,
      "inputs": [],
      "name": "isInitialized",
      "outputs": [
        {
          "name": "",
          "type": "bool"
        }
      ],
      "payable": false,
      "stateMutability": "view",
      "type": "function"
    },
    {
      "constant": false,
      "inputs": [
        {
          "name": "_implementation",
          "type": "address"
        }
      ],
      "name": "upgradeConsensusMock",
      "outputs": [],
      "payable": false,
      "stateMutability": "nonpayable",
      "type": "function"
    },
    {
      "constant": false,
      "inputs": [
        {
          "name": "_implementation",
          "type": "address"
        }
      ],
      "name": "upgradeBlockRewardMock",
      "outputs": [],
      "payable": false,
      "stateMutability": "nonpayable",
      "type": "function"
    },
    {
      "constant": false,
      "inputs": [
        {
          "name": "_newAddress",
          "type": "address"
        }
      ],
      "name": "setConsensusMock",
      "outputs": [],
      "payable": false,
      "stateMutability": "nonpayable",
      "type": "function"
    },
    {
      "constant": false,
      "inputs": [
        {
          "name": "_contractType",
          "type": "uint256"
        },
        {
          "name": "_contractAddress",
          "type": "address"
        }
      ],
      "name": "setContractAddress",
      "outputs": [
        {
          "name": "",
          "type": "bool"
        }
      ],
      "payable": false,
      "stateMutability": "nonpayable",
      "type": "function"
    },
    {
      "constant": false,
      "inputs": [
        {
          "name": "_consensus",
          "type": "address"
        }
      ],
      "name": "initialize",
      "outputs": [],
      "payable": false,
      "stateMutability": "nonpayable",
      "type": "function"
    },
    {
      "constant": false,
      "inputs": [
        {
          "name": "_newAddress",
          "type": "address"
        }
      ],
      "name": "setBlockRewardMock",
      "outputs": [],
      "payable": false,
      "stateMutability": "nonpayable",
      "type": "function"
    },
    {
      "constant": true,
      "inputs": [],
      "name": "getBlockReward",
      "outputs": [
        {
          "name": "",
          "type": "address"
        }
      ],
      "payable": false,
      "stateMutability": "view",
      "type": "function"
    },
    {
      "anonymous": false,
      "inputs": [
        {
          "indexed": false,
          "name": "consensus",
          "type": "address"
        },
        {
          "indexed": false,
          "name": "blockReward",
          "type": "address"
        },
        {
          "indexed": false,
          "name": "voting",
          "type": "address"
        }
      ],
      "name": "ProxyInitialized",
      "type": "event"
    },
    {
      "anonymous": false,
      "inputs": [
        {
          "indexed": false,
          "name": "contractType",
          "type": "uint256"
        },
        {
          "indexed": false,
          "name": "contractAddress",
          "type": "address"
        }
      ],
      "name": "AddressSet",
      "type": "event"
    }
  ],
  "bytecode": "0x608060405234801561001057600080fd5b50610f43806100206000396000f3006080604052600436106100a05763ffffffff60e060020a600035041663179e740b81146100a55780631986d376146100d657806330b7bdad146100eb57806333875fdd14610114578063392e53cd146101405780635b64208d14610155578063a91a59cc14610176578063b11b5c7714610197578063bb0165b1146101b8578063c4d66de8146101dc578063cc9985d1146101fd578063f89d40861461021e575b600080fd5b3480156100b157600080fd5b506100ba610233565b60408051600160a060020a039092168252519081900360200190f35b3480156100e257600080fd5b506100ba6102f1565b3480156100f757600080fd5b50610112600160a060020a0360043581169060243516610365565b005b34801561012057600080fd5b5061012c6004356107a3565b604080519115158252519081900360200190f35b34801561014c57600080fd5b5061012c6107d0565b34801561016157600080fd5b50610112600160a060020a0360043516610888565b34801561018257600080fd5b50610112600160a060020a0360043516610919565b3480156101a357600080fd5b50610112600160a060020a0360043516610921565b3480156101c457600080fd5b5061012c600435600160a060020a03602435166109fe565b3480156101e857600080fd5b50610112600160a060020a0360043516610c58565b34801561020957600080fd5b50610112600160a060020a0360043516610d6f565b34801561022a57600080fd5b506100ba610de2565b60006004600060405160200180807f636f6e73656e737573000000000000000000000000000000000000000000000081525060090190506040516020818303038152906040526040518082805190602001908083835b602083106102a85780518252601f199092019160209182019101610289565b51815160209384036101000a6000190180199092169116179052604080519290940182900390912086528501959095529290920160002054600160a060020a0316949350505050565b60006004600060405160200180807f766f74696e6700000000000000000000000000000000000000000000000000008152506006019050604051602081830303815290604052604051808280519060200190808383602083106102a85780518252601f199092019160209182019101610289565b6004600060405160200180807f6f776e657200000000000000000000000000000000000000000000000000000081525060050190506040516020818303038152906040526040518082805190602001908083835b602083106103d85780518252601f1990920191602091820191016103b9565b51815160209384036101000a6000190180199092169116179052604080519290940182900390912086528501959095529290920160002054600160a060020a03163314925061042991505057600080fd5b6006600060405160200180807f70726f787953746f72616765416464726573736573496e697469616c697a656481525060200190506040516020818303038152906040526040518082805190602001908083835b6020831061049c5780518252601f19909201916020918201910161047d565b51815160209384036101000a600019018019909216911617905260408051929094018290039091208652850195909552929092016000205460ff161592506104e691505057600080fd5b816004600060405160200180807f626c6f636b526577617264000000000000000000000000000000000000000000815250600b0190506040516020818303038152906040526040518082805190602001908083835b6020831061055a5780518252601f19909201916020918201910161053b565b51815160209384036101000a60001901801990921691161790526040805192909401829003909120865285810196909652509283016000908120805473ffffffffffffffffffffffffffffffffffffffff1916600160a060020a039790971696909617909555505080517f766f74696e67000000000000000000000000000000000000000000000000000081840152815160068183030181526026909101918290528051859460049490939182918401908083835b6020831061062e5780518252601f19909201916020918201910161060f565b51815160209384036101000a60001901801990921691161790526040805192909401829003909120865285810196909652509283016000908120805473ffffffffffffffffffffffffffffffffffffffff1916600160a060020a039790971696909617909555505080517f70726f787953746f72616765416464726573736573496e697469616c697a65648184015281518082038401815290820191829052805160019460069490939182918401908083835b602083106107005780518252601f1990920191602091820191016106e1565b51815160209384036101000a60001901801990921691161790526040805192909401829003909120865285019590955292909201600020805460ff191694151594909417909355507fffcbdc3faa9d3a4dbee5296e7b8671c3962abe5cc9defb4144df40382ad4713c91506107759050610233565b60408051600160a060020a039283168152828616602082015291841682820152519081900360600190a15050565b600060018214806107b45750600282145b806107bf5750600382145b806107ca5750600482145b92915050565b60006006600060405160200180807f6973496e697469616c697a656400000000000000000000000000000000000000815250600d0190506040516020818303038152906040526040518082805190602001908083835b602083106108455780518252601f199092019160209182019101610826565b51815160209384036101000a600019018019909216911617905260408051929094018290039091208652850195909552929092016000205460ff16949350505050565b610890610233565b600160a060020a0316633659cfe6826040518263ffffffff1660e060020a0281526004018082600160a060020a0316600160a060020a03168152602001915050602060405180830381600087803b1580156108ea57600080fd5b505af11580156108fe573d6000803e3d6000fd5b505050506040513d602081101561091457600080fd5b505050565b610890610de2565b806004600060405160200180807f636f6e73656e737573000000000000000000000000000000000000000000000081525060090190506040516020818303038152906040526040518082805190602001908083835b602083106109955780518252601f199092019160209182019101610976565b51815160209384036101000a60001901801990921691161790526040805192909401829003909120865285019590955292909201600020805473ffffffffffffffffffffffffffffffffffffffff1916600160a060020a03959095169490941790935550505050565b600080610a096102f1565b600160a060020a03163314610a1d57600080fd5b610a256107d0565b1515610a345760009150610c51565b600160a060020a0383161515610a4d5760009150610c51565b5060006001841415610aee57610a61610233565b600160a060020a0316633659cfe6846040518263ffffffff1660e060020a0281526004018082600160a060020a0316600160a060020a03168152602001915050602060405180830381600087803b158015610abb57600080fd5b505af1158015610acf573d6000803e3d6000fd5b505050506040513d6020811015610ae557600080fd5b50519050610c03565b6002841415610aff57610a61610de2565b6003841415610b6957604080517f3659cfe6000000000000000000000000000000000000000000000000000000008152600160a060020a038516600482015290513091633659cfe69160248083019260209291908290030181600087803b158015610abb57600080fd5b6004841415610c0357610b7a6102f1565b600160a060020a0316633659cfe6846040518263ffffffff1660e060020a0281526004018082600160a060020a0316600160a060020a03168152602001915050602060405180830381600087803b158015610bd457600080fd5b505af1158015610be8573d6000803e3d6000fd5b505050506040513d6020811015610bfe57600080fd5b505190505b8015610c4d5760408051858152600160a060020a038516602082015281517fcb8f0f32182a0f756b1e065dab832c24d2c48fa533912c33552252a7f25bf4ae929181900390910190a15b8091505b5092915050565b6004600060405160200180807f6f776e657200000000000000000000000000000000000000000000000000000081525060050190506040516020818303038152906040526040518082805190602001908083835b60208310610ccb5780518252601f199092019160209182019101610cac565b51815160209384036101000a6000190180199092169116179052604080519290940182900390912086528501959095529290920160002054600160a060020a031633149250610d1c91505057600080fd5b610d246107d0565b15610d2e57600080fd5b600160a060020a0381161515610d4357600080fd5b600160a060020a038116301415610d5957600080fd5b610d6281610921565b610d6c6001610e56565b50565b806004600060405160200180807f626c6f636b526577617264000000000000000000000000000000000000000000815250600b019050604051602081830303815290604052604051808280519060200190808383602083106109955780518252601f199092019160209182019101610976565b60006004600060405160200180807f626c6f636b526577617264000000000000000000000000000000000000000000815250600b019050604051602081830303815290604052604051808280519060200190808383602083106102a85780518252601f199092019160209182019101610289565b806006600060405160200180807f6973496e697469616c697a656400000000000000000000000000000000000000815250600d0190506040516020818303038152906040526040518082805190602001908083835b60208310610eca5780518252601f199092019160209182019101610eab565b51815160209384036101000a60001901801990921691161790526040805192909401829003909120865285019590955292909201600020805460ff191694151594909417909355505050505600a165627a7a72305820321245da71d2a4284302f2cc6c6e27626b648907afc91f20b6f4ea9b973c68750029",
  "linkReferences": {},
  "deployedLinkReferences": {}
}