{
  "_format": "hh-sol-artifact-1",
  "contractName": "ProxyStorage",
  "sourceName": "contracts/ProxyStorage.sol",
  "abi": [
    {
      "constant": true,
      "inputs": [],
      "name": "getConsensus",
      "outputs": [
        {
          "name": "",
          "type": "address"
        }
      ],
      "payable": false,
      "stateMutability": "view",
      "type": "function"
    },
    {
      "constant": true,
      "inputs": [],
      "name": "getVoting",
      "outputs": [
        {
          "name": "",
          "type": "address"
        }
      ],
      "payable": false,
      "stateMutability": "view",
      "type": "function"
    },
    {
      "constant": false,
      "inputs": [
        {
          "name": "_blockReward",
          "type": "address"
        },
        {
          "name": "_voting",
          "type": "address"
        }
      ],
      "name": "initializeAddresses",
      "outputs": [],
      "payable": false,
      "stateMutability": "nonpayable",
      "type": "function"
    },
    {
      "constant": true,
      "inputs": [
        {
          "name": "_contractType",
          "type": "uint256"
        }
      ],
      "name": "isValidContractType",
      "outputs": [
        {
          "name": "",
          "type": "bool"
        }
      ],
      "payable": false,
      "stateMutability": "pure",
      "type": "function"
    },
    {
      "constant": true,
      "inputs": [],
      "name": "isInitialized",
      "outputs": [
        {
          "name": "",
          "type": "bool"
        }
      ],
      "payable": false,
      "stateMutability": "view",
      "type": "function"
    },
    {
      "constant": false,
      "inputs": [
        {
          "name": "_contractType",
          "type": "uint256"
        },
        {
          "name": "_contractAddress",
          "type": "address"
        }
      ],
      "name": "setContractAddress",
      "outputs": [
        {
          "name": "",
          "type": "bool"
        }
      ],
      "payable": false,
      "stateMutability": "nonpayable",
      "type": "function"
    },
    {
      "constant": false,
      "inputs": [
        {
          "name": "_consensus",
          "type": "address"
        }
      ],
      "name": "initialize",
      "outputs": [],
      "payable": false,
      "stateMutability": "nonpayable",
      "type": "function"
    },
    {
      "constant": true,
      "inputs": [],
      "name": "getBlockReward",
      "outputs": [
        {
          "name": "",
          "type": "address"
        }
      ],
      "payable": false,
      "stateMutability": "view",
      "type": "function"
    },
    {
      "anonymous": false,
      "inputs": [
        {
          "indexed": false,
          "name": "consensus",
          "type": "address"
        },
        {
          "indexed": false,
          "name": "blockReward",
          "type": "address"
        },
        {
          "indexed": false,
          "name": "voting",
          "type": "address"
        }
      ],
      "name": "ProxyInitialized",
      "type": "event"
    },
    {
      "anonymous": false,
      "inputs": [
        {
          "indexed": false,
          "name": "contractType",
          "type": "uint256"
        },
        {
          "indexed": false,
          "name": "contractAddress",
          "type": "address"
        }
      ],
      "name": "AddressSet",
      "type": "event"
    }
  ],
  "bytecode": "0x608060405234801561001057600080fd5b50610d87806100206000396000f3006080604052600436106100745763ffffffff60e060020a600035041663179e740b81146100795780631986d376146100aa57806330b7bdad146100bf57806333875fdd146100e8578063392e53cd14610114578063bb0165b114610129578063c4d66de81461014d578063f89d40861461016e575b600080fd5b34801561008557600080fd5b5061008e610183565b60408051600160a060020a039092168252519081900360200190f35b3480156100b657600080fd5b5061008e610241565b3480156100cb57600080fd5b506100e6600160a060020a03600435811690602435166102b5565b005b3480156100f457600080fd5b506101006004356106f3565b604080519115158252519081900360200190f35b34801561012057600080fd5b50610100610720565b34801561013557600080fd5b50610100600435600160a060020a03602435166107d8565b34801561015957600080fd5b506100e6600160a060020a0360043516610a32565b34801561017a57600080fd5b5061008e610b49565b60006004600060405160200180807f636f6e73656e737573000000000000000000000000000000000000000000000081525060090190506040516020818303038152906040526040518082805190602001908083835b602083106101f85780518252601f1990920191602091820191016101d9565b51815160209384036101000a6000190180199092169116179052604080519290940182900390912086528501959095529290920160002054600160a060020a0316949350505050565b60006004600060405160200180807f766f74696e6700000000000000000000000000000000000000000000000000008152506006019050604051602081830303815290604052604051808280519060200190808383602083106101f85780518252601f1990920191602091820191016101d9565b6004600060405160200180807f6f776e657200000000000000000000000000000000000000000000000000000081525060050190506040516020818303038152906040526040518082805190602001908083835b602083106103285780518252601f199092019160209182019101610309565b51815160209384036101000a6000190180199092169116179052604080519290940182900390912086528501959095529290920160002054600160a060020a03163314925061037991505057600080fd5b6006600060405160200180807f70726f787953746f72616765416464726573736573496e697469616c697a656481525060200190506040516020818303038152906040526040518082805190602001908083835b602083106103ec5780518252601f1990920191602091820191016103cd565b51815160209384036101000a600019018019909216911617905260408051929094018290039091208652850195909552929092016000205460ff1615925061043691505057600080fd5b816004600060405160200180807f626c6f636b526577617264000000000000000000000000000000000000000000815250600b0190506040516020818303038152906040526040518082805190602001908083835b602083106104aa5780518252601f19909201916020918201910161048b565b51815160209384036101000a60001901801990921691161790526040805192909401829003909120865285810196909652509283016000908120805473ffffffffffffffffffffffffffffffffffffffff1916600160a060020a039790971696909617909555505080517f766f74696e67000000000000000000000000000000000000000000000000000081840152815160068183030181526026909101918290528051859460049490939182918401908083835b6020831061057e5780518252601f19909201916020918201910161055f565b51815160209384036101000a60001901801990921691161790526040805192909401829003909120865285810196909652509283016000908120805473ffffffffffffffffffffffffffffffffffffffff1916600160a060020a039790971696909617909555505080517f70726f787953746f72616765416464726573736573496e697469616c697a65648184015281518082038401815290820191829052805160019460069490939182918401908083835b602083106106505780518252601f199092019160209182019101610631565b51815160209384036101000a60001901801990921691161790526040805192909401829003909120865285019590955292909201600020805460ff191694151594909417909355507fffcbdc3faa9d3a4dbee5296e7b8671c3962abe5cc9defb4144df40382ad4713c91506106c59050610183565b60408051600160a060020a039283168152828616602082015291841682820152519081900360600190a15050565b600060018214806107045750600282145b8061070f5750600382145b8061071a5750600482145b92915050565b60006006600060405160200180807f6973496e697469616c697a656400000000000000000000000000000000000000815250600d0190506040516020818303038152906040526040518082805190602001908083835b602083106107955780518252601f199092019160209182019101610776565b51815160209384036101000a600019018019909216911617905260408051929094018290039091208652850195909552929092016000205460ff16949350505050565b6000806107e3610241565b600160a060020a031633146107f757600080fd5b6107ff610720565b151561080e5760009150610a2b565b600160a060020a03831615156108275760009150610a2b565b50600060018414156108c85761083b610183565b600160a060020a0316633659cfe6846040518263ffffffff1660e060020a0281526004018082600160a060020a0316600160a060020a03168152602001915050602060405180830381600087803b15801561089557600080fd5b505af11580156108a9573d6000803e3d6000fd5b505050506040513d60208110156108bf57600080fd5b505190506109dd565b60028414156108d95761083b610b49565b600384141561094357604080517f3659cfe6000000000000000000000000000000000000000000000000000000008152600160a060020a038516600482015290513091633659cfe69160248083019260209291908290030181600087803b15801561089557600080fd5b60048414156109dd57610954610241565b600160a060020a0316633659cfe6846040518263ffffffff1660e060020a0281526004018082600160a060020a0316600160a060020a03168152602001915050602060405180830381600087803b1580156109ae57600080fd5b505af11580156109c2573d6000803e3d6000fd5b505050506040513d60208110156109d857600080fd5b505190505b8015610a275760408051858152600160a060020a038516602082015281517fcb8f0f32182a0f756b1e065dab832c24d2c48fa533912c33552252a7f25bf4ae929181900390910190a15b8091505b5092915050565b6004600060405160200180807f6f776e657200000000000000000000000000000000000000000000000000000081525060050190506040516020818303038152906040526040518082805190602001908083835b60208310610aa55780518252601f199092019160209182019101610a86565b51815160209384036101000a6000190180199092169116179052604080519290940182900390912086528501959095529290920160002054600160a060020a031633149250610af691505057600080fd5b610afe610720565b15610b0857600080fd5b600160a060020a0381161515610b1d57600080fd5b600160a060020a038116301415610b3357600080fd5b610b3c81610bbd565b610b466001610c9a565b50565b60006004600060405160200180807f626c6f636b526577617264000000000000000000000000000000000000000000815250600b019050604051602081830303815290604052604051808280519060200190808383602083106101f85780518252601f1990920191602091820191016101d9565b806004600060405160200180807f636f6e73656e737573000000000000000000000000000000000000000000000081525060090190506040516020818303038152906040526040518082805190602001908083835b60208310610c315780518252601f199092019160209182019101610c12565b51815160209384036101000a60001901801990921691161790526040805192909401829003909120865285019590955292909201600020805473ffffffffffffffffffffffffffffffffffffffff1916600160a060020a03959095169490941790935550505050565b806006600060405160200180807f6973496e697469616c697a656400000000000000000000000000000000000000815250600d0190506040516020818303038152906040526040518082805190602001908083835b60208310610d0e5780518252601f199092019160209182019101610cef565b51815160209384036101000a60001901801990921691161790526040805192909401829003909120865285019590955292909201600020805460ff191694151594909417909355505050505600a165627a7a72305820c2c2c12433da6ee0a930d11c09d871bead2991a3b6973295c9bd855ed02302b40029",
  "linkReferences": {},
  "deployedLinkReferences": {}
}