{
  "_format": "hh-sol-artifact-1",
  "contractName": "EternalStorageProxy",
  "sourceName": "contracts/eternal-storage/EternalStorageProxy.sol",
  "abi": [
    {
      "constant": true,
      "inputs": [],
      "name": "getVersion",
      "outputs": [
        {
          "name": "",
          "type": "uint256"
        }
      ],
      "payable": false,
      "stateMutability": "view",
      "type": "function"
    },
    {
      "constant": false,
      "inputs": [
        {
          "name": "_newImplementation",
          "type": "address"
        }
      ],
      "name": "upgradeTo",
      "outputs": [
        {
          "name": "",
          "type": "bool"
        }
      ],
      "payable": false,
      "stateMutability": "nonpayable",
      "type": "function"
    },
    {
      "constant": true,
      "inputs": [],
      "name": "isInitialized",
      "outputs": [
        {
          "name": "",
          "type": "bool"
        }
      ],
      "payable": false,
      "stateMutability": "view",
      "type": "function"
    },
    {
      "constant": false,
      "inputs": [],
      "name": "renounceOwnership",
      "outputs": [],
      "payable": false,
      "stateMutability": "nonpayable",
      "type": "function"
    },
    {
      "constant": true,
      "inputs": [],
      "name": "getOwner",
      "outputs": [
        {
          "name": "",
          "type": "address"
        }
      ],
      "payable": false,
      "stateMutability": "view",
      "type": "function"
    },
    {
      "constant": true,
      "inputs": [],
      "name": "getImplementation",
      "outputs": [
        {
          "name": "",
          "type": "address"
        }
      ],
      "payable": false,
      "stateMutability": "view",
      "type": "function"
    },
    {
      "constant": true,
      "inputs": [],
      "name": "getProxyStorage",
      "outputs": [
        {
          "name": "",
          "type": "address"
        }
      ],
      "payable": false,
      "stateMutability": "view",
      "type": "function"
    },
    {
      "constant": false,
      "inputs": [
        {
          "name": "_newOwner",
          "type": "address"
        }
      ],
      "name": "transferOwnership",
      "outputs": [],
      "payable": false,
      "stateMutability": "nonpayable",
      "type": "function"
    },
    {
      "inputs": [
        {
          "name": "_proxyStorage",
          "type": "address"
        },
        {
          "name": "_implementation",
          "type": "address"
        }
      ],
      "payable": false,
      "stateMutability": "nonpayable",
      "type": "constructor"
    },
    {
      "payable": true,
      "stateMutability": "payable",
      "type": "fallback"
    },
    {
      "anonymous": false,
      "inputs": [
        {
          "indexed": false,
          "name": "version",
          "type": "uint256"
        },
        {
          "indexed": true,
          "name": "implementation",
          "type": "address"
        }
      ],
      "name": "Upgraded",
      "type": "event"
    },
    {
      "anonymous": false,
      "inputs": [
        {
          "indexed": true,
          "name": "previousOwner",
          "type": "address"
        }
      ],
      "name": "OwnershipRenounced",
      "type": "event"
    },
    {
      "anonymous": false,
      "inputs": [
        {
          "indexed": true,
          "name": "previousOwner",
          "type": "address"
        },
        {
          "indexed": true,
          "name": "newOwner",
          "type": "address"
        }
      ],
      "name": "OwnershipTransferred",
      "type": "event"
    }
  ],
  "bytecode": "0x608060405234801561001057600080fd5b506040516040806108db833981016040528051602090910151600160a060020a038116151561003e57600080fd5b600160a060020a038216156100645761005f826401000000006100a1810204565b610076565b610076306401000000006100a1810204565b61008881640100000000610171810204565b61009a33640100000000610193810204565b5050610206565b806004600060405160200180807f70726f787953746f726167650000000000000000000000000000000000000000815250600c0190506040516020818303038152906040526040518082805190602001908083835b602083106101155780518252601f1990920191602091820191016100f6565b51815160209384036101000a600019018019909216911617905260408051929094018290039091208652850195909552929092016000208054600160a060020a031916600160a060020a03959095169490941790935550505050565b60018054600160a060020a031916600160a060020a0392909216919091179055565b806004600060405160200180807f6f776e65720000000000000000000000000000000000000000000000000000008152506005019050604051602081830303815290604052604051808280519060200190808383602083106101155780518252601f1990920191602091820191016100f6565b6106c6806102156000396000f30060806040526004361061008d5763ffffffff7c01000000000000000000000000000000000000000000000000000000006000350416630d8e6e2c81146100d25780633659cfe6146100f9578063392e53cd1461012e578063715018a614610143578063893d20e81461015a578063aaf10f421461018b578063ec15a5e6146101a0578063f2fde38b146101b5575b60006100976101d6565b9050600160a060020a03811615156100ae57600080fd5b3660008037600080366000845af43d6000803e8080156100cd573d6000f35b3d6000fd5b3480156100de57600080fd5b506100e76101e5565b60408051918252519081900360200190f35b34801561010557600080fd5b5061011a600160a060020a03600435166101eb565b604080519115158252519081900360200190f35b34801561013a57600080fd5b5061011a6102b6565b34801561014f57600080fd5b5061015861036e565b005b34801561016657600080fd5b5061016f6103d3565b60408051600160a060020a039092168252519081900360200190f35b34801561019757600080fd5b5061016f6101d6565b3480156101ac57600080fd5b5061016f610491565b3480156101c157600080fd5b50610158600160a060020a0360043516610505565b600154600160a060020a031690565b60005490565b6000806101f6610491565b600160a060020a0316331461020a57600080fd5b600160a060020a038316151561022357600091506102b0565b82600160a060020a03166102356101d6565b600160a060020a0316141561024d57600091506102b0565b6102556101e5565b600101905061026381610589565b61026c8361058e565b604080518281529051600160a060020a038516917f4289d6195cf3c2d2174adf98d0e19d4d2d08887995b99cb7b100e7ffe795820e919081900360200190a2600191505b50919050565b60006006600060405160200180807f6973496e697469616c697a656400000000000000000000000000000000000000815250600d0190506040516020818303038152906040526040518082805190602001908083835b6020831061032b5780518252601f19909201916020918201910161030c565b51815160209384036101000a600019018019909216911617905260408051929094018290039091208652850195909552929092016000205460ff16949350505050565b6103766103d3565b600160a060020a0316331461038a57600080fd5b6103926103d3565b600160a060020a03167ff8df31144d9c2f0f6b59d69b8b98abd5459d07f2742c4df920b25aae33c6482060405160405180910390a26103d160006105bd565b565b60006004600060405160200180807f6f776e657200000000000000000000000000000000000000000000000000000081525060050190506040516020818303038152906040526040518082805190602001908083835b602083106104485780518252601f199092019160209182019101610429565b51815160209384036101000a6000190180199092169116179052604080519290940182900390912086528501959095529290920160002054600160a060020a0316949350505050565b60006004600060405160200180807f70726f787953746f726167650000000000000000000000000000000000000000815250600c019050604051602081830303815290604052604051808280519060200190808383602083106104485780518252601f199092019160209182019101610429565b61050d6103d3565b600160a060020a0316331461052157600080fd5b600160a060020a038116151561053657600080fd5b80600160a060020a03166105486103d3565b600160a060020a03167f8be0079c531659141344cd1fd0a4f28419497f9722a3daafe3b4186f6b6457e060405160405180910390a3610586816105bd565b50565b600055565b6001805473ffffffffffffffffffffffffffffffffffffffff1916600160a060020a0392909216919091179055565b806004600060405160200180807f6f776e657200000000000000000000000000000000000000000000000000000081525060050190506040516020818303038152906040526040518082805190602001908083835b602083106106315780518252601f199092019160209182019101610612565b51815160209384036101000a60001901801990921691161790526040805192909401829003909120865285019590955292909201600020805473ffffffffffffffffffffffffffffffffffffffff1916600160a060020a039590951694909417909355505050505600a165627a7a72305820f4416296485a3f71a48dda88ce8128683c8d17cbc70da0bb70aca8575af7400c0029",
  "linkReferences": {},
  "deployedLinkReferences": {}
}