{
  "_format": "hh-sol-artifact-1",
  "contractName": "VotingMock",
  "sourceName": "contracts/test/VotingMock.sol",
  "abi": [
    {
      "constant": true,
      "inputs": [
        {
          "name": "_id",
          "type": "uint256"
        }
      ],
      "name": "getStartBlock",
      "outputs": [
        {
          "name": "",
          "type": "uint256"
        }
      ],
      "payable": false,
      "stateMutability": "view",
      "type": "function"
    },
    {
      "constant": true,
      "inputs": [
        {
          "name": "_id",
          "type": "uint256"
        }
      ],
      "name": "getQuorumState",
      "outputs": [
        {
          "name": "",
          "type": "uint256"
        }
      ],
      "payable": false,
      "stateMutability": "view",
      "type": "function"
    },
    {
      "constant": true,
      "inputs": [],
      "name": "MIN_BALLOT_DURATION_CYCLES",
      "outputs": [
        {
          "name": "",
          "type": "uint256"
        }
      ],
      "payable": false,
      "stateMutability": "view",
      "type": "function"
    },
    {
      "constant": true,
      "inputs": [
        {
          "name": "_id",
          "type": "uint256"
        },
        {
          "name": "_key",
          "type": "address"
        }
      ],
      "name": "getVoterChoice",
      "outputs": [
        {
          "name": "",
          "type": "uint256"
        }
      ],
      "payable": false,
      "stateMutability": "view",
      "type": "function"
    },
    {
      "constant": true,
      "inputs": [
        {
          "name": "_id",
          "type": "uint256"
        }
      ],
      "name": "getAccepted",
      "outputs": [
        {
          "name": "",
          "type": "uint256"
        }
      ],
      "payable": false,
      "stateMutability": "view",
      "type": "function"
    },
    {
      "constant": true,
      "inputs": [
        {
          "name": "_id",
          "type": "uint256"
        }
      ],
      "name": "getIsFinalized",
      "outputs": [
        {
          "name": "",
          "type": "bool"
        }
      ],
      "payable": false,
      "stateMutability": "view",
      "type": "function"
    },
    {
      "constant": true,
      "inputs": [
        {
          "name": "_id",
          "type": "uint256"
        }
      ],
      "name": "isActiveBallot",
      "outputs": [
        {
          "name": "",
          "type": "bool"
        }
      ],
      "payable": false,
      "stateMutability": "view",
      "type": "function"
    },
    {
      "constant": true,
      "inputs": [
        {
          "name": "_id",
          "type": "uint256"
        }
      ],
      "name": "getFinalizeCalled",
      "outputs": [
        {
          "name": "",
          "type": "bool"
        }
      ],
      "payable": false,
      "stateMutability": "view",
      "type": "function"
    },
    {
      "constant": true,
      "inputs": [],
      "name": "DECIMALS",
      "outputs": [
        {
          "name": "",
          "type": "uint256"
        }
      ],
      "payable": false,
      "stateMutability": "view",
      "type": "function"
    },
    {
      "constant": true,
      "inputs": [],
      "name": "MINIMUM_TURNOUT_BP",
      "outputs": [
        {
          "name": "",
          "type": "uint256"
        }
      ],
      "payable": false,
      "stateMutability": "view",
      "type": "function"
    },
    {
      "constant": true,
      "inputs": [],
      "name": "isInitialized",
      "outputs": [
        {
          "name": "",
          "type": "bool"
        }
      ],
      "payable": false,
      "stateMutability": "view",
      "type": "function"
    },
    {
      "constant": true,
      "inputs": [],
      "name": "getNextBallotId",
      "outputs": [
        {
          "name": "",
          "type": "uint256"
        }
      ],
      "payable": false,
      "stateMutability": "view",
      "type": "function"
    },
    {
      "constant": true,
      "inputs": [
        {
          "name": "_id",
          "type": "uint256"
        }
      ],
      "name": "getTotalStake",
      "outputs": [
        {
          "name": "",
          "type": "uint256"
        }
      ],
      "payable": false,
      "stateMutability": "view",
      "type": "function"
    },
    {
      "constant": true,
      "inputs": [],
      "name": "MAX_BALLOT_DURATION_CYCLES",
      "outputs": [
        {
          "name": "",
          "type": "uint256"
        }
      ],
      "payable": false,
      "stateMutability": "view",
      "type": "function"
    },
    {
      "constant": true,
      "inputs": [
        {
          "name": "_id",
          "type": "uint256"
        }
      ],
      "name": "getDescription",
      "outputs": [
        {
          "name": "",
          "type": "string"
        }
      ],
      "payable": false,
      "stateMutability": "view",
      "type": "function"
    },
    {
      "constant": true,
      "inputs": [
        {
          "name": "_id",
          "type": "uint256"
        }
      ],
      "name": "getBelowTurnOut",
      "outputs": [
        {
          "name": "",
          "type": "bool"
        }
      ],
      "payable": false,
      "stateMutability": "view",
      "type": "function"
    },
    {
      "constant": true,
      "inputs": [
        {
          "name": "_id",
          "type": "uint256"
        }
      ],
      "name": "getRejected",
      "outputs": [
        {
          "name": "",
          "type": "uint256"
        }
      ],
      "payable": false,
      "stateMutability": "view",
      "type": "function"
    },
    {
      "constant": true,
      "inputs": [],
      "name": "activeBallotsLength",
      "outputs": [
        {
          "name": "",
          "type": "uint256"
        }
      ],
      "payable": false,
      "stateMutability": "view",
      "type": "function"
    },
    {
      "constant": true,
      "inputs": [
        {
          "name": "_address",
          "type": "address"
        }
      ],
      "name": "isValidVotingKey",
      "outputs": [
        {
          "name": "",
          "type": "bool"
        }
      ],
      "payable": false,
      "stateMutability": "view",
      "type": "function"
    },
    {
      "constant": false,
      "inputs": [],
      "name": "initialize",
      "outputs": [],
      "payable": false,
      "stateMutability": "nonpayable",
      "type": "function"
    },
    {
      "constant": true,
      "inputs": [
        {
          "name": "_id",
          "type": "uint256"
        }
      ],
      "name": "canBeFinalized",
      "outputs": [
        {
          "name": "",
          "type": "bool"
        }
      ],
      "payable": false,
      "stateMutability": "view",
      "type": "function"
    },
    {
      "constant": true,
      "inputs": [],
      "name": "MAX_LIMIT_OF_BALLOTS",
      "outputs": [
        {
          "name": "",
          "type": "uint256"
        }
      ],
      "payable": false,
      "stateMutability": "view",
      "type": "function"
    },
    {
      "constant": true,
      "inputs": [],
      "name": "getMaxBallotDurationCycles",
      "outputs": [
        {
          "name": "",
          "type": "uint256"
        }
      ],
      "payable": false,
      "stateMutability": "pure",
      "type": "function"
    },
    {
      "constant": true,
      "inputs": [
        {
          "name": "_id",
          "type": "uint256"
        },
        {
          "name": "_key",
          "type": "address"
        }
      ],
      "name": "getBallotInfo",
      "outputs": [
        {
          "name": "startBlock",
          "type": "uint256"
        },
        {
          "name": "endBlock",
          "type": "uint256"
        },
        {
          "name": "isFinalized",
          "type": "bool"
        },
        {
          "name": "proposedValue",
          "type": "address"
        },
        {
          "name": "contractType",
          "type": "uint256"
        },
        {
          "name": "creator",
          "type": "address"
        },
        {
          "name": "description",
          "type": "string"
        },
        {
          "name": "canBeFinalizedNow",
          "type": "bool"
        },
        {
          "name": "alreadyVoted",
          "type": "bool"
        },
        {
          "name": "belowTurnOut",
          "type": "bool"
        },
        {
          "name": "accepted",
          "type": "uint256"
        },
        {
          "name": "rejected",
          "type": "uint256"
        },
        {
          "name": "totalStake",
          "type": "uint256"
        }
      ],
      "payable": false,
      "stateMutability": "view",
      "type": "function"
    },
    {
      "constant": true,
      "inputs": [
        {
          "name": "_id",
          "type": "uint256"
        }
      ],
      "name": "getEndBlock",
      "outputs": [
        {
          "name": "",
          "type": "uint256"
        }
      ],
      "payable": false,
      "stateMutability": "view",
      "type": "function"
    },
    {
      "constant": true,
      "inputs": [
        {
          "name": "_id",
          "type": "uint256"
        }
      ],
      "name": "getIndex",
      "outputs": [
        {
          "name": "",
          "type": "uint256"
        }
      ],
      "payable": false,
      "stateMutability": "view",
      "type": "function"
    },
    {
      "constant": false,
      "inputs": [
        {
          "name": "_id",
          "type": "uint256"
        }
      ],
      "name": "setNextBallotIdMock",
      "outputs": [],
      "payable": false,
      "stateMutability": "nonpayable",
      "type": "function"
    },
    {
      "constant": false,
      "inputs": [
        {
          "name": "_consensus",
          "type": "address"
        }
      ],
      "name": "setConsensusMock",
      "outputs": [],
      "payable": false,
      "stateMutability": "nonpayable",
      "type": "function"
    },
    {
      "constant": false,
      "inputs": [
        {
          "name": "_id",
          "type": "uint256"
        },
        {
          "name": "_choice",
          "type": "uint256"
        }
      ],
      "name": "vote",
      "outputs": [],
      "payable": false,
      "stateMutability": "nonpayable",
      "type": "function"
    },
    {
      "constant": false,
      "inputs": [
        {
          "name": "validators",
          "type": "address[]"
        }
      ],
      "name": "onCycleEnd",
      "outputs": [],
      "payable": false,
      "stateMutability": "nonpayable",
      "type": "function"
    },
    {
      "constant": true,
      "inputs": [
        {
          "name": "_id",
          "type": "uint256"
        }
      ],
      "name": "getContractType",
      "outputs": [
        {
          "name": "",
          "type": "uint256"
        }
      ],
      "payable": false,
      "stateMutability": "view",
      "type": "function"
    },
    {
      "constant": false,
      "inputs": [
        {
          "name": "_startAfterNumberOfCycles",
          "type": "uint256"
        },
        {
          "name": "_cyclesDuration",
          "type": "uint256"
        },
        {
          "name": "_contractType",
          "type": "uint256"
        },
        {
          "name": "_proposedValue",
          "type": "address"
        },
        {
          "name": "_description",
          "type": "string"
        }
      ],
      "name": "newBallot",
      "outputs": [
        {
          "name": "",
          "type": "uint256"
        }
      ],
      "payable": false,
      "stateMutability": "nonpayable",
      "type": "function"
    },
    {
      "constant": true,
      "inputs": [
        {
          "name": "_id",
          "type": "uint256"
        },
        {
          "name": "_key",
          "type": "address"
        }
      ],
      "name": "hasAlreadyVoted",
      "outputs": [
        {
          "name": "",
          "type": "bool"
        }
      ],
      "payable": false,
      "stateMutability": "view",
      "type": "function"
    },
    {
      "constant": true,
      "inputs": [],
      "name": "activeBallots",
      "outputs": [
        {
          "name": "",
          "type": "uint256[]"
        }
      ],
      "payable": false,
      "stateMutability": "view",
      "type": "function"
    },
    {
      "constant": true,
      "inputs": [
        {
          "name": "_id",
          "type": "uint256"
        }
      ],
      "name": "getCreator",
      "outputs": [
        {
          "name": "",
          "type": "address"
        }
      ],
      "payable": false,
      "stateMutability": "view",
      "type": "function"
    },
    {
      "constant": true,
      "inputs": [
        {
          "name": "_id",
          "type": "uint256"
        }
      ],
      "name": "getProposedValue",
      "outputs": [
        {
          "name": "",
          "type": "address"
        }
      ],
      "payable": false,
      "stateMutability": "view",
      "type": "function"
    },
    {
      "constant": true,
      "inputs": [
        {
          "name": "_index",
          "type": "uint256"
        }
      ],
      "name": "activeBallotsAtIndex",
      "outputs": [
        {
          "name": "",
          "type": "uint256"
        }
      ],
      "payable": false,
      "stateMutability": "view",
      "type": "function"
    },
    {
      "constant": true,
      "inputs": [],
      "name": "getProxyStorage",
      "outputs": [
        {
          "name": "",
          "type": "address"
        }
      ],
      "payable": false,
      "stateMutability": "view",
      "type": "function"
    },
    {
      "constant": true,
      "inputs": [
        {
          "name": "_contractType",
          "type": "uint256"
        }
      ],
      "name": "validContractType",
      "outputs": [
        {
          "name": "",
          "type": "bool"
        }
      ],
      "payable": false,
      "stateMutability": "view",
      "type": "function"
    },
    {
      "constant": true,
      "inputs": [],
      "name": "getMinBallotDurationCycles",
      "outputs": [
        {
          "name": "",
          "type": "uint256"
        }
      ],
      "payable": false,
      "stateMutability": "pure",
      "type": "function"
    },
    {
      "constant": true,
      "inputs": [
        {
          "name": "_key",
          "type": "address"
        }
      ],
      "name": "validatorActiveBallots",
      "outputs": [
        {
          "name": "",
          "type": "uint256"
        }
      ],
      "payable": false,
      "stateMutability": "view",
      "type": "function"
    },
    {
      "constant": true,
      "inputs": [],
      "name": "getBallotLimitPerValidator",
      "outputs": [
        {
          "name": "",
          "type": "uint256"
        }
      ],
      "payable": false,
      "stateMutability": "view",
      "type": "function"
    },
    {
      "anonymous": false,
      "inputs": [
        {
          "indexed": true,
          "name": "id",
          "type": "uint256"
        },
        {
          "indexed": true,
          "name": "creator",
          "type": "address"
        }
      ],
      "name": "BallotCreated",
      "type": "event"
    },
    {
      "anonymous": false,
      "inputs": [
        {
          "indexed": true,
          "name": "id",
          "type": "uint256"
        }
      ],
      "name": "BallotFinalized",
      "type": "event"
    },
    {
      "anonymous": false,
      "inputs": [
        {
          "indexed": true,
          "name": "id",
          "type": "uint256"
        },
        {
          "indexed": false,
          "name": "decision",
          "type": "uint256"
        },
        {
          "indexed": true,
          "name": "voter",
          "type": "address"
        }
      ],
      "name": "Vote",
      "type": "event"
    }
  ],
  "bytecode": "0x608060405234801561001057600080fd5b50613bb3806100206000396000f3006080604052600436106101ea5763ffffffff60e060020a60003504166301b2320e81146101ef57806308dbb18e146102195780630af58e77146102315780630eac27f41461024657806322e5fe9d1461026a57806323e1a0a8146102825780632b592f92146102ae5780632dfba528146102c65780632e0f2625146102de578063340d3dc2146102f3578063392e53cd146103085780633ee2f2121461031d57806345367f2314610332578063480ca3801461034a5780634925ec551461035f57806360970b6f146103ec57806362f4c26b146104045780636ccc02341461041c57806377da7930146104315780638129fc1c1461045257806382c4c96314610469578063897ba3e4146104815780638be774d3146104965780638c64a20d146104ab5780638c8ab7ad146105cf5780638e7cb6e1146105e757806399695e42146105ff578063b11b5c7714610617578063b384abef14610638578063bbac62c814610653578063bdd4ae5514610673578063c12eefd21461068b578063c14bfd29146106c4578063d21dc68a146106e8578063d48e638a1461074d578063d6edcb3814610781578063df04447714610799578063ec15a5e6146107b1578063edaab223146107c6578063f3161a4d146107de578063f49774ee146107f3578063fcff021c14610814575b600080fd5b3480156101fb57600080fd5b50610207600435610829565b60408051918252519081900360200190f35b34801561022557600080fd5b506102076004356108ff565b34801561023d57600080fd5b50610207610991565b34801561025257600080fd5b50610207600435600160a060020a0360243516610996565b34801561027657600080fd5b50610207600435610a88565b34801561028e57600080fd5b5061029a600435610b1a565b604080519115158252519081900360200190f35b3480156102ba57600080fd5b5061029a600435610bf1565b3480156102d257600080fd5b5061029a600435610c16565b3480156102ea57600080fd5b50610207610c92565b3480156102ff57600080fd5b50610207610c9e565b34801561031457600080fd5b5061029a610ca4565b34801561032957600080fd5b50610207610d5d565b34801561033e57600080fd5b50610207600435610e12565b34801561035657600080fd5b50610207610ea4565b34801561036b57600080fd5b50610377600435610ea9565b6040805160208082528351818301528351919283929083019185019080838360005b838110156103b1578181015183820152602001610399565b50505050905090810190601f1680156103de5780820380516001836020036101000a031916815260200191505b509250505060405180910390f35b3480156103f857600080fd5b5061029a60043561101f565b34801561041057600080fd5b506102076004356110b1565b34801561042857600080fd5b50610207611143565b34801561043d57600080fd5b5061029a600160a060020a03600435166111a5565b34801561045e57600080fd5b50610467611335565b005b34801561047557600080fd5b5061029a600435611417565b34801561048d57600080fd5b5061020761146f565b3480156104a257600080fd5b50610207611474565b3480156104b757600080fd5b506104cf600435600160a060020a0360243516611479565b604051808e81526020018d81526020018c1515151581526020018b600160a060020a0316600160a060020a031681526020018a815260200189600160a060020a0316600160a060020a0316815260200180602001881515151581526020018715151515815260200186151515158152602001858152602001848152602001838152602001828103825289818151815260200191508051906020019080838360005b83811015610588578181015183820152602001610570565b50505050905090810190601f1680156105b55780820380516001836020036101000a031916815260200191505b509e50505050505050505050505050505060405180910390f35b3480156105db57600080fd5b5061020760043561152f565b3480156105f357600080fd5b506102076004356115c1565b34801561060b57600080fd5b50610467600435611653565b34801561062357600080fd5b50610467600160a060020a0360043516611708565b34801561064457600080fd5b506104676004356024356117e5565b34801561065f57600080fd5b50610467600480356024810191013561188e565b34801561067f57600080fd5b50610207600435611c19565b34801561069757600080fd5b506102076004803590602480359160443591600160a060020a036064351691608435918201910135611cab565b3480156106d057600080fd5b5061029a600435600160a060020a0360243516611d90565b3480156106f457600080fd5b506106fd611dbd565b60408051602080825283518183015283519192839290830191858101910280838360005b83811015610739578181015183820152602001610721565b505050509050019250505060405180910390f35b34801561075957600080fd5b50610765600435611eaa565b60408051600160a060020a039092168252519081900360200190f35b34801561078d57600080fd5b50610765600435611f87565b3480156107a557600080fd5b50610207600435612019565b3480156107bd57600080fd5b506107656120d7565b3480156107d257600080fd5b5061029a600435612195565b3480156107ea57600080fd5b50610207612219565b3480156107ff57600080fd5b50610207600160a060020a036004351661221e565b34801561082057600080fd5b506102076122bb565b600060026000836040516020018080600080516020613b68833981519152815250600b01828152602001807f7374617274426c6f636b00000000000000000000000000000000000000000000815250600a019150506040516020818303038152906040526040518082805190602001908083835b602083106108bc5780518252601f19909201916020918201910161089d565b51815160209384036101000a600019018019909216911617905260408051929094018290039091208652850195909552929092016000205493505050505b919050565b600060026000836040516020018080600080516020613b68833981519152815250600b01828152602001807f71756f72756d5374617465000000000000000000000000000000000000000000815250600b01915050604051602081830303815290604052604051808280519060200190808383602083106108bc5780518252601f19909201916020918201910161089d565b600281565b60408051600080516020613b68833981519152602080830191909152602b82018590527f766f746572730000000000000000000000000000000000000000000000000000604b8301526c01000000000000000000000000600160a060020a0385160260518301528251604581840301815260659092019283905281516000936002938593909282918401908083835b60208310610a445780518252601f199092019160209182019101610a25565b51815160209384036101000a600019018019909216911617905260408051929094018290039091208652850195909552929092016000205493505050505b92915050565b600060026000836040516020018080600080516020613b68833981519152815250600b01828152602001807f6163636570746564000000000000000000000000000000000000000000000000815250600801915050604051602081830303815290604052604051808280519060200190808383602083106108bc5780518252601f19909201916020918201910161089d565b600060066000836040516020018080600080516020613b68833981519152815250600b01828152602001807f697346696e616c697a6564000000000000000000000000000000000000000000815250600b019150506040516020818303038152906040526040518082805190602001908083835b60208310610bad5780518252601f199092019160209182019101610b8e565b51815160209384036101000a600019018019909216911617905260408051929094018290039091208652850195909552929092016000205460ff1695945050505050565b600043610bfd83610829565b108015610a825750610c0e8261152f565b431092915050565b6000600660008360405160200180807f66696e616c697a6543616c6c6564000000000000000000000000000000000000815250600e0182815260200191505060405160208183030381529060405260405180828051906020019080838360208310610bad5780518252601f199092019160209182019101610b8e565b670de0b6b3a764000081565b6107d081565b60006006600060405160200180807f6973496e697469616c697a656400000000000000000000000000000000000000815250600d0190506040516020818303038152906040526040518082805190602001908083835b60208310610d195780518252601f199092019160209182019101610cfa565b51815160209384036101000a600019018019909216911617905260408051929094018290039091208652850195909552929092016000205460ff1693505050505b90565b60006002600060405160200180807f6e65787442616c6c6f7449640000000000000000000000000000000000000000815250600c0190506040516020818303038152906040526040518082805190602001908083835b60208310610dd25780518252601f199092019160209182019101610db3565b51815160209384036101000a6000190180199092169116179052604080519290940182900390912086528501959095529290920160002054949350505050565b600060026000836040516020018080600080516020613b68833981519152815250600b01828152602001807f746f74616c5374616b6500000000000000000000000000000000000000000000815250600a01915050604051602081830303815290604052604051808280519060200190808383602083106108bc5780518252601f19909201916020918201910161089d565b600e81565b606060036000836040516020018080600080516020613b68833981519152815250600b01828152602001807f6465736372697074696f6e000000000000000000000000000000000000000000815250600b019150506040516020818303038152906040526040518082805190602001908083835b60208310610f3c5780518252601f199092019160209182019101610f1d565b6001836020036101000a0380198251168184511680821785525050505050509050019150506040518091039020600019166000191681526020019081526020016000208054600181600116156101000203166002900480601f0160208091040260200160405190810160405280929190818152602001828054600181600116156101000203166002900480156110135780601f10610fe857610100808354040283529160200191611013565b820191906000526020600020905b815481529060010190602001808311610ff657829003601f168201915b50505050509050919050565b600060066000836040516020018080600080516020613b68833981519152815250600b01828152602001807f62656c6f775475726e4f75740000000000000000000000000000000000000000815250600c0191505060405160208183030381529060405260405180828051906020019080838360208310610bad5780518252601f199092019160209182019101610b8e565b600060026000836040516020018080600080516020613b68833981519152815250600b01828152602001807f72656a6563746564000000000000000000000000000000000000000000000000815250600801915050604051602081830303815290604052604051808280519060200190808383602083106108bc5780518252601f19909201916020918201910161089d565b6000600860006040516020018080600080516020613b48833981519152815250600d01905060405160208183030381529060405260405180828051906020019080838360208310610dd25780518252601f199092019160209182019101610db3565b6000808080806111b36120d7565b600160a060020a031663179e740b6040518163ffffffff1660e060020a028152600401602060405180830381600087803b1580156111f057600080fd5b505af1158015611204573d6000803e3d6000fd5b505050506040513d602081101561121a57600080fd5b505192505b82600160a060020a03166340c9cdeb6040518163ffffffff1660e060020a028152600401602060405180830381600087803b15801561125d57600080fd5b505af1158015611271573d6000803e3d6000fd5b505050506040513d602081101561128757600080fd5b505182101561132b5782600160a060020a03166357aeefc5836040518263ffffffff1660e060020a02815260040180828152602001915050602060405180830381600087803b1580156112d957600080fd5b505af11580156112ed573d6000803e3d6000fd5b505050506040513d602081101561130357600080fd5b50519050600160a060020a03808216908716141561132057600193505b60019091019061121f565b5091949350505050565b6004600060405160200180807f6f776e657200000000000000000000000000000000000000000000000000000081525060050190506040516020818303038152906040526040518082805190602001908083835b602083106113a85780518252601f199092019160209182019101611389565b51815160209384036101000a6000190180199092169116179052604080519290940182900390912086528501959095529290920160002054600160a060020a0316331492506113f991505057600080fd5b611401610ca4565b1561140b57600080fd5b6114156001612301565b565b6000611421610d5d565b821061142f575060006108fa565b4361143983610829565b1115611447575060006108fa565b61145082610b1a565b1561145d575060006108fa565b6114668261152f565b43101592915050565b606481565b600e90565b60008060008060008060606000806000806000806114968f610829565b9c506114a18f61152f565b9b506114ac8f610b1a565b9a506114b78f611f87565b99506114c28f611c19565b98506114cd8f611eaa565b97506114d88f610ea9565b96506114e38f611417565b95506114ef8f8f611d90565b94506114fa8f61101f565b93506115058f610a88565b92506115108f6110b1565b915061151b8f610e12565b90509295989b9e9194979a9d509295989b50565b600060026000836040516020018080600080516020613b68833981519152815250600b01828152602001807f656e64426c6f636b000000000000000000000000000000000000000000000000815250600801915050604051602081830303815290604052604051808280519060200190808383602083106108bc5780518252601f19909201916020918201910161089d565b600060026000836040516020018080600080516020613b68833981519152815250600b01828152602001807f696e646578000000000000000000000000000000000000000000000000000000815250600501915050604051602081830303815290604052604051808280519060200190808383602083106108bc5780518252601f19909201916020918201910161089d565b806002600060405160200180807f6e65787442616c6c6f7449640000000000000000000000000000000000000000815250600c0190506040516020818303038152906040526040518082805190602001908083835b602083106116c75780518252601f1990920191602091820191016116a8565b51815160209384036101000a600019018019909216911617905260408051929094018290039091208652850195909552929092016000209390935550505050565b806004600060405160200180807f636f6e73656e7375734d6f636b00000000000000000000000000000000000000815250600d0190506040516020818303038152906040526040518082805190602001908083835b6020831061177c5780518252601f19909201916020918201910161175d565b51815160209384036101000a60001901801990921691161790526040805192909401829003909120865285019590955292909201600020805473ffffffffffffffffffffffffffffffffffffffff1916600160a060020a03959095169490941790935550505050565b60006117f083610b1a565b156117fa57600080fd5b503361180583610bf1565b151561181057600080fd5b61181a8382611d90565b1561182457600080fd5b60018214806118335750600282145b151561183e57600080fd5b6118498382846123c2565b604080518381529051600160a060020a0383169185917f7c2f48a4bf2e759e77b1e77a8bf1034cdf16e9034dad596d3655bb8b315f85eb9181900360200190a3505050565b600060606000806000806000806000600160a060020a03166004600060405160200180807f636f6e73656e7375734d6f636b00000000000000000000000000000000000000815250600d0190506040516020818303038152906040526040518082805190602001908083835b602083106119195780518252601f1990920191602091820191016118fa565b51815160209384036101000a6000190180199092169116179052604080519290940182900390912086528501959095529290920160002054600160a060020a0316939093149250611a30915050576004600060405160200180807f636f6e73656e7375734d6f636b00000000000000000000000000000000000000815250600d0190506040516020818303038152906040526040518082805190602001908083835b602083106119da5780518252601f1990920191602091820191016119bb565b51815160209384036101000a6000190180199092169116179052604080519290940182900390912086528501959095529290920160002054600160a060020a031633149250611a2b91505057600080fd5b611ab5565b611a386120d7565b600160a060020a031663179e740b6040518163ffffffff1660e060020a028152600401602060405180830381600087803b158015611a7557600080fd5b505af1158015611a89573d6000803e3d6000fd5b505050506040513d6020811015611a9f57600080fd5b5051600160a060020a03163314611ab557600080fd5b889750871515611ac457611c0d565b611acc611dbd565b9650600095505b8651861015611c0d578686815181101515611aea57fe5b90602001906020020151945043611b0086610829565b108015611b135750611b1185610c16565b155b15611c0257611b2185611417565b15611c02576000935060009250600091505b87821015611bdc57611b60858b8b85818110611b4b57fe5b90506020020135600160a060020a0316610996565b90506001811415611ba657611b9f611b928b8b85818110611b7d57fe5b90506020020135600160a060020a03166124b3565b859063ffffffff61258b16565b9350611bd1565b6002811415611bd157611bce611bc18b8b85818110611b7d57fe5b849063ffffffff61258b16565b92505b600190910190611b33565b611be685856125a8565b611bf0858461267c565b611bf98561270d565b611c0285612895565b600190950194611ad3565b50505050505050505050565b600060026000836040516020018080600080516020613b68833981519152815250600b01828152602001807f636f6e7472616374547970650000000000000000000000000000000000000000815250600c01915050604051602081830303815290604052604051808280519060200190808383602083106108bc5780518252601f19909201916020918201910161089d565b60008033611cb8816111a5565b1515611cc357600080fd5b888860008211611cd257600080fd5b60008111611cdf57600080fd5b611ce7612219565b811015611cf357600080fd5b611cfb611474565b811115611d0757600080fd5b600160a060020a0388161515611d1c57600080fd5b611d2589612195565b1515611d3057600080fd5b611d6b8b8b89898080601f01602080910402602001604051908101604052809392919081815260200183838082843750612979945050505050565b9350611d778489612a76565b611d81848a612b72565b50919998505050505050505050565b6000600160a060020a0382161515611daa57506000610a82565b611db48383610996565b15159392505050565b6060600860006040516020018080600080516020613b48833981519152815250600d0190506040516020818303038152906040526040518082805190602001908083835b60208310611e205780518252601f199092019160209182019101611e01565b51815160209384036101000a600019018019909216911617905260408051929094018290039091208652858101969096525092830160002080548451818702810187019095528085529394909392508401905082828015611ea057602002820191906000526020600020905b815481526020019060010190808311611e8c575b5050505050905090565b600060046000836040516020018080600080516020613b68833981519152815250600b01828152602001807f63726561746f72000000000000000000000000000000000000000000000000008152506007019150506040516020818303038152906040526040518082805190602001908083835b60208310611f3d5780518252601f199092019160209182019101611f1e565b51815160209384036101000a6000190180199092169116179052604080519290940182900390912086528501959095529290920160002054600160a060020a031695945050505050565b600060046000836040516020018080600080516020613b68833981519152815250600b01828152602001807f70726f706f73656456616c756500000000000000000000000000000000000000815250600d0191505060405160208183030381529060405260405180828051906020019080838360208310611f3d5780518252601f199092019160209182019101611f1e565b6000600860006040516020018080600080516020613b48833981519152815250600d0190506040516020818303038152906040526040518082805190602001908083835b6020831061207c5780518252601f19909201916020918201910161205d565b51815160209384036101000a600019018019909216911617905260408051929094018290039091208652850195909552929092016000208054909350859250821090506120c557fe5b90600052602060002001549050919050565b60006004600060405160200180807f70726f787953746f726167650000000000000000000000000000000000000000815250600c0190506040516020818303038152906040526040518082805190602001908083835b6020831061214c5780518252601f19909201916020918201910161212d565b51815160209384036101000a6000190180199092169116179052604080519290940182900390912086528501959095529290920160002054600160a060020a0316949350505050565b600061219f6120d7565b600160a060020a03166333875fdd836040518263ffffffff1660e060020a02815260040180828152602001915050602060405180830381600087803b1580156121e757600080fd5b505af11580156121fb573d6000803e3d6000fd5b505050506040513d602081101561221157600080fd5b505192915050565b600290565b6000600260008360405160200180807f76616c696461746f7241637469766542616c6c6f74730000000000000000000081525060160182600160a060020a0316600160a060020a03166c01000000000000000000000000028152601401915050604051602081830303815290604052604051808280519060200190808383602083106108bc5780518252601f19909201916020918201910161089d565b60008060006122c8612c03565b91508115156122da57606492506122fc565b6122eb60648363ffffffff612d0416565b90508015156122f8575060015b8092505b505090565b806006600060405160200180807f6973496e697469616c697a656400000000000000000000000000000000000000815250600d0190506040516020818303038152906040526040518082805190602001908083835b602083106123755780518252601f199092019160209182019101612356565b51815160209384036101000a60001901801990921691161790526040805192909401829003909120865285019590955292909201600020805460ff19169415159490941790935550505050565b60408051600080516020613b68833981519152602080830191909152602b82018690527f766f746572730000000000000000000000000000000000000000000000000000604b8301526c01000000000000000000000000600160a060020a0386160260518301528251604581840301815260659092019283905281518493600293600093909282918401908083835b602083106124705780518252601f199092019160209182019101612451565b51815160209384036101000a6000190180199092169116179052604080519290940182900390912086528501959095529290920160002093909355505050505050565b60006124bd6120d7565b600160a060020a031663179e740b6040518163ffffffff1660e060020a028152600401602060405180830381600087803b1580156124fa57600080fd5b505af115801561250e573d6000803e3d6000fd5b505050506040513d602081101561252457600080fd5b5051604080517fbf135267000000000000000000000000000000000000000000000000000000008152600160a060020a0385811660048301529151919092169163bf1352679160248083019260209291908290030181600087803b1580156121e757600080fd5b60008282018381101561259d57600080fd5b8091505b5092915050565b8060026000846040516020018080600080516020613b68833981519152815250600b01828152602001807f61636365707465640000000000000000000000000000000000000000000000008152506008019150506040516020818303038152906040526040518082805190602001908083835b6020831061263a5780518252601f19909201916020918201910161261b565b51815160209384036101000a60001901801990921691161790526040805192909401829003909120865285019590955292909201600020939093555050505050565b8060026000846040516020018080600080516020613b68833981519152815250600b01828152602001807f72656a65637465640000000000000000000000000000000000000000000000008152506008019150506040516020818303038152906040526040518082805190602001908083836020831061263a5780518252601f19909201916020918201910161261b565b6127156120d7565b600160a060020a031663179e740b6040518163ffffffff1660e060020a028152600401602060405180830381600087803b15801561275257600080fd5b505af1158015612766573d6000803e3d6000fd5b505050506040513d602081101561277c57600080fd5b5051604080517f94409a560000000000000000000000000000000000000000000000000000000081529051600160a060020a03909216916394409a56916004808201926020929091908290030181600087803b1580156127db57600080fd5b505af11580156127ef573d6000803e3d6000fd5b505050506040513d602081101561280557600080fd5b505160408051600080516020613b68833981519152602082810191909152602b82018590527f746f74616c5374616b6500000000000000000000000000000000000000000000604b8301528251603581840301815260559092019283905281516002936000939290918291840190808383602083106116c75780518252601f1990920191602091820191016116a8565b61289e81610c16565b15156128b6576128ad81612d27565b6128b681612d5b565b6128bf81612dd7565b15612920576128cd816110b1565b6128d682610a88565b1115612905576128e581612e08565b156128fb576128f68160025b612e84565b612900565b612976565b612910565b6129108160036128f1565b61291b816000612f15565b612936565b61292b816001612f15565b6129368160036128f1565b61293f81612ff5565b61294a81600161304a565b60405181907fd470bb0d3dcb39ff5a62757e0a1cdfe60f8200eba22fd0d82383630d457f868690600090a25b50565b6000806000612986610ca4565b151561299157600080fd5b33915061299d826130db565b15156129a857600080fd5b6129b0610d5d565b90506129cb6129c682600163ffffffff61258b16565b611653565b6129d581876130f5565b6129df818661337e565b6129ea81600061304a565b6129f58160016128f1565b6129ff8183613576565b612a098185613607565b612a1a81612a15611143565b6136e7565b612a25816000612f15565b612a2e81613778565b612a378261382d565b604051600160a060020a0383169082907fe64b3864f6f22f8969f8cb16c039eaf6454ef5e23c09791df010163000a7023590600090a395945050505050565b8060046000846040516020018080600080516020613b68833981519152815250600b01828152602001807f70726f706f73656456616c756500000000000000000000000000000000000000815250600d019150506040516020818303038152906040526040518082805190602001908083835b60208310612b085780518252601f199092019160209182019101612ae9565b51815160209384036101000a60001901801990921691161790526040805192909401829003909120865285019590955292909201600020805473ffffffffffffffffffffffffffffffffffffffff1916600160a060020a0395909516949094179093555050505050565b8060026000846040516020018080600080516020613b68833981519152815250600b01828152602001807f636f6e7472616374547970650000000000000000000000000000000000000000815250600c019150506040516020818303038152906040526040518082805190602001908083836020831061263a5780518252601f19909201916020918201910161261b565b6000612c0d6120d7565b600160a060020a031663179e740b6040518163ffffffff1660e060020a028152600401602060405180830381600087803b158015612c4a57600080fd5b505af1158015612c5e573d6000803e3d6000fd5b505050506040513d6020811015612c7457600080fd5b5051604080517f40c9cdeb0000000000000000000000000000000000000000000000000000000081529051600160a060020a03909216916340c9cdeb916004808201926020929091908290030181600087803b158015612cd357600080fd5b505af1158015612ce7573d6000803e3d6000fd5b505050506040513d6020811015612cfd57600080fd5b5051905090565b600080808311612d1357600080fd5b8284811515612d1e57fe5b04949350505050565b600080612d3383611eaa565b9150612d3e8261221e565b90506000811115612d5657612d56826001830361384b565b505050565b6001600660008360405160200180807f66696e616c697a6543616c6c6564000000000000000000000000000000000000815250600e01828152602001915050604051602081830303815290604052604051808280519060200190808383602083106123755780518252601f199092019160209182019101612356565b600080600080612de685610e12565b92506127106107d08402049150612dfc85610a88565b91909111949350505050565b6000612e126120d7565b600160a060020a031663bb0165b1612e2984611c19565b612e3285611f87565b6040518363ffffffff1660e060020a0281526004018083815260200182600160a060020a0316600160a060020a0316815260200192505050602060405180830381600087803b1580156121e757600080fd5b8060026000846040516020018080600080516020613b68833981519152815250600b01828152602001807f71756f72756d5374617465000000000000000000000000000000000000000000815250600b019150506040516020818303038152906040526040518082805190602001908083836020831061263a5780518252601f19909201916020918201910161261b565b8060066000846040516020018080600080516020613b68833981519152815250600b01828152602001807f62656c6f775475726e4f75740000000000000000000000000000000000000000815250600c019150506040516020818303038152906040526040518082805190602001908083835b60208310612fa75780518252601f199092019160209182019101612f88565b51815160209384036101000a60001901801990921691161790526040805192909401829003909120865285019590955292909201600020805460ff1916941515949094179093555050505050565b6000806000613003846115c1565b9250600161300f611143565b03915061301b82612019565b905061302783826138e7565b61303181846136e7565b61303c8260006138e7565b6130446139a2565b50505050565b8060066000846040516020018080600080516020613b68833981519152815250600b01828152602001807f697346696e616c697a6564000000000000000000000000000000000000000000815250600b0191505060405160208183030381529060405260405180828051906020019080838360208310612fa75780518252601f199092019160209182019101612f88565b60006130e56122bb565b6130ee8361221e565b1092915050565b6000806000806131036120d7565b600160a060020a031663179e740b6040518163ffffffff1660e060020a028152600401602060405180830381600087803b15801561314057600080fd5b505af1158015613154573d6000803e3d6000fd5b505050506040513d602081101561316a57600080fd5b5051604080517fa65249230000000000000000000000000000000000000000000000000000000081529051919550600160a060020a0386169163a6524923916004808201926020929091908290030181600087803b1580156131cb57600080fd5b505af11580156131df573d6000803e3d6000fd5b505050506040513d60208110156131f557600080fd5b5051604080517faf2951810000000000000000000000000000000000000000000000000000000081529051919450600160a060020a0386169163af295181916004808201926020929091908290030181600087803b15801561325657600080fd5b505af115801561326a573d6000803e3d6000fd5b505050506040513d602081101561328057600080fd5b505191506132a4613297868563ffffffff613a6116565b839063ffffffff61258b16565b90508060026000886040516020018080600080516020613b68833981519152815250600b01828152602001807f7374617274426c6f636b00000000000000000000000000000000000000000000815250600a019150506040516020818303038152906040526040518082805190602001908083835b602083106133385780518252601f199092019160209182019101613319565b51815160209384036101000a6000190180199092169116179052604080519290940182900390912086528501959095529290920160002093909355505050505050505050565b600080600061338b6120d7565b600160a060020a031663179e740b6040518163ffffffff1660e060020a028152600401602060405180830381600087803b1580156133c857600080fd5b505af11580156133dc573d6000803e3d6000fd5b505050506040513d60208110156133f257600080fd5b5051604080517fa65249230000000000000000000000000000000000000000000000000000000081529051600160a060020a039092169163a6524923916004808201926020929091908290030181600087803b15801561345157600080fd5b505af1158015613465573d6000803e3d6000fd5b505050506040513d602081101561347b57600080fd5b5051925061348885610829565b915061349d613297858563ffffffff613a6116565b90508060026000876040516020018080600080516020613b68833981519152815250600b01828152602001807f656e64426c6f636b0000000000000000000000000000000000000000000000008152506008019150506040516020818303038152906040526040518082805190602001908083835b602083106135315780518252601f199092019160209182019101613512565b51815160209384036101000a60001901801990921691161790526040805192909401829003909120865285019590955292909201600020939093555050505050505050565b8060046000846040516020018080600080516020613b68833981519152815250600b01828152602001807f63726561746f720000000000000000000000000000000000000000000000000081525060070191505060405160208183030381529060405260405180828051906020019080838360208310612b085780518252601f199092019160209182019101612ae9565b8060036000846040516020018080600080516020613b68833981519152815250600b01828152602001807f6465736372697074696f6e000000000000000000000000000000000000000000815250600b019150506040516020818303038152906040526040518082805190602001908083835b602083106136995780518252601f19909201916020918201910161367a565b51815160001960209485036101000a01908116901991909116179052604080519490920184900390932086528583019690965250929093016000208451612d56959194509201919050613a8f565b8060026000846040516020018080600080516020613b68833981519152815250600b01828152602001807f696e6465780000000000000000000000000000000000000000000000000000008152506005019150506040516020818303038152906040526040518082805190602001908083836020831061263a5780518252601f19909201916020918201910161261b565b600860006040516020018080600080516020613b48833981519152815250600d0190506040516020818303038152906040526040518082805190602001908083835b602083106137d95780518252601f1990920191602091820191016137ba565b51815160209384036101000a60001901801990921691161790526040805192909401829003909120865285810196909652509290920160009081208054600181018255908252939020909201929092555050565b6129768161384b600161383f8561221e565b9063ffffffff61258b16565b80600260008460405160200180807f76616c696461746f7241637469766542616c6c6f74730000000000000000000081525060160182600160a060020a0316600160a060020a03166c010000000000000000000000000281526014019150506040516020818303038152906040526040518082805190602001908083836020831061263a5780518252601f19909201916020918201910161261b565b80600860006040516020018080600080516020613b48833981519152815250600d0190506040516020818303038152906040526040518082805190602001908083835b602083106139495780518252601f19909201916020918201910161392a565b51815160209384036101000a6000190180199092169116179052604080519290940182900390912086528501959095529290920160002080549093508692508210905061399257fe5b6000918252602090912001555050565b60006139ac611143565b111561141557600860006040516020018080600080516020613b48833981519152815250600d0190506040516020818303038152906040526040518082805190602001908083835b60208310613a135780518252601f1990920191602091820191016139f4565b51815160001960209485036101000a81019182169119929092161790915260408051959093018590039094208752860196909652509290930160002080549350612976929091508301613b0d565b600080831515613a7457600091506125a1565b50828202828482811515613a8457fe5b041461259d57600080fd5b828054600181600116156101000203166002900490600052602060002090601f016020900481019282601f10613ad057805160ff1916838001178555613afd565b82800160010185558215613afd579182015b82811115613afd578251825591602001919060010190613ae2565b50613b09929150613b2d565b5090565b815481835581811115612d5657600083815260209020612d569181019083015b610d5a91905b80821115613b095760008155600101613b33560061637469766542616c6c6f747300000000000000000000000000000000000000766f74696e675374617465000000000000000000000000000000000000000000a165627a7a72305820c6d321b27d4a5e1975f4e8f40f3d25ab2ce03a2516da97cff2d530a7b978f4e50029",
  "linkReferences": {},
  "deployedLinkReferences": {}
}